:020000040800F2
:10000000982F00209D440008450100084701000882
:100010004B0100084F0100085301000800000000D8
:100020000000000000000000000000005701000870
:1000300059010008000000005B0100085D01000894
:10004000B7440008B7440008B7440008B7440008A4
:10005000B7440008B7440008B7440008B744000894
:10006000AD060008B744000889060008B744000838
:10007000B7440008B7440008B7440008B744000874
:10008000B7440008B7440008B7440008B744000864
:10009000B7440008B7440008B744000863060008E6
:1000A000B7440008B7440008B7440008B744000844
:1000B000A1080008CD060008B7440008B7440008AE
:1000C000B7440008B7440008B7440008B744000824
:1000D000B7440008B7440008FD070008830800087B
:1000E000B7440008B7440008B7440008B744000804
:1000F000B7440008B7440008B7440008B7440008F4
:10010000B7440008B7440008B7440008B7440008E3
:10011000B7440008B7440008B7440008B7440008D3
:10012000B7440008B7440008B7440008B7440008C3
:10013000DFF80CD006F034FE004800474103000809
:10014000982F0020704700BFFEE700BFFEE700BF0A
:10015000FEE700BFFEE7704770477047704700003A
:100160000CB50020019000906C48006840F480308D
:100170006A49086000BF6948006800F400300090D8
:100180000198401C0190009818B90198B0F5A06F33
:10019000F1D16248006800F4003010B101200090F5
:1001A00001E0002000900098012843D15C480068DD
:1001B00040F010005A4908600846006820F003002B
:1001C00008600846006840F0020008605348406834
:1001D000524948600846406848600846406840F414
:1001E000806048600846406820F47C1048600846FB
:1001F000406840F4E81048600846006840F08070AD
:10020000086000BF4548006800F000700028F9D081
:100210004248406820F00300404948600846406872
:1002200040F00200486000BF3C48406800F00C000D
:100230000828F9D10CBD10B5FFF792FF10BD10B51D
:100240003648006840F001003449086008464068BC
:10025000344908403149486008460068324908403E
:100260002E4908600846006820F48020086008468F
:10027000406820F4FE0048604FF41F008860FFF7DC
:10028000DAFF4FF000602949086010BD10B5002169
:1002900000200022214B5B6803F00C0121B10429EE
:1002A00006D0082928D107E0214B224C236027E003
:1002B0001F4B204C236023E0184B5B6803F4701045
:1002C000164B5B6803F48032022303EB904022B9A3
:1002D000194B4343174C23600DE0104B5B6803F44C
:1002E000003323B1144B4343124C236003E0104B03
:1002F0004343104C236003E00D4B0E4C236000BFC2
:1003000000BF064B5B68C3F303130C4CE15C094B65
:100310001B68CB40074C236010BD0000001002405A
:10032000002002400000FFF8FFFFF6FE08ED00E0AD
:1003300000127A000000002000093D0004000020A7
:1003400003F06AFE4FF4A06004F0BAF803F003FE75
:1003500000F027F800F02AFA01E003F03EFEFCE787
:1003600010B50121084604F039FE0121082004F0EF
:1003700035FE0121042004F031FE0121102004F09B
:100380002DFE0121042004F036FE0121022004F09C
:1003900032FE10BD10B504462146EC4803F006FFBE
:1003A00010BD10B5FFF7DCFF2422E949E7483038DB
:1003B00006F0F2F81422E749E4480C3806F0ECF8AD
:1003C000E2483038E44B0ECB38300EC0A0F1440187
:1003D000E24B0DCB44310DC1A1F15000E04B93E84D
:1003E0001600DB68C0E91643C0E9141240F2DC5085
:1003F000D6493039A1F862000020A1F86000084613
:1004000003F0B3FFD148243803F08CFFCF481838ED
:1004100003F0FEFFCD480C3803F0A7FFCB4803F0F4
:1004200065FECA48083003F0A0FFC848143003F046
:100430009CFFCC4803F099FFCA480C3003F072FFD0
:10044000C94803F092FFC8480C3003F06BFF40F23C
:10045000DC50FFF79FFF10BD10B5BC4A303AB2F830
:100460004610906C04F0A7F9B84803F091FEB74825
:10047000183804F005F80121BC4805F01DFDB3480B
:10048000183803F0EFFF0020B0493039A1F86000C0
:10049000B7490880B7490880B7490880B74908803C
:1004A000B7490880A949303908840120B549087046
:1004B00010BD10B5A54A303AB2F84610906C04F061
:1004C0007CF9A24803F06BFEA048183803F0D1FF76
:1004D00010BD10B5044642F21070001B81B29B485B
:1004E00003F064FE10BD10B5984A303A518FD06BBE
:1004F00004F063F910BD10B5944A303A518FD06BB7
:1005000004F059F910BD10B5904A303A518FD06BB4
:1005100004F053F900218D4803F048FE10BD70B57A
:100520008A483038B0F8600080B188493039B1F875
:10053000600006F050FA0646934906F054F8054666
:10054000924906F082F80446204670BD0020FCE780
:1005500070B58948008801280FD10020864908809D
:100560008448008806F037FA0546874906F03BF8CC
:100570000446864906F069F870BD0020FCE770B5B6
:100580007E48008801280FD100207C4908807848E7
:10059000008806F020FA05467B4906F024F8044658
:1005A0007A4906F052F870BD0020FCE770B50446A9
:1005B0007649204606F017F80646734906F045F8D6
:1005C000054606F00DFA61493039A1F8620070BDA8
:1005D00010B55E483038B0F862005C493039B1F887
:1005E0006010401A01B259483038A0F85810B0F8DD
:1005F0005010B0F85800084400B254493039A1F8FE
:1006000050000846B0F95200B1F9581048434F491C
:100610003039B1F954104D4A303AB2F9502001FB4B
:1006200002014A483038B0F95820B0F95A00121A7D
:1006300046483038B0F9560000FB021143483038C4
:10064000C165B0F85810A0F85A10C06D4FF47A7117
:1006500090FBF1F000F2DC5084B22046FFF79AFEE6
:1006600010BD10B54FF4007005F09EFC58B1404825
:10067000008840B1012041490880FFF71AFF4FF47C
:10068000007005F0A2FC10BD10B5102005F08CFC28
:1006900058B10120384908802C483038B0F8600043
:1006A00034490880102005F090FC10BD10B50420DE
:1006B00005F07AFC48B125483038008C401C2349AD
:1006C00030390884042005F080FC10BD10B50121EC
:1006D000264805F0E0FBC0B32A48007801282AD05C
:1006E0001A483038008C19493039A1F860000846A2
:1006F000B0F8600022490988081A0A2807DD00209E
:100700001F49088001201D490880FFF7D2FE0F48CD
:100710003038B0F8600016490988884205DD0B487A
:100720003038B0F860001249088008483038B0F816
:1007300060001349088000201249087003493039CD
:1007400008840121094805F0B7FB10BDAC01002069
:1007500014000020680000207C0000208800002099
:1007600094000020380000205000002000040040C9
:10077000A4000020A6000020A8000020AA0000205D
:10078000AE000020AC000020000070410000C84412
:1007900010B50121084604F021FC0121042004F0D9
:1007A0001DFC0121480404F026FC10BD10B5FFF724
:1007B000EFFF164803F0D9FD14480C3003F0D5FDC7
:1007C0001248183003F0EFFD10BD00BF0F498969D2
:1007D000098801F040010029F8D00C498969888016
:1007E000704700B50246002304E0D05CFFF7EDFF40
:1007F000581C83B2D05C0028F7D100BD10B540F280
:100800002551034804F038FA10BD0000B000002064
:100810000044004010B50121084604F0DFFB01212F
:10082000084604F0E8FB0121082004F0D7FB012171
:10083000880404F0E0FB10BD10B50446FFF7EAFFA2
:10084000FE4803F092FDFD480C3003F08EFDFB489E
:10085000183003F0A8FDF948283003F0D9FDF74817
:100860000463283003F0FEFD10BD00BFF349896921
:10087000098801F040010029F8D0F0498969888091
:10088000704710B540F22551ED4804F0F5F930B14C
:10089000EB4804F071F9C4B2204601F0FCFC10BD35
:1008A00010B50121880705F0F6FA48B1E348006B5E
:1008B00010B1E249086B80470121880705F0FCFA76
:1008C00010BD014606E04FF47A7200E0521E002A85
:1008D000FCDC491E0029F6DC704700B5024603E047
:1008E0001078FFF7C2FF521C10780028F8D100BD25
:1008F00010B503460C46002204E0985CFFF7B5FFF4
:10090000501C82B2A242F8DB10BD10B503460C4663
:1009100000220AE033F81210080AFFF7A6FF13F8C6
:100920001200FFF7A2FF501C82B2A242F2DB10BD00
:1009300000B5EE20FFF799FF0020FFF796FFFF209C
:10094000FFF793FFFC20FFF790FFFF20FFF78DFFDD
:10095000FF20FFF78AFF00BD00B50246EE20FFF73B
:1009600084FF4120FFF781FF100AFFF77EFFD0B21E
:10097000FFF77BFFFF20FFF778FFFC20FFF775FFF5
:10098000FF20FFF772FFFF20FFF76FFF00BD00B5EC
:100990000246EE20FFF769FF4220FFF766FF100ACC
:1009A000FFF763FFD0B2FFF760FFFF20FFF75DFFA7
:1009B000FC20FFF75AFFFF20FFF757FFFF20FFF74C
:1009C00054FF00BD10B504460B46EE20FFF74DFF67
:1009D000A320FFF74AFFE0B2FFF747FF180AFFF72F
:1009E00044FFD8B2FFF741FF100AFFF73EFFD0B235
:1009F000FFF73BFFFF20FFF738FFFC20FFF735FF35
:100A0000FF20FFF732FFFF20FFF72FFF10BD00B5DB
:100A1000EE20FFF72AFF0120FFF727FFFF20FFF757
:100A200024FFFC20FFF721FFFF20FFF71EFFFF2020
:100A3000FFF71BFF00BD00B502460B46EE20FFF797
:100A400014FF4320FFF711FFD0B2FFF70EFFD8B21B
:100A5000FFF70BFFFF20FFF708FFFC20FFF705FF64
:100A6000FF20FFF702FFFF20FFF7FFFE00BD10B5DC
:100A700004460B46EE20FFF7F8FE4520FFF7F5FE93
:100A8000E0B2FFF7F2FE180AFFF7EFFED8B2FFF769
:100A9000ECFE100AFFF7E9FED0B2FFF7E6FEFF20FA
:100AA000FFF7E3FEFC20FFF7E0FEFF20FFF7DDFE8F
:100AB000FF20FFF7DAFE10BD00B502460B46EE2020
:100AC000FFF7D3FE4420FFF7D0FE100AFFF7CDFE5C
:100AD000D0B2FFF7CAFE180AFFF7C7FED8B2FFF779
:100AE000C4FEFF20FFF7C1FEFC20FFF7BEFEFF2083
:100AF000FFF7BBFEFF20FFF7B8FE00BDF0B50446D0
:100B00000D461646059FEE20FFF7AFFE2020FFF7AB
:100B1000ACFE200AFFF7A9FEE0B2FFF7A6FE280A06
:100B2000FFF7A3FEE8B2FFF7A0FEF0B2FFF79DFECD
:100B3000D8B2FFF79AFE3846FFF7CFFEFF20FFF747
:100B400094FEFC20FFF791FEFF20FFF78EFEFF20B2
:100B5000FFF78BFEF0BD70B505460C46049EEE20F7
:100B6000FFF783FE2120FFF780FEE8B2FFF77DFE4E
:100B7000200AFFF77AFEE0B2FFF777FE100AFFF7D0
:100B800074FED0B2FFF771FED8B2FFF76EFEF0B27E
:100B9000FFF76BFEFF20FFF768FEFC20FFF765FE06
:100BA000FF20FFF762FEFF20FFF75FFE70BD00B57C
:100BB00002460B46EE20FFF758FE3120FFF755FEA8
:100BC000100AFFF752FED0B2FFF74FFED8B2FFF780
:100BD0004CFEFF20FFF749FEFC20FFF746FEFF20FA
:100BE000FFF743FEFF20FFF740FE00BD30B504468F
:100BF0000D46EE20FFF739FE3220FFF736FE200AC1
:100C0000FFF733FEE0B2FFF730FE280AFFF72DFEB4
:100C1000E8B2FFF72AFE100AFFF727FED0B2FFF76F
:100C200024FED8B2FFF721FEFF20FFF71EFEFC20B6
:100C3000FFF71BFEFF20FFF718FE03E0D80000209F
:100C400000480040FF20FFF710FE30BD2DE9F043C3
:100C500004460D4607AE96E8C003EE20FFF705FEFA
:100C60003320FFF702FE200AFFF7FFFDE0B2FFF797
:100C7000FCFD280AFFF7F9FDE8B2FFF7F6FD100AC0
:100C8000FFF7F3FDD0B2FFF7F0FD180AFFF7EDFD17
:100C9000D8B2FFF7EAFD300AFFF7E7FDF0B2FFF741
:100CA000E4FD380AFFF7E1FDF8B2FFF7DEFD4FEA99
:100CB0001820FFF7DAFD08F0FF00FFF7D6FD09F076
:100CC000FF00FFF7D2FDFF20FFF7CFFDFC20FFF76D
:100CD000CCFDFF20FFF7C9FDFF20FFF7C6FDBDE8F3
:100CE000F08370B504460D46049EEE20FFF7BDFD6F
:100CF0008020FFF7BAFD200AFFF7B7FDE0B2FFF74B
:100D0000B4FD280AFFF7B1FDE8B2FFF7AEFD100A07
:100D1000FFF7ABFDD0B2FFF7A8FDD8B2FFF7A5FDF6
:100D2000F0B2FFF7A2FDFF20FFF79FFDFC20FFF7C9
:100D30009CFDFF20FFF799FDFF20FFF796FD70BD9A
:100D400000B502460B46EE20FFF78FFD5020FFF75F
:100D50008CFD100AFFF789FDD0B2FFF786FD180A57
:100D6000FFF783FDD8B2FFF780FDFF20FFF77DFD81
:100D7000FC20FFF77AFDFF20FFF777FDFF20FFF74C
:100D800074FD00BD30B504460D46EE20FFF76DFD45
:100D90005120FFF76AFD200AFFF767FDE0B2FFF779
:100DA00064FD280AFFF761FDE8B2FFF75EFD100A57
:100DB000FFF75BFDD0B2FFF758FD180AFFF755FDAE
:100DC000D8B2FFF752FDFF20FFF74FFDFC20FFF7E1
:100DD0004CFDFF20FFF749FDFF20FFF746FD30BD2A
:100DE00070B505460E461446EE20FFF73EFD632023
:100DF000FFF73BFDE8B2FFF738FD4FF6FF7000EA62
:100E000044013046FFF781FDFF20FFF72EFDFC2057
:100E1000FFF72BFDFF20FFF728FDFF20FFF725FD43
:100E200070BDF0B504460D4616461F46EE20FFF78E
:100E30001CFD5920FFF719FD200AFFF716FDE0B24F
:100E4000FFF713FD280AFFF710FDE8B2FFF70DFDCD
:100E500039463046FFF759FDFF20FFF706FDFC201D
:100E6000FFF703FDFF20FFF700FDFF20FFF7FDFC6C
:100E7000F0BDF0B504460D4616461F46EE20FFF7BE
:100E8000F4FC7520FFF7F1FC200AFFF7EEFCE0B25E
:100E9000FFF7EBFC280AFFF7E8FCE8B2FFF7E5FCF8
:100EA00039463046FFF731FDFF20FFF7DEFCFC201E
:100EB000FFF7DBFCFF20FFF7D8FCFF20FFF7D5FC96
:100EC000F0BDF0B504460D4616461F46EE20FFF76E
:100ED000CCFC7620FFF7C9FC200AFFF7C6FCE0B285
:100EE000FFF7C3FC280AFFF7C0FCE8B2FFF7BDFC20
:100EF00039463046FFF709FDFF20FFF7B6FCFC201E
:100F0000FFF7B3FCFF20FFF7B0FCFF20FFF7ADFCBD
:100F1000F0BD30B504460D46EE20FFF7A6FC772065
:100F2000FFF7A3FCE0B2FFF7A0FCE8B2FFF79DFCDF
:100F3000D0B2FFF79AFCD8B2FFF797FCFF20FFF77B
:100F400094FCFC20FFF791FCFF20FFF78EFCFF20B4
:100F5000FFF78BFC30BD30B505460C46EE20FFF7A1
:100F600084FC6820FFF781FC4FF6FF7000EA440123
:100F70002846FFF7CAFCFF20FFF777FCFC20FFF7AD
:100F800074FCFF20FFF771FCFF20FFF76EFC30BD03
:100F900030B505460C46EE20FFF767FC6920FFF7E9
:100FA00064FC4FF6FF7000EA44012846FFF7ADFCF1
:100FB000FF20FFF75AFCFC20FFF757FCFF20FFF74C
:100FC00054FCFF20FFF751FC30BD10B503460C4622
:100FD000EE20FFF74AFC5220FFF747FC180AFFF704
:100FE00044FCD8B2FFF741FC200AFFF73EFCE0B218
:100FF000FFF73BFC100AFFF738FCD0B2FFF735FCD7
:10100000FF20FFF732FCFC20FFF72FFCFF20FFF74B
:101010002CFCFF20FFF729FC10BD10B503460C4641
:10102000EE20FFF722FC5320FFF71FFC180AFFF702
:101030001CFCD8B2FFF719FC200AFFF716FCE0B23F
:10104000FFF713FC100AFFF710FCD0B2FFF70DFCFE
:10105000FF20FFF70AFCFC20FFF707FCFF20FFF74B
:1010600004FCFF20FFF701FC10BD70B504460D46DF
:10107000049EEE20FFF7F9FB6720FFF7F6FB200A3E
:10108000FFF7F3FBE0B2FFF7F0FB280AFFF7EDFBF9
:10109000E8B2FFF7EAFB100AFFF7E7FBD0B2FFF771
:1010A000E4FB180AFFF7E1FBD8B2FFF7DEFB300ADA
:1010B000FFF7DBFBF0B2FFF7D8FBFF20FFF7D5FB14
:1010C000FC20FFF7D2FBFF20FFF7CFFBFF20FFF74D
:1010D000CCFB70BD30B504460D46EE20FFF7C5FBD6
:1010E0005420FFF7C2FB200AFFF7BFFBE0B2FFF777
:1010F000BCFB280AFFF7B9FBE8B2FFF7B6FB100A02
:10110000FFF7B3FBD0B2FFF7B0FB180AFFF7ADFB58
:10111000D8B2FFF7AAFBFF20FFF7A7FBFC20FFF7E1
:10112000A4FBFF20FFF7A1FBFF20FFF79EFB30BDD4
:1011300030B504460D46EE20FFF797FB5520FFF72C
:1011400094FB200AFFF791FBE0B2FFF78EFB280A21
:10115000FFF78BFBE8B2FFF788FB100AFFF785FB70
:10116000D0B2FFF782FB180AFFF77FFBD8B2FFF778
:101170007CFBFF20FFF779FBFC20FFF776FBFF20CD
:10118000FFF773FBFF20FFF770FB30BD30B504465F
:101190000D46EE20FFF769FB5620FFF766FB200A9D
:1011A000FFF763FBE0B2FFF760FB280AFFF75DFB88
:1011B000E8B2FFF75AFB100AFFF757FBD0B2FFF770
:1011C00054FB180AFFF751FBD8B2FFF74EFBFF2084
:1011D000FFF74BFBFC20FFF748FBFF20FFF745FB29
:1011E000FF20FFF742FB30BD30B504460D46EE2030
:1011F000FFF73BFB5720FFF738FB200AFFF735FBD3
:10120000E0B2FFF732FB280AFFF72FFBE8B2FFF747
:101210002CFB100AFFF729FBD0B2FFF726FB180AB8
:10122000FFF723FBD8B2FFF720FBFF20FFF71DFBE2
:10123000FC20FFF71AFBFF20FFF717FBFF20FFF74B
:1012400014FB30BD00B50246EE20FFF70EFB602018
:10125000FFF70BFBD0B2FFF708FBFF20FFF705FB02
:10126000FC20FFF702FBFF20FFF7FFFAFF20FFF74C
:10127000FCFA00BD00B50246EE20FFF7F6FA612049
:10128000FFF7F3FAD0B2FFF7F0FAFF20FFF7EDFA1D
:10129000FC20FFF7EAFAFF20FFF7E7FAFF20FFF74D
:1012A000E4FA00BD30B504460D46EE20FFF7DDFA46
:1012B0006520FFF7DAFA200AFFF7D7FAE0B2FFF766
:1012C000D4FA280AFFF7D1FAE8B2FFF7CEFA100AEB
:1012D000FFF7CBFAD0B2FFF7C8FA180AFFF7C5FA42
:1012E000D8B2FFF7C2FAFF20FFF7BFFAFC20FFF7E2
:1012F000BCFAFF20FFF7B9FAFF20FFF7B6FA30BDBE
:1013000070B505460E46144600220DB142F00102AA
:101310000EB142F0020214B142EA8400C2B213B12B
:1013200042EA4310C2B2EE20FFF79FFA7020FFF7A7
:101330009CFAD0B2FFF799FAFF20FFF796FAFC204B
:10134000FFF793FAFF20FFF790FAFF20FFF78DFADF
:1013500070BD00B5EE20FFF788FA7220FFF785FA1E
:10136000FF20FFF782FAFC20FFF77FFAFF20FFF74C
:101370007CFAFF20FFF779FA00BD00B5EE20FFF7F9
:1013800074FA7320FFF771FAFF20FFF76EFAFC2062
:10139000FFF76BFAFF20FFF768FAFF20FFF765FA07
:1013A00000BD00B5EE20FFF760FA0920FFF75DFAF7
:1013B000DE20FFF75AFAED20FFF757FA1320FFF768
:1013C00054FA3120FFF751FAFF20FFF74EFAFC20C4
:1013D000FFF74BFAFF20FFF748FAFF20FFF745FA27
:1013E00000BD00B5EE20FFF740FA0820FFF73DFAF8
:1013F000A520FFF73AFA5A20FFF737FA5F20FFF7E8
:1014000034FAF520FFF731FAFF20FFF72EFAFC201F
:10141000FFF72BFAFF20FFF728FAFF20FFF725FA46
:1014200000BD00B50246EE20FFF71FFAA020FFF72F
:101430001CFAD0B2FFF719FAFF20FFF716FAFC20CA
:10144000FFF713FAFF20FFF710FAFF20FFF70DFA5E
:1014500000BD00B50246EE20FFF707FAA120FFF716
:1014600004FAD0B2FFF701FAFF20FFF7FEF9FC20E3
:10147000FFF7FBF9FF20FFF7F8F9FF20FFF7F5F979
:1014800000BD00B50246EE20FFF7EFF9A220FFF7FE
:10149000ECF9D0B2FFF7E9F9FF20FFF7E6F9FC20FD
:1014A000FFF7E3F9FF20FFF7E0F9FF20FFF7DDF991
:1014B00000BD00B502460B46EE20FFF7D6F9A4208A
:1014C000FFF7D3F9D0B2FFF7D0F9D8B2FFF7CDF9D3
:1014D000FF20FFF7CAF9FC20FFF7C7F9FF20FFF74D
:1014E000C4F9FF20FFF7C1F900BD00B50246EE20A8
:1014F000FFF7BBF90520FFF7B8F9D0B2FFF7B5F950
:10150000FF20FFF7B2F9FC20FFF7AFF9FF20FFF74C
:10151000ACF9FF20FFF7A9F900BDF0B504460D4670
:10152000DDE90567EE20FFF7A0F98520FFF79DF9BB
:10153000E0B2FFF79AF9E8B2FFF797F9D0B2FFF7F8
:1015400094F9180AFFF791F9D8B2FFF78EF9300A2B
:10155000FFF78BF9F0B2FFF788F9380AFFF785F942
:10156000F8B2FFF782F9FF20FFF77FF9FC20FFF7C1
:101570007CF9FF20FFF779F9FF20FFF776F9F0BD3E
:1015800070B504460E461546EE20FFF76EF987202B
:10159000FFF76BF9200EFFF768F9C4F30740FFF778
:1015A00064F9C4F30720FFF760F9E0B2FFF75DF9D3
:1015B00031462846FFF79CF9FF20FFF756F9FC203B
:1015C000FFF753F9FF20FFF750F9FF20FFF74DF920
:1015D00070BD00B502460B46EE20FFF746F98820A5
:1015E000FFF743F9100EFFF740F9C2F30740FFF78A
:1015F0003CF9C2F30720FFF738F9D0B2FFF735F90D
:10160000180AFFF732F9D8B2FFF72FF9FF20FFF7DA
:101610002CF9FC20FFF729F9FF20FFF726F9FF201E
:10162000FFF723F900BD00B5EE20FFF71EF9B1204A
:10163000FFF71BF90120FFF718F9FF20FFF715F955
:10164000FC20FFF712F9FF20FFF70FF9FF20FFF74B
:101650000CF900BD00B50246EE20FFF706F9B120F7
:10166000FFF703F90020FFF700F9100AFFF7FDF874
:10167000D0B2FFF7FAF8FF20FFF7F7F8FC20FFF7EA
:10168000F4F8FF20FFF7F1F8FF20FFF7EEF800BDB8
:1016900000B50246EE20FFF7E8F8B320FFF7E5F8C3
:1016A000D0B2FFF7E2F8FF20FFF7DFF8FC20FFF7EA
:1016B000DCF8FF20FFF7D9F8FF20FFF7D6F800BDD0
:1016C00010B503460C46EE20FFF7CFF8B120FFF728
:1016D000CCF80220FFF7C9F8180AFFF7C6F8D8B20D
:1016E000FFF7C3F8200AFFF7C0F8E0B2FFF7BDF834
:1016F000D0B2FFF7BAF8FF20FFF7B7F8FC20FFF7EA
:10170000B4F8FF20FFF7B1F8FF20FFF7AEF810BDE7
:1017100010B503460C46EE20FFF7A7F8B120FFF7FF
:10172000A4F80320FFF7A1F8180AFFF79EF8D8B233
:10173000FFF79BF8200AFFF798F8E0B2FFF795F85B
:10174000D0B2FFF792F8FF20FFF78FF8FC20FFF7E9
:101750008CF8FF20FFF789F8FF20FFF786F810BD0F
:1017600010B503460C46EE20FFF77FF8B120FFF7D7
:101770007CF80420FFF779F8180AFFF776F8D8B25A
:10178000FFF773F8200AFFF770F8E0B2FFF76DF883
:10179000D0B2FFF76AF8FF20FFF767F8FC20FFF7E9
:1017A00064F8FF20FFF761F8FF20FFF75EF810BD37
:1017B00010B503460C46EE20FFF757F8B120FFF7AF
:1017C00054F81020FFF751F8180AFFF74EF8D8B276
:1017D000FFF74BF8200AFFF748F8E0B2FFF745F8AB
:1017E000D0B2FFF742F8FF20FFF73FF8FC20FFF7E9
:1017F0003CF8FF20FFF739F8FF20FFF736F810BD5F
:1018000030B503460C461546EE20FFF72EF8B12002
:10181000FFF72BF81020FFF728F8180AFFF725F834
:10182000D8B2FFF722F8200AFFF71FF8E0B2FFF75F
:101830001CF82846FFF751F8FF20FFF716F8FC20A8
:10184000FFF713F8FF20FFF710F8FF20FFF70DF860
:1018500030BD10B503460C46EE20FFF706F8B12068
:10186000FFF703F81020FFF700F8180AFEF7FDFF56
:10187000D8B2FEF7FAFF200AFEF7F7FFE0B2FEF754
:10188000F4FF100EFEF7F1FFC2F30740FEF7EDFF85
:10189000C2F30720FEF7E9FFD0B2FEF7E6FFFF2014
:1018A000FEF7E3FFFC20FEF7E0FFFF20FEF7DDFF81
:1018B000FF20FEF7DAFF10BD10B503460C46EE2000
:1018C000FEF7D3FFB120FEF7D0FF1020FEF7CDFFCB
:1018D000180AFEF7CAFFD8B2FEF7C7FF200AFEF7C4
:1018E000C4FFE0B2FEF7C1FF100EFEF7BEFFC2F369
:1018F0000740FEF7BAFFC2F30720FEF7B6FFD0B2EB
:10190000FEF7B3FFFF20FEF7B0FFFC20FEF7ADFFB0
:10191000FF20FEF7AAFFFF20FEF7A7FF10BD10B5BE
:1019200003460C46EE20FEF7A0FFB120FEF79DFF18
:101930001020FEF79AFF180AFEF797FFD8B2FEF7BD
:1019400094FF200AFEF791FFE0B2FEF78EFF100E23
:10195000FEF78BFFC2F30740FEF787FFC2F30720B5
:10196000FEF783FFD0B2FEF780FFFF20FEF77DFF7A
:10197000FC20FEF77AFFFF20FEF777FFFF20FEF73F
:1019800074FF10BD10B503460C46EE20FEF76DFF48
:10199000B120FEF76AFF1020FEF767FF180AFEF776
:1019A00064FFD8B2FEF761FF200AFEF75EFFE0B2E7
:1019B000FEF75BFFD0B2FEF758FFFF20FEF755FFA2
:1019C000FC20FEF752FFFF20FEF74FFFFF20FEF73F
:1019D0004CFF10BD00B502460B46EE20FEF745FF5A
:1019E000B120FEF742FF1120FEF73FFF100AFEF77D
:1019F0003CFFD0B2FEF739FF180AFEF736FFD8B227
:101A0000FEF733FFFF20FEF730FFFC20FEF72DFF2F
:101A1000FF20FEF72AFFFF20FEF727FF00BD00B5DD
:101A200002460B46EE20FEF720FFB120FEF71DFF19
:101A30002020FEF71AFF100AFEF717FFD0B2FEF7BC
:101A400014FF180AFEF711FFD8B2FEF70EFFFF20B1
:101A5000FEF70BFFFC20FEF708FFFF20FEF705FF57
:101A6000FF20FEF702FF00BD00B502460B46EE2048
:101A7000FEF7FBFEB120FEF7F8FE2120FEF7F5FE93
:101A8000100AFEF7F2FED0B2FEF7EFFE180AFEF7DC
:101A9000ECFED8B2FEF7E9FEFF20FEF7E6FEFC20E2
:101AA000FEF7E3FEFF20FEF7E0FEFF20FEF7DDFE7F
:101AB00000BD00B502460B46EE20FEF7D6FEB12073
:101AC000FEF7D3FE2220FEF7D0FE100AFEF7CDFE71
:101AD000D0B2FEF7CAFE180AFEF7C7FED8B2FEF76C
:101AE000C4FEFF20FEF7C1FEFC20FEF7BEFEFF2075
:101AF000FEF7BBFEFF20FEF7B8FE00BD10B50346A3
:101B00000C46EE20FEF7B1FEB120FEF7AEFE23201C
:101B1000FEF7ABFE180AFEF7A8FED8B2FEF7A5FE48
:101B2000200AFEF7A2FEE0B2FEF79FFED0B2FEF75B
:101B30009CFEFF20FEF799FEFC20FEF796FEFF209C
:101B4000FEF793FEFF20FEF790FE10BD00B50246A3
:101B50000B46EE20FEF789FEB120FEF786FE24201C
:101B6000FEF783FE100AFEF780FED0B2FEF77DFE80
:101B7000180AFEF77AFED8B2FEF777FEFF20FEF7CE
:101B800074FEFC20FEF771FEFF20FEF76EFEFF20C4
:101B9000FEF76BFE00BD00B502460B46EE20FEF7D9
:101BA00064FEB120FEF761FE2520FEF75EFE100AFE
:101BB000FEF75BFED0B2FEF758FE180AFEF755FEA0
:101BC000D8B2FEF752FEFF20FEF74FFEFC20FEF7D4
:101BD0004CFEFF20FEF749FEFF20FEF746FE00BD4B
:101BE00030B504460D46EE20FEF73FFEB120FEF76D
:101BF0003CFE3020FEF739FE200AFEF736FEE0B24A
:101C0000FEF733FE280AFEF730FEE8B2FEF72DFE9F
:101C1000D0B2FEF72AFE180AFEF727FED8B2FEF76A
:101C200024FEFF20FEF721FEFC20FEF71EFEFF2013
:101C3000FEF71BFEFF20FEF718FE30BD10B5034671
:101C40000C46EE20FEF711FEB120FEF70EFE31200D
:101C5000FEF70BFE180AFEF708FED8B2FEF705FEE7
:101C6000200AFEF702FEE0B2FEF7FFFDD0B2FEF75B
:101C7000FCFDFF20FEF7F9FDFC20FEF7F6FDFF203E
:101C8000FEF7F3FDFF20FEF7F0FD10BD2DE9F0415A
:101C900004460D4617469846069EEE20FEF7E5FDE3
:101CA000B120FEF7E2FD3220FEF7DFFD200AFEF74D
:101CB000DCFDE0B2FEF7D9FD280AFEF7D6FDE8B25A
:101CC000FEF7D3FDF8B2FEF7D0FD300AFEF7CDFDEA
:101CD000F0B2FEF7CAFD31464046FEF709FEFF208E
:101CE000FEF7C3FDFC20FEF7C0FDFF20FEF7BDFDA3
:101CF000FF20FEF7BAFDBDE8F08110B503460C46A3
:101D0000EE20FEF7B2FDB120FEF7AFFD3320FEF767
:101D1000ACFD180AFEF7A9FDD8B2FEF7A6FD200A11
:101D2000FEF7A3FDE0B2FEF7A0FDD0B2FEF79DFDE9
:101D3000FF20FEF79AFDFC20FEF797FDFF20FEF73F
:101D400094FDFF20FEF791FD10BDF0B504460D4651
:101D5000DDE90567EE20FEF788FDB120FEF785FD81
:101D60003420FEF782FD200AFEF77FFDE0B2FEF789
:101D70007CFD280AFEF779FDE8B2FEF776FDC2F396
:101D80000720FEF772FDD0B2FEF76FFD180AFEF7CE
:101D90006CFDD8B2FEF769FDC6F30720FEF765FDBE
:101DA000F0B2FEF762FD380AFEF75FFDF8B2FEF70B
:101DB0005CFDFF20FEF759FDFC20FEF756FDFF20DD
:101DC000FEF753FDFF20FEF750FDF0BD00B50246C3
:101DD000EE20FEF74AFDB120FEF747FD1220FEF788
:101DE00044FD100AFEF741FDD0B2FEF73EFD00BDF6
:101DF00000B502460B46100AFEF737FDD0B2FEF7DB
:101E000034FD0020FEF731FD0120FEF72EFDD8B293
:101E1000FEF72BFD00BD00B503460A46180AFEF783
:101E200024FDD8B2FEF721FD0020FEF71EFD0420A0
:101E3000FEF71BFD100EFEF718FDC2F30740FEF77C
:101E400014FDC2F30720FEF710FDD0B2FEF70DFD22
:101E500000BD00B503460A46180AFEF706FDD8B2D3
:101E6000FEF703FD0020FEF700FD0420FEF7FDFC59
:101E7000100EFEF7FAFCC2F30740FEF7F6FCC2F3C1
:101E80000720FEF7F2FCD0B2FEF7EFFC00BD00B574
:101E900003460A46180AFEF7E8FCD8B2FEF7E5FC4E
:101EA0000020FEF7E2FC0420FEF7DFFC100EFEF738
:101EB000DCFCC2F30740FEF7D8FCC2F30720FEF7B4
:101EC000D4FCD0B2FEF7D1FC00BD01460A4600E0CA
:101ED000491C08780028FBD1881A704730B50346A2
:101EE0000C46180AFEF7C1FCD8B2FEF7BEFC20462D
:101EF000FFF7EBFFC0F307252846FEF7B6FC2046A8
:101F0000FFF7E3FFC5B22846FEF7AFFC2046FEF719
:101F1000E4FC30BD00B502460B46100AFEF7A5FCF6
:101F2000D0B2FEF7A2FC0020FEF79FFC0220FEF7D5
:101F30009CFC180AFEF799FCD8B2FEF796FC00BD8F
:101F400000B5FF20FEF791FCFC20FEF78EFCFF2081
:101F5000FEF78BFCFF20FEF788FC00BD10B50346A2
:101F60000C46EE20FEF781FCB120FEF77EFC4020FF
:101F7000FEF77BFC180AFEF778FCD8B2FEF775FC7A
:101F8000200AFEF772FCE0B2FEF76FFC100EFEF7BF
:101F90006CFCC2F30740FEF768FCC2F30720FEF7B3
:101FA00064FCD0B2FEF761FCFF20FEF75EFCFC2073
:101FB000FEF75BFCFF20FEF758FCFF20FEF755FC08
:101FC00010BD00B502460B46EE20FEF74EFCB120D8
:101FD000FEF74BFC4120FEF748FC100AFEF745FCDB
:101FE000D0B2FEF742FC180AFEF73FFCD8B2FEF76B
:101FF0003CFCFF20FEF739FCFC20FEF736FCFF20FE
:10200000FEF733FCFF20FEF730FC00BD00B50246B2
:102010000B46EE20FEF729FCB120FEF726FC4220FD
:10202000FEF723FC100AFEF720FCD0B2FEF71DFCE1
:10203000180AFEF71AFCD8B2FEF717FCFF20FEF7CD
:1020400014FCFC20FEF711FCFF20FEF70EFCFF2025
:10205000FEF70BFC00BD00B502460B46EE20FEF776
:1020600004FCB120FEF701FC4420FEF7FEFB100A41
:10207000FEF7FBFBD0B2FEF7F8FB180AFEF7F5FB04
:10208000D8B2FEF7F2FBFF20FEF7EFFBFC20FEF7D5
:10209000ECFBFF20FEF7E9FBFF20FEF7E6FB00BDAF
:1020A00010B503460C46EE20FEF7DFFBB120FEF72D
:1020B000DCFB1820FEF7D9FB180AFEF7D6FBD8B2D6
:1020C000FEF7D3FB200AFEF7D0FBE0B2FEF7CDFB14
:1020D000100AFEF7CAFBD0B2FEF7C7FBFF20FEF7DF
:1020E000C4FBFC20FEF7C1FBFF20FEF7BEFBFF2078
:1020F000FEF7BBFB10BD10B503460C46EE20FEF705
:10210000B4FBB120FEF7B1FB1920FEF7AEFB180AB5
:10211000FEF7ABFBD8B2FEF7A8FB200AFEF7A5FB43
:10212000E0B2FEF7A2FB100AFEF79FFBD0B2FEF76B
:102130009CFBFF20FEF799FBFC20FEF796FBFF209F
:10214000FEF793FBFF20FEF790FB10BD30B5044671
:102150000D46EE20FEF789FBB120FEF786FB13202B
:10216000FEF783FB200AFEF780FBE0B2FEF77DFB63
:10217000280AFEF77AFBE8B2FEF777FBD0B2FEF74B
:1021800074FB180AFEF771FBD8B2FEF76EFBFF2056
:10219000FEF76BFBFC20FEF768FBFF20FEF765FBFC
:1021A000FF20FEF762FB30BDF0B504460D46164633
:1021B0001F46EE20FEF759FBB120FEF756FB5220DA
:1021C000FEF753FB200AFEF750FBE0B2FEF74DFB93
:1021D000280AFEF74AFBE8B2FEF747FB002212E0AE
:1021E000002306E056F82210C85CFEF73EFB581CA0
:1021F000C3B256F82200C05C0028F3D13B20FEF7A2
:1022000034FB501CC2B2BA42EADBFF20FEF72DFBC2
:10221000FC20FEF72AFBFF20FEF727FBFF20FEF73E
:1022200024FBF0BDF0B505460C46DDE90567EE2060
:10223000FEF71BFB8620FEF718FBE8B2FEF715FB46
:10224000200AFEF712FBE0B2FEF70FFB100AFEF7C2
:102250000CFBD0B2FEF709FBD8B2FEF706FBF0B2DA
:10226000FEF703FBF8B2FEF700FBFF20FEF7FDFAD6
:10227000FC20FEF7FAFAFF20FEF7F7FAFF20FEF740
:10228000F4FAF0BD00203E49488008803D490860CE
:102290003D490880704710B5394A1288521C5023B6
:1022A00092FBF3F403FB142291B2354A52888A421E
:1022B00005D0334A1388121DD054121F118010BD4F
:1022C0002F4949882E4A128891420ED02C494A88BB
:1022D000091D895C01702A494988491C502291FBDB
:1022E000F2F302FB1311264A5180704724480088FC
:1022F000503023494988401A502190FBF1F201FBEC
:10230000120080B27047F8B504460D460026002042
:1023100000902FE06846FFF7D3FF1B48008820B9E4
:102320009DF80000EE2800D024E017480088A8425D
:1023300008DA9DF80010144802880088401C124BEF
:102340001880A1549DF800000E49096840EA012058
:102350000C490860084600686FF44031884208D193
:102360000948068800200749086007490880304668
:10237000F8BD00BFFFF7BAFF0028CBDC0020F7E76D
:10238000E00100200C0100201001002000B591B0F8
:10239000F8A0FEF726FAF8A0FEF723FAF5A0FEF75C
:1023A00020FAFE480068C0EB401101EB8010FC49A8
:1023B0004218FCA104A804F023FF04A8FEF711FAB8
:1023C000F6480068C0EB401101EB8010F449084466
:1023D00000F11402F7A104A804F012FF04A8FEF70C
:1023E00000FAEE480068C0EB401101EB8010EC49A8
:1023F000084400F12502F3A104A804F001FF04A899
:10240000FEF7EFF9E5480068C0EB401101EB8010E2
:10241000E349084490F8340018B9EEA0FEF7E1F95A
:102420000EE0DE480068C0EB401101EB8010DC4993
:10243000084490F83400012802D1EBA0FEF7D1F94E
:10244000D6480068C0EB401101EB8010D449084425
:1024500000F13502E9A104A804F0D2FE04A8FEF7B9
:10246000C0F9EBA0FEF7BDF9C2A0FEF7BAF9ECA0E7
:10247000FEF7B7F9F3A0FEF7B4F9C8480068C0EB5F
:10248000401101EB8010C649084490F84D0018B97E
:10249000EEA0FEF7A6F98CE0C0480068C0EB401142
:1024A00001EB8010BE49084490F84D0001283AD154
:1024B0000021BA480068C0EB401202EB8010B84A15
:1024C000104480F84110B5480068C0EB401202EBA0
:1024D0008010B34A104480F84910B0480068C0EB3F
:1024E000401101EB80101146084400F13D02DEA1CD
:1024F00004A804F085FE04A8FEF773F9A748006855
:10250000C0EB401101EB8010A549084400F14502E1
:10251000D8A104A804F074FE04A8FEF762F9D8A0BC
:10252000FEF75FF945E09D480068C0EB401101EB04
:1025300080109B49084490F84D00022839D10021B1
:1025400096480068C0EB401202EB8010944A104499
:1025500080F8411091480068C0EB401202EB8010F7
:102560008F4A104480F849108C480068C0EB401135
:1025700001EB80101146084400F13D02BAA104A805
:1025800004F03EFE04A8FEF72CF984480068C0EB76
:10259000401101EB80108249084400F14502B5A1C9
:1025A00004A804F02DFE04A8FEF71BF9B6A0FEF760
:1025B00018F9B7A0FEF715F978480068C0EB40118C
:1025C00001EB80107649084490F85E0018B99FA08E
:1025D000FEF707F98CE071480068C0EB401101EB91
:1025E00080106F49084490F85E0001283AD100211C
:1025F0006A480068C0EB401202EB8010684A104441
:1026000080F8521065480068C0EB401202EB801061
:10261000634A104480F85A1060480068C0EB4011CB
:1026200001EB80101146084400F14E028EA104A86F
:1026300004F0E6FD04A8FEF7D4F858480068C0EBA3
:10264000401101EB80105649084400F1560289A15F
:1026500004A804F0D5FD04A8FEF7C3F888A0FEF78F
:10266000C0F845E04D480068C0EB401101EB801018
:102670004B49084490F85E00022839D100214748B0
:102680000068C0EB401202EB8010454A104480F80D
:10269000521042480068C0EB401202EB8010404AE2
:1026A000104480F85A103D480068C0EB401101EB1F
:1026B00080101146084400F14E026BA104A804F0FA
:1026C0009FFD04A8FEF78DF834480068C0EB401168
:1026D00001EB80103249084400F1560265A104A8BC
:1026E00004F08EFD04A8FEF77CF867A0FEF779F8E9
:1026F00020A0FEF776F81FA0FEF773F827480068C1
:10270000C0EB401101EB80102549084490F82300EC
:1027100022490968C1EB411202EB8111204A1144A0
:1027200091F822101D4A1268C2EB421303EB821289
:102730001B4B1A4492F82120CDE900210290174842
:102740000068C0EB401101EB801019460844C37FBC
:1027500012480068C0EB401101EB8010104908449A
:10276000827F4DA104A804F04BFD04A8FEF739F8C0
:1027700000A0A3E00D0A00002D2D2D2D2D2D3C3C99
:10278000CFDECBD9C6F7B2E2CAD4B1A8B8E63E3E96
:102790002D2D2D2D2D2D0D0A0000000020010020D3
:1027A0004A020020D7A2B2E1B4FAC2EBA3BA257361
:1027B0000D0A0000B3F6B3A7B1E0BAC5A3BA2573FA
:1027C0000D0A0000B9E6B8F1D0CDBAC5A3BA257399
:1027D0000D0A0000B5A5CBABB7BDCFF2A3BAB5A526
:1027E000CFF20D0A00000000B5A5CBABB7BDCFF20C
:1027F000A3BACBABCFF20D0A00000000B6EEB6A82C
:10280000CBD9B6C8A3BA2573286D2F732900000051
:10281000205BB1EAD7BC3A56787E56795D0D0A0046
:10282000B7BDCFF220B5E7C6F8CBD9B6C856312030
:10283000BBFAD0B5CBD9B6C856322020BDE1B9FB22
:102840000D0A0000C9CFD0D00000000020202020B9
:10285000205C202020202020202020205C20202000
:10286000202020205C0D0A002020253473286D2FA5
:102870007329200020253473286D2F732920200010
:10288000D2ECB3A30D0A0000D5FDB3A30D0A0000DE
:10289000CFC2D0D0000000002D2D2D2D2D2D3C3C81
:1028A000323025642D25642D25642025643A256465
:1028B0003E3E2D2D2D2D2D2D0D0A0000FDF791FFF3
:1028C000AFF25010FDF78DFFAFF25810FDF789FF02
:1028D000AFF26010FDF785FF11B000BD70B5054681
:1028E0000024FE488582002D5BD1012407E0AFF271
:1028F000581221460120FEF783FF601CC4B2052C4C
:10290000F5DD052407E0AFF2701221460220FEF744
:1029100077FF601CC4B20F2CF5DD012407E0AFF295
:10292000881221460420FEF76BFF601CC4B2032C02
:10293000F5DD012407E0AFF2A01221460520FEF7E5
:102940005FFF601CC4B2082CF5DD062407E0AFF27F
:10295000B81221460420FEF753FF601CC4B2212C9C
:10296000F5DD00220E210520FFF7C7F900220F2117
:102970000520FFF7C2F90020D9490870D94908702D
:10298000D9490870401ED9490860D9490860D94919
:102990000860D9490860D9490860D9488068D94990
:1029A000086070BD70472DE9F04F85B0CB48808A34
:1029B00005287CD1D4480078012879D1FDF7AFFDF6
:1029C0008346D249584603F00EFE044604F008F848
:1029D0008246CF4909688A4509D0CD480068401E23
:1029E000504504D0CA480068401C82450AD1C948F5
:1029F000006842F21071884204D2C6480068643010
:102A0000C4490860C248C0F800A0C3480068401C20
:102A1000C149086008460068022800D080E2002012
:102A2000BD490860BD48007800287CD1B9490988B3
:102A300088B2FDF7AFFCFDF772FD8346584603F000
:102A4000E3FF044622460B46B5A101A804F0D8FBDB
:102A500001AA01210520FEF7D3FEAC49584603F038
:102A6000C2FD044603F0BCFFC0B20490012004ABD9
:102A700000220E2100900520FFF708F9AB480068FE
:102A800003F0C2FF80460022A94B03F0C3FE0446B8
:102A90000D46584603F0B8FF064622462B4603F083
:102AA000C7FF7DD2FDF754FD8346584601E036E26C
:102AB000ABE003F0A9FF04469E4A9F4B03F0CCFF16
:102AC00023D29E48C0F800B0584603F09DFF04464C
:102AD0000B468C490968C1EB411202EB8111984AFF
:102AE000114401F13D0022468DA104F089FB854887
:102AF0000068C0EB401101EB80109149084400F1DF
:102B00003D0202210520FEF77BFEFDF738FD8346DE
:102B1000584603F079FF0446864A874B03F09CFF32
:102B200073D2584600E09BE003F06EFF04460B466C
:102B300074490968C1EB411202EB8111804A1144CA
:102B400001F14500224676A104F05AFB6D48006869
:102B5000C0EB401101EB80107949084400F14502B7
:102B600003210520FEF74CFE74480168584603F027
:102B7000ADFF1BD3734801687048006803F09CFFE9
:102B800014D36A4801686D48006803F09FFF0DD3B5
:102B90006C480168584603F08FFF07D3634800E094
:102BA00034E00168584603F091FF10D201205549E6
:102BB0000968C1EB411202EB8111614A114481F8AD
:102BC0004D0061A204210520FEF71AFE0FE002204D
:102BD0004C490968C1EB411202EB8111584A11447A
:102BE00081F84D005AA204210520FEF709FEFDF7E9
:102BF00060FC0020444908700490012004AB0022CE
:102C00000E2100900520FFF741F887E10020049095
:102C1000012004AB00220E2100900520FFF736F8BA
:102C2000FDF747FC4CA202210520FEF7E9FD4AA270
:102C300003210520FEF7E4FD012032490968C1EBBC
:102C4000411202EB81113E4A114481F84D003EA22F
:102C500004210520FEF7D4FD00202B4908705DE11A
:102C60002C49098888B2FDF734FCFDF758FC8346EF
:102C7000584603F0C9FE044622460B4628A101A887
:102C800004F0BEFA01AA05210846FEF7B9FD1F4966
:102C9000584603F0A8FC044603F0A2FEC0B204901C
:102CA000012004AB00220F2100900520FEF7EEFF6B
:102CB0001E48006803F0A8FE044600221C4B03F0E7
:102CC000A9FD06460F46584603F09EFE8046324652
:102CD0003B4603F0ADFE7CD240E000003402002011
:102CE000662700207A270020842700202801002062
:102CF0002C01002030010020340100203801002088
:102D00001401002020010020540100200000C842CE
:102D100050010020580100205C0100202401002007
:102D200025332E32666D2F73000000004001002015
:102D30000000F83F2D431CEBE2361A3F480100200B
:102D40004A02002044010020D2ECB3A3000000009E
:102D5000D5FDB3A3000000005C000000FDF7F8FB08
:102D60008346584603F050FE0446F84AF84B03F0F9
:102D700073FE24D2F748C0F800B0584603F044FE72
:102D800004460B46F4490968C1EB411202EB81117C
:102D9000F24A114401F14E002246AFF27C0104F0E8
:102DA0002FFAED480068C0EB401101EB8010EB49B1
:102DB000084400F14E0206210520FEF721FDFDF733
:102DC000DEFB8346584603F01FFE0446DF4AE04B15
:102DD00000E077E003F040FE73D2584603F014FEA3
:102DE00004460B46DC490968C1EB411202EB811134
:102DF000DA4A114401F156002246AFF2DC0104F038
:102E0000FFF9D5480068C0EB401101EB8010D349B1
:102E1000084400F1560207210520FEF7F1FCCD48D9
:102E20000168584603F052FE19D3CD480168C948DD
:102E3000006803F041FE12D3CA480168C548006823
:102E400003F044FE0BD3C6480168584603F034FE35
:102E500005D3C4480168584603F038FE11D201205A
:102E6000BD490968C1EB411202EB8111BB4A114413
:102E700081F85E00AFF2301208210520FEF7C0FC99
:102E800010E00220B4490968C1EB411202EB811144
:102E9000B24A114481F85E00AFF24C1208210520BD
:102EA000FEF7AEFC00200490012004AB00220F21AD
:102EB00000900520FEF7EAFEFDF7FBFA0020AA4984
:102EC00008702BE000200490012004AB00220F21A9
:102ED00000900520FEF7DAFEFDF7EBFAAFF288125C
:102EE00006210520FEF78CFCAFF294120721052085
:102EF000FEF786FC012098490968C1EB411202EBFC
:102F00008111964A114481F85E00AFF2C412082183
:102F10000520FEF775FC00209349087000E000BF13
:102F200000BF05B0BDE8F08F10B586B04FF0FF30A0
:102F30008E4908608E4908608E48006800283AD1A2
:102F400000240EE0C4EB441101EB8411834A88187D
:102F5000894903F03AFB10B98548046003E0601C1E
:102F6000C4B2642CEEDB00BF642C01D106B010BDEE
:102F7000632C02D17D480460F8E77D480078401C4E
:102F8000C4B20FE0C4EB441101EB8411734A8818FA
:102F9000794903F01AFB18B1601E7449086003E018
:102FA000601CC4B2642CEDDB00BF642C02D1632032
:102FB0006E490860C8E06F48006801283DD10024D0
:102FC00010E0C4EB441101EB8411644A114401F197
:102FD00014006A4903F0F9FA10B96548046003E087
:102FE000601CC4B2642CECDB00BF642C00D1BDE7D4
:102FF000632C02D15D480460B8E75D480078401C4E
:10300000C4B211E0C4EB441101EB8411534A1144E2
:1030100001F11400594903F0D8FA18B1601E534960
:10302000086003E0601CC4B2642CEBDB00BF642CBE
:10303000C0D163204D49086086E04E4800680228F0
:1030400061D1002422E0C4EB441000EB841043491A
:10305000084490F821000090C4EB441000EB841069
:103060000844C37FC4EB441000EB84100844827F03
:1030700043A102A804F0C4F8444902A803F0A5FA49
:1030800010B93B48046003E0601CC4B2642CDADB76
:1030900000BF642C00D169E7632C02D1334804607F
:1030A00064E733480078401CC4B223E0C4EB44100A
:1030B00000EB84102949084490F821000090C4EBEB
:1030C000441000EB84100844C37FC4EB441000EBB1
:1030D00084100844827F2AA102A804F091F82B49A9
:1030E00002A803F072FA18B1601E2049086003E0DC
:1030F000601CC4B2642CD9DB00BF642C24D16320D3
:103100001A49086020E01B480068401CE0B92048CC
:1031100080681F494968884209D91D488068401E57
:10312000124908601A484068114908600CE01848C4
:10313000406817498968401A012805D163200B4966
:10314000086000200A49086000BF0FE72D431CEB10
:10315000E2361A3F4C010020200100204A020020E4
:1031600044010020400100205401002038010020CB
:103170002C01002028010020662700207A2700204B
:10318000323025642E25642E25640000842700201B
:103190001401002010B586B00024EBE0FD48006863
:1031A0002044C0EB401101EB8010FB49084490F82B
:1031B00021000090F74800682044C0EB401101EB6B
:1031C0008010F5490844C37FF24800682044C0EBF2
:1031D000401101EB8010F0490844827FAFF260019A
:1031E00002A804F00DF8C4EBC400811D02AA04205B
:1031F000FEF706FBE74800682044C0EB401303EBF2
:103200008010E54BC218C4EBC400C11D0420FEF7BA
:10321000F7FAE04800682044C0EB401303EB80104D
:10322000DD4B184400F11402C4EBC40000F10801A6
:103230000420FEF7E5FAD74800682044C0EB4013AD
:1032400003EB8010D44B184400F12502C4EBC400FA
:1032500000F109010420FEF7D3FACE4800682044AB
:10326000C0EB401101EB8010CB49084490F83400CA
:1032700040B9C4EBC40000F10A01C8A20420FEF763
:10328000BFFA14E0C34800682044C0EB401101EBD2
:103290008010C149084490F83400012807D1C4EBDC
:1032A000C40000F10A01BFA20420FEF7A9FAB94840
:1032B00000682044C0EB401303EB8010B64B184469
:1032C00000F13502C4EBC40000F10B010420FEF74D
:1032D00097FAB04800682044C0EB401101EB801021
:1032E000AD49084490F84D00012838D0A94800683D
:1032F0002044C0EB401101EB8010A749084490F82E
:103300005E0001282BD0A34800682044C0EB401188
:1033100001EB8010A049084490F84D00A8B99D48E1
:1033200000682044C0EB401101EB80109A4908442A
:1033300090F85E0048B9C4EBC40000F10C01AFF294
:10334000E8520420FEF75CFA12E0C4EBC40000F17E
:103350000C01AFF204620420FEF752FA08E0C4EB5D
:10336000C40000F10C01AFF220620420FEF748FA1D
:10337000601CC4B28D48006886490968401A401C28
:10338000A0423FF70BAF06B010BD10B588480068EB
:10339000C0EB401101EB80107F494218052102204B
:1033A000FEF72EFA82480068C0EB401101EB801056
:1033B0007949084400F1140206210220FEF720FAA0
:1033C0007B480068C0EB401101EB80107249084453
:1033D00000F1250207210220FEF712FA7448006866
:1033E000C0EB401101EB80106B49084490F83400A9
:1033F00028B96AA208210220FEF702FA10E06C4800
:103400000068C0EB401101EB80106349084490F85C
:103410003400012804D163A208210220FEF7F0F94C
:1034200063480068C0EB401101EB80105A49084422
:1034300000F1350209210220FEF7E2F95C4800683C
:10344000C0EB401101EB80105349084490F84D0047
:1034500090B9AFF2FC620A210220FEF7D1F9AFF277
:1034600008720B210220FEF7CBF9AFF214720C2187
:103470000220FEF7C5F940E04D480068C0EB40115E
:1034800001EB80104449084490F84D00022822D1F5
:1034900047480068C0EB401101EB80103E490844EA
:1034A00000F13D020A210220FEF7AAF94048006817
:1034B000C0EB401101EB80103749084400F1450290
:1034C0000B210220FEF79CF9AFF27C720C21022046
:1034D000FEF796F911E0AFF280720A210220FEF7A2
:1034E0008FF9AFF28C720B210220FEF789F9AFF24F
:1034F000A8720C210220FEF783F92D480068C0EB6A
:10350000401101EB80102449084490F85E0090B906
:10351000AFF2BC720D210220FEF772F9AFF2C87251
:103520000E210220FEF76CF9AFF2D4720F210220B7
:10353000FEF766F950E01E480068C0EB401101EB51
:1035400080101549084490F85E00022832D11848CE
:103550000068C0EB401101EB80100F49084400F1F6
:103560004E020D210220FEF74BF911480068C0EB16
:10357000401101EB80100849084400F156020E2169
:103580000220FEF73DF9AFF638020F210220FEF7C8
:1035900037F921E0300100204A020020B5A5CFF222
:1035A00000000000CBABCFF200000000340100208F
:1035B00020010020AFF660020D210220FEF720F965
:1035C000AFF66C020E210220FEF71AF9AFF6880260
:1035D0000F210220FEF714F910BD2DE9FC4106462B
:1035E0000D461746002001900024022E04D0042E20
:1035F00009D0052E71D1FDE0032D02D1FEF7C6FEE4
:1036000000BF00BFB7E1242D69D006DC042D0BD02C
:10361000222D3FD0232D73D147E0252D71D0262DAB
:1036200070D0272DF7D1CBE04FF0FF30F84908607C
:10363000F8490860F8490860F8490860062407E07E
:10364000AFF2A40221460420FEF7DAF8601CC4B2EF
:10365000212CF5DDFFF768FC4FF0FF30F0490860E2
:10366000EB480068401CA0B1E9480068E9490860DF
:1036700008460068C01CE849086008460068E74939
:103680000968884203DDE5480068E3490860FFF700
:1036900081FDADE0DE480068401C18B1DD480068DF
:1036A000E0490860FFF771FEA2E0D9480068401CBD
:1036B00080B1D9480068D7490968401A012805DB5C
:1036C000D4480068401CD749086003E0D14800682E
:1036D000D4490860FFF759FE8AE04BE1FFE7CC4888
:1036E0000068401C00B3CC480068CA490968401A09
:1036F000022808DBC7480068801CCA49086013E03C
:1037000075E014E045E0C4480068C2490968401A01
:10371000012805DBBF480068401CC249086003E07F
:10372000BC480068BF490860FFF72FFE60E0B8485A
:103730000068401C28B3B8480068B6490968401AB8
:10374000032805DBB3480068C01CB64908601DE0CB
:10375000B1480068AF490968401A022805DBAD4846
:103760000068801CAF49086010E0AB480068A949B8
:103770000968401A022805DBA6480068401CA949D0
:10378000086003E0A3480068A6490860FFF7FDFD54
:103790002EE09F480068401C88B19F4800689F4900
:1037A0000968884209D09B480068401C9949086014
:1037B00099480068401C98490860FFF7EBFC17E047
:1037C00093480068401C88B1924800689049096895
:1037D000884209D08F480068401E8E4908608E4894
:1037E0000068401E8C490860FFF7D4FC00E000BF71
:1037F00000BFC0E0A5F10900052871D2DFE800F0A4
:103800000371A9ACB200012F65D1012407E0AFF22A
:10381000702221460520FDF7F3FF601CC4B2082C7E
:10382000F5DD4FF47A7000F034FC4FF47A7000F05C
:1038300030FC00207C49086001207C4908707C49EC
:103840007C48006802F0CFFE804603F0C9F87A4950
:1038500008607A48007830B9FCF74DFE4FF4FA5012
:10386000FCF798FD05E0FCF73EFE4FF4FA50FCF73C
:1038700030FEFCF7F1FD0A2000F00BFC6F480078E9
:10388000A0B9FCF738FE6C49098888B2FCF782FDC4
:1038900000220E210520FEF730FA012001AB0022A4
:1038A0000E2100900520FEF7F1F919E0FCF71BFE50
:1038B0006149098888B2FCF70CFE00220F2105201F
:1038C000FEF71BFA012001AB00220F21009005201A
:1038D000FEF7DCF904E0FCF7ECFD0020534908702A
:1038E00046E041F25C225649564800F0A8FC4D489B
:1038F00000685549886008468068632807D10846F3
:10390000406820B900208860012048601AE04E48D5
:1039100080684D49496888420FD24B488068401CF6
:103920004949886008464068401C4860084640682D
:10393000642807D10020486004E043488068401CA8
:1039400041498860062240493E480C3800F077FC27
:103950000EE0FEF71BFD0BE0FCF7CDFD0020374924
:10396000087005E0FCF7BFFD01203449087000BF76
:1039700000BF00E000BF00BFBDE8FC812DE9FF5F94
:1039800081460D461646304602F018FE0446B9F14F
:10399000010F03D0B9F1040F72D1FAE0012D06D066
:1039A000022D1BD0032D51D0052D6AD16AE01D498F
:1039B0000968C1EB411202EB8111214A88182246A5
:1039C000314602F0E9FD002016490968C1EB4112B9
:1039D00002EB81111A4A11440855D8E011490968CF
:1039E000C1EB411202EB8111154A114401F114009F
:1039F0002246314602F0D0FD00210A480068C0EBA3
:103A0000401202EB80100E4A104414300155BEE003
:103A10002C0100203001002034010020380100205A
:103A20002801002020010020500100205401002026
:103A300000401C463C0100205801002024010020C9
:103A40004A020020E4DA010814010020FE49096856
:103A5000C1EB411202EB8111FC4A114401F1250036
:103A60002246314602F098FD0021F7480068C0EB7D
:103A7000401202EB8010F54A10442530015586E0D3
:103A8000CFE083E0F0490968C1EB411202EB8111FC
:103A9000EE4A114401F135002246314602F07CFD28
:103AA0000021E9480068C0EB401202EB8010E74AB1
:103AB000104435300155E4490968C1EB411202EB6D
:103AC0008111E24A114401F1350004F01FF8074664
:103AD00002F0D6FFDE4908600846006802F094FF55
:103AE0000746DC4ADC4B02F0A3FF1DD2D848006831
:103AF00002F08AFF82464FF06632D84B02F08AFE0F
:103B0000074602F0BDFFD6490860D148006802F0C0
:103B10007BFF07460022D34B02F07CFE824602F078
:103B2000AFFFD149086030E0C948006802F06CFF7F
:103B300007464FF06632C94B02F06CFE824602F037
:103B40009FFFC7490860C248006802F05DFF074652
:103B50003A460B460020C54902F0CEFE82468B460F
:103B6000BB48006802F050FF07460022C04B02F03D
:103B700051FE52465B46CDE9000102F0A4FDCDE9BD
:103B8000020102F07DFFB849086000E000BF00BFFD
:103B900048E0012D04D0022D16D0032D3ED128E09F
:103BA00054B122463146B34802F0F6FC0020B14938
:103BB0000855B149086006E0AF48006818B94FF0F1
:103BC000FF30AD4908602AE05CB122463146AB487F
:103BD00002F0E2FC0020A94908550120A64908602E
:103BE00006E0A5480068012802D1801EA2490860AD
:103BF00015E05CB122463146A14802F0CDFC002020
:103C00009F49085502209C49086006E09A480068D0
:103C1000022802D1C01E9849086000E000BF00BF22
:103C200000E000BF00BFBDE8FF9F704770477047CE
:103C300030B501280BD1092909D1834C2468C4EB84
:103C4000441505EB8414814D2C4484F8342030BD98
:103C5000704770477047704730B50178CB1701EB5C
:103C600013731B11A1EB0313CC1701EB1474241174
:103C700004EB840403EB4403734C2468C4EB441545
:103C800005EB8414714D2C44A3774178CB1701EBDD
:103C900013731B11A1EB0313CC1701EB1474241144
:103CA00004EB840403EB4403DCB2674B1B68C3EBF7
:103CB000431505EB8313654D2B44DC77C178CB1797
:103CC00001EB13731B11A1EB0313CC1701EB14745D
:103CD000241104EB840403EB4403DCB25A4B1B684D
:103CE000C3EB431505EB8313584D2B4483F8214058
:103CF0000179CB1701EB13731B11A1EB0313CC1745
:103D000001EB1474241104EB840403EB4403DCB2D0
:103D10004D4B1B68C3EB431505EB83134B4D2B44F5
:103D200083F822404179CB1701EB13731B11A1EBF0
:103D30000313CC1701EB1474241104EB840403EB7C
:103D40004403DCB2404B1B68C3EB431505EB831304
:103D50003E4D2B4483F823408179CB1701EB13733D
:103D60001B11A1EB0313CC1701EB1474241104EB0A
:103D7000840403EB4403DCB2334B1B68C3EB4315F1
:103D800005EB8313314D2B4483F824408178CB1706
:103D900001EB13731B11A1EB0313CC1701EB14748C
:103DA000241104EB840403EB4403DCB2264B1B68B0
:103DB000C3EB431505EB8313244D2B4483F82040BC
:103DC00030BD2DE9F05F04460D466678A77894F87B
:103DD00007802079E17840EA0129A079617940EAF9
:103DE000012A207A0106607A41EA0041A07A41EA7C
:103DF0000020E17A40EA010B0D2E4CD008DC012EA8
:103E00000DD0032E0CD00B2E49D00C2E70D13EE0DD
:103E10000F2E4BD0B12E53D0F72EF7D14CE000BF70
:103E2000184B5B79DFF85CC09CF804C043EA0C22B5
:103E3000144BDB78DFF84CC09CF802C043EA0C213D
:103E4000104B587820E00000200100204A0200209A
:103E50003C010020295C8FC2F528F03F6666F23FE6
:103E6000440100200000F83F400100200000D03F46
:103E70000000F43F66270020280100207A27002058
:103E80008427002034020020FEF78CFD60E0012032
:103E9000FFF7E1FE5CE00020FFF7DDFE58E0A81F21
:103EA00082B256490120FFF7D5FE51E000221146AB
:103EB0001046FFF7CFFE4BE05048FFF7CDFE47E03E
:103EC000012F03D14846FEF709FD3FE0A8F110009D
:103ED0000C2839D2DFE800F0060D141A20383833E8
:103EE0003838262D627A51464846FFF776FB2CE09B
:103EF0002DE004F1080251464846FFF73FFD24E05B
:103F00005A4651464846FFF790FE1EE05A46514633
:103F10004846FFF78BFE18E05A4651464846FFF7E1
:103F200086FE12E0637A227A51464846FFF780FE09
:103F30000BE0227A51464846FFF78AFE05E05146DB
:103F40004846FFF786FE00E000BF00BF00E000BF6C
:103F500000BFBDE8F09F3EB5002400BF05E0002093
:103F60002649891E0855601C84B2142CF7DB0020FA
:103F70002249891E8882FEF785F92148FCF75CFCFE
:103F8000062269461F4800F047F91F4900988842F9
:103F90001ED11E49019848600298886008468068D2
:103FA000496888420DD919488068C0EB401101EB7F
:103FB0008010C0F34F02164912480C3000F02CF963
:103FC00006E041F28E2212490E480C3000F024F92E
:103FD0000E4880680F4908603EBD10B500241421CA
:103FE0000648801EFEF78FF90446002C04DD2146AA
:103FF0000248801EFFF7E5FE10BD000036020020DB
:10400000A7290008D8DA01087856341214010020D4
:104010004A0200202001002010B56FF0040000F0DB
:104020009EFA2E4800682E49B0FBF1F02D49087029
:104030000846007800EB4001C1EBC0104FF6FF715D
:1040400001EAC0002849088010BD0146254A1278BF
:104050004A434FF0E0235A6100229A611A461269DE
:1040600042F001021A6100BF4FF0E022106900F037
:1040700001021AB100F48032002AF5D04FF0E0229C
:10408000126922F001024FF0E0231A6100229A61C6
:1040900070470146144A12884A434FF0E0235A61A0
:1040A00000229A611A46126942F001021A6100BFA9
:1040B0004FF0E022106900F001021AB100F48032E2
:1040C000002AF5D04FF0E022126922F001024FF0F1
:1040D000E0231A6100229A6170470000000000206E
:1040E00000127A00600100206201002010B588B043
:1040F000044642F21070ADF818000A20ADF8140022
:104100000020ADF81A00ADF8160005A9206801F0EE
:104110009DF87020ADF804000120ADF806000020E5
:10412000ADF80C002079012806D002280DD0032814
:1041300014D0042824D11AE001A9206801F0C3F8A2
:104140000821206801F00EFD1BE001A9206801F0A4
:10415000FCF80821206801F00EFD12E001A920689A
:1041600001F040F90821206801F012FD09E001A9E1
:10417000206801F082F90821206801F012FD00E0BA
:1041800000BF00BF0021206801F0BCFB08B010BDDB
:1041900010B504460121206801F0B4FB10BD10B534
:1041A00004460021206801F0ADFB10BD42F2107200
:1041B000914200DD70470279012A06D0022A07D019
:1041C000032A08D0042A0DD108E0026891860AE08B
:1041D0000268118707E00268918704E00268A2F88C
:1041E000401000E000BF00BF00BFE3E701460888C1
:1041F00070472DE9F04105460E461746002407E0BA
:1042000036F81410284602F050F8AD1C601C84B239
:10421000BC42F5DBBDE8F0812DE9F04107460D46D3
:104220001646002407E03846FFF7E0FF25F81400A3
:10423000BF1C601C84B2B442F5DBBDE8F0812DE9FF
:10424000F05F80468A461746B8F1006F02D33348C4
:10425000804501D3BDE8F09F01F0DFFEA8F1006BBF
:104260004FEA9B25CBF34809C9F50074A74200DC4F
:104270003C464DE04FF0006101EB85208A1428494F
:10428000FFF7CAFF00260BE009EB0600244931F8CE
:1042900010004FF6FF71884200D003E0701C86B218
:1042A000A642F1DB00BFA6421BDA4FF0006101EB32
:1042B000852001F0F7FE002608E03AF8160006EB2C
:1042C0000901174A22F81100701C86B2A642F4DBDD
:1042D0004FF0006101EB85208A141149FFF789FF37
:1042E00004E0224651464046FFF783FFA74200D133
:1042F0000FE06D1C4FF000090AEB440AA044381B84
:1043000087B2B7F5007F02DD4FF4007400E03C4651
:10431000B0E700BF01F08DFE00BF9BE70000020880
:10432000942700203EB504466178207800F0ACFA6E
:104330006068019000208DF80800607A8DF809000F
:1043400001208DF80A0001A801F0C8FD207A8DF83F
:10435000000002208DF801008DF8020001208DF888
:104360000300684600F0B1F83EBD38B50446207839
:104370008DF802006088ADF80000207A8DF8030007
:104380006946606800F06AF9207A10280AD1607ADC
:1043900020B16188606800F00EFA03E0618860680F
:1043A00000F00BFA38BD10B586B00446206800F066
:1043B000A3FA606801900020ADF808002089ADF8EC
:1043C0000A006089ADF80C000020ADF810000C2048
:1043D000ADF80E0001A9206800F0D1FA0121206893
:1043E00000F059FB012240F22551206800F05FFBEC
:1043F000207B8DF8140002208DF815008DF8160032
:1044000001208DF8170005A800F05FF806B010BD78
:104410001FB50446E088ADF8080040F2CF20ADF8A3
:1044200004000020ADF80A00ADF8060001A92068DC
:1044300000F00CFF01224121206801F07EFA207972
:104440008DF8000002208DF801008DF80200012097
:104450008DF80300684600F038F80021206801F06C
:1044600051FA1FBD10B504460121206801F04AFA37
:1044700010BD10B504460021206801F043FA10BDBC
:1044800010B504460021206801F0D0FC10BD10B525
:104490000446206801F0EDFC10BD0000064880478E
:1044A00006480047FEE7FEE7FEE7FEE7FEE7FEE719
:1044B000FEE7FEE7FEE7FEE73F02000831010008E5
:1044C00031490143314A1160704770B50021002322
:1044D0000F22C47804B32D4C246804F4E064C4F5BE
:1044E000E064210AC1F10403CA40447804FA03F1EC
:1044F0008478144021430901254C0678A15504789D
:1045000004F01F050124AC4005786D11AD0005F1E4
:10451000E025C5F8004109E0047804F01F050124F6
:10452000AC401C4D0678761145F8264070BD1A4AFD
:104530000A400243154B1B1F1A60704739B1134ADA
:10454000121D12680243114B1B1D1A6006E00F4A30
:10455000121D126882430D4B1B1D1A607047042800
:1045600008D14FF0E021096941F004014FF0E02249
:10457000116107E04FF0E021096921F004014FF0DB
:10458000E0221161704700000000FA050CED00E028
:1045900000E400E080E100E080FFFF1F10B504466A
:1045A000CC48844208D10121042000F031FD0021D3
:1045B000042000F02DFD46E0C748844208D10121C7
:1045C000082000F025FD0021082000F021FD3AE040
:1045D000C248844208D10121102000F019FD0021B9
:1045E000102000F015FD2EE0BD48844208D10121C5
:1045F000202000F00DFD0021202000F009FD22E028
:10460000B848844208D10121402000F001FD00217A
:10461000402000F0FDFC16E0B348844208D101219F
:10462000802000F0F5FC0021802000F0F1FC0AE081
:10463000AE48844207D10121801500F0E9FC002139
:10464000A01500F0E5FC10BD10B50121084600F0F2
:10465000DFFC0021012000F0DBFC10BD2DE9F04162
:10466000024600250026002000230024002791F8A0
:1046700003C00CF00F0591F803C00CF0100CBCF156
:10468000000F03D091F802C04CEA050591F800C074
:10469000BCF1000F31D0146800202BE04FF0010C6A
:1046A0000CFA00F3B1F800C00CEA03069E4220D1D8
:1046B00083004FF00F0C0CFA03F7BC4305FA03FC20
:1046C0004CEA040491F803C0BCF1280F06D14FF066
:1046D000010C0CFA00FCC2F814C00AE091F803C007
:1046E000BCF1480F05D14FF0010C0CFA00FCC2F8E8
:1046F00010C0401C0828D1D31460B1F800C0BCF130
:10470000FF0F34DD546800202EE000F1080C4FF05C
:10471000010808FA0CF3B1F800C00CEA03069E4247
:1047200021D183004FF00F0C0CFA03F7BC4305FABC
:1047300003FC4CEA040491F803C0BCF1280F05D136
:1047400000F1080C08FA0CF8C2F8148091F803C0C4
:10475000BCF1480F07D100F1080C4FF0010808FA2E
:104760000CF8C2F81080401C0828CED35460BDE875
:10477000F0814FF6FF710180022181700421C17028
:1047800070470246002093680B400BB1012000E007
:10479000002070470146886880B2704702460020BA
:1047A000D3680B400BB1012000E0002070470146A8
:1047B000C86880B2704701617047416170470AB1B3
:1047C000016100E041617047C16070474FF4803281
:1047D0000A4382618161826182698269704702460F
:1047E0000020434B18684FF68073184040EA0210CF
:1047F00008433F4B186070473E49C8617047F0B5A9
:104800000A46002300240021002500F00046B6F1EE
:10481000004F02D1364EF16901E0354E7168C0F3A8
:10482000034583B200F44016B6F5401F08D121F0CD
:1048300070612F4E766826F070662D4F7E6012E014
:1048400000F48016B6F5801F06D1032606FA05F49B
:10485000A14341F0706106E0460D360103FA06F609
:10486000B14341F0706122B1460D360103FA06F6FC
:10487000314300F00046B6F1004F02D11C4EF16109
:1048800001E01B4E7160F0BD30B500228B071C0F9C
:104890000F2303FA04F2164B08338C1053F824301C
:1048A0009343134C08348D1044F8253023468C1064
:1048B00053F824308C07240F00FA04F423430C4CE3
:1048C00008348D1044F8253030BD0A49DC310860C9
:1048D0007047000000080140000C0140001001403A
:1048E0000014014000180140001C0140002001405C
:1048F000000001400000204210B50446FB488442FD
:1049000009D10121880300F083FB00214FF480408E
:1049100000F07EFB32E0F648844209D101214804D0
:1049200000F083FB00214FF4003000F07EFB25E017
:10493000F048844209D10121880400F076FB00216F
:104940004FF4802000F071FB18E0EB48844209D15D
:104950000121C80400F069FB00214FF4002000F0A1
:1049600064FB0BE0E548844208D10121080500F012
:104970005CFB00214FF4801000F057FB10BD2DE9C7
:10498000F04786B005460E460024A24600BFA14669
:104990000027B08900B100BF2F462C8A4CF6FF706B
:1049A0000440F08804432C82AC894EF6F310044096
:1049B000B08831890843718908430443AC81AC8ACB
:1049C0004FF6FF400440B0890443AC8201A800F0D8
:1049D00098FAC648874202D1DDF810A001E0DDF860
:1049E0000CA0A88900F4004040B10AEBCA0000EB1B
:1049F0000A1031684900B0FBF1F807E00AEBCA0081
:104A000000EB0A1031688900B0FBF1F86420B8FBB4
:104A1000F0F004012009642101FB1089A88900F449
:104A2000004040B1322000EBC900B0FBF1F000F0D3
:104A30000700044308E0322000EB09106421B0FBBA
:104A4000F1F000F00F0004432C8106B0BDE8F087C0
:104A50004FF41651016000218180C18001810C2139
:104A6000418100218181704710B502460020108AE3
:104A70004FF2FF0318400B884C8823438C88234354
:104A8000CC8823431843108210BD0021018041804F
:104A90008180C180704721B1828942F400528281B5
:104AA00004E082894DF6FF731A4082817047F0B5A9
:104AB0000346002400260025002040F66A17B9426C
:104AC00000D100BF1846C1F3421401F01F060127B0
:104AD00007FA06F5012C01D10C3004E0022C01D1BB
:104AE000103000E014301AB107682F43076002E06D
:104AF0000768AF430760F0BD1AB1838A0B43838216
:104B000002E0838A8B4383827047028A4FF6F073F8
:104B10001A400282028A0A430282704782894FF257
:104B2000FF731A40828182890A438281704721B1D2
:104B3000828942F00202828104E082894FF6FD738D
:104B40001A4082817047028A4FF6DF731A40028250
:104B5000028A0A430282704721B1028A42F48042EB
:104B6000028204E0028A4BF6FF731A400282704709
:104B7000C1F308028280704701468888C0F30800AC
:104B80007047818941F0010181817047028BD2B267
:104B90000283028B42EA012202837047028B02F4F5
:104BA0007F420283028B0A430283704721B1828ACB
:104BB00042F02002828204E0828A4FF6DF731A40BC
:104BC0008282704721B1828A42F01002828204E020
:104BD000828A4FF6EF731A408282704721B1828A2F
:104BE00042F00802828204E0828A4FF6F7731A408C
:104BF0008282704721B1828942F40042828103E0BF
:104C00008289C2F30E028281704721B1828A42F406
:104C10000062828204E0828A4FF2FF731A4082822D
:104C20007047828A4FF6FB731A408282828A0A4357
:104C30008282704721B1828A42F00202828204E0BD
:104C4000828A4FF6FD731A40828270470246002026
:104C5000B1F5007F00D100BF13880B400BB10120DC
:104C600000E00020704701F40072B2F5007F00D12F
:104C700000BFCA430280704770B50246002400237B
:104C80000025002040F66A16B14200D100BFC1F3F2
:104C9000421501F01F03012606FA03F3012D02D18C
:104CA0009689334006E0022D02D1168A334001E096
:104CB000968A33400C12012606FA04F41688344012
:104CC00013B10CB1012000E0002070BD10B500222E
:104CD000002340F66A14A14200D100BF0A12012449
:104CE0009440A3B2DC43048010BD000000380140B2
:104CF0000044004000480040004C0040005000408C
:104D0000DF48006840F00100DD490860084640685F
:104D1000DC490840DA49486008460068DA4908403A
:104D2000D74908600846006820F4802008600846DB
:104D3000406820F4FE0048604FF41F008860704710
:104D4000CF49096821F48031CD4A116011460968C4
:104D500021F480211160B0F5803F03D0B0F5802FA1
:104D60000ED106E0C649096841F48031C44A116099
:104D700007E0C349096841F4A021C14A116000E07D
:104D800000BF00BF704710B501460022002300207D
:104D90004A11012A02D1BA4C236806E0022A02D144
:104DA000B74C236A01E0B64C636A01F01F0201248C
:104DB00094401C400CB1012000E0002010BD38B52B
:104DC000002000900024002500BF3120FFF7DBFF0A
:104DD00005460098401C00900098B0F5A06F01D0E7
:104DE000002DF2D03120FFF7CEFF08B1012400E002
:104DF0000024204638BD01460020A14A106820F05A
:104E0000F80040EAC10010607047A0490860704790
:104E1000024600209A4B586820F47C1042EA0103B5
:104E20001843974B58607047984908667047014689
:104E30000020934A506820F00300084350607047F8
:104E40008F48406800F00C007047014600208C4AF3
:104E5000506820F0F0000843506070470146002081
:104E6000874A506820F4E06008435060704701466C
:104E70000020834A506820F4605040EAC10050602E
:104E8000704729B17E4A527A02437D4B5A7204E040
:104E90007B4A527A82437A4B5A7270477B49D831A7
:104EA0000860704701460020754A506820F4404071
:104EB0000843506070470021714A20321170704AD7
:104EC00082F82010012802D004280AD104E0012130
:104ED0006B4A2032117005E00521694A20321170B9
:104EE00000E000BF00BF704769490860704764492F
:104EF000096A0143624A1162704765494439086092
:104F0000704730B500210022002400235C4D6D68FD
:104F100005F00C0121B1042905D0082923D105E0B1
:104F20005C4D056022E05B4D05601FE0544D6D68EF
:104F300005F47012524D6D6805F48034022505EBBE
:104F400092421CB9544D554305600BE04C4D6D68C1
:104F500005F400351DB1504D5543056002E04D4D3F
:104F60005543056002E04B4D056000BF00BF444D56
:104F70006D6805F0F0010909484D6B5C0568DD407E
:104F800045603F4D6D6805F4E061090A434D6B5C77
:104F90004568DD4085603A4D6D6805F46051C90A89
:104FA0003E4D6B5C4568DD40C560354D6D6805F470
:104FB0004041890B3A4D6B5CC568B5FBF3F5056163
:104FC00030BD29B12E4A526902432D4B5A6104E08B
:104FD0002B4A526982432A4B5A61704729B1284AA9
:104FE00092690243264B9A6104E0254A9269824302
:104FF000234B9A61704729B1214AD2690243204B61
:10500000DA6104E01E4AD26982431D4BDA617047BF
:1050100029B11B4AD2680243194BDA6004E0184AEE
:10502000D2688243164BDA60704729B1144A12697C
:105030000243134B1A6104E0114A12698243104B78
:105040001A61704712494039086070470F49C864B7
:1050500070470B49C87170470948406A40F080703A
:1050600007494862704701460020054A92680A4095
:105070000AB1012000E000207047014988727047A2
:10508000001002400000FFF8FFFFF6FE0000424261
:105090008004424200127A0000093D0064010020B1
:1050A0007401002010B50446FE48844208D1012155
:1050B000C014FFF7ADFF0021E014FFF7A9FFC4E023
:1050C000B4F1804F08D101210846FFF7AEFF00215F
:1050D0000120FFF7AAFFB8E0F348844208D101217C
:1050E0000220FFF7A2FF00210220FFF79EFFACE0A5
:1050F000EE48844208D101210420FFF796FF0021E9
:105100000420FFF792FFA0E0E948844208D1012182
:105110000820FFF78AFF00210820FFF786FF94E0B0
:10512000E448844208D101211020FFF77EFF0021CE
:105130001020FFF77AFF88E0DF48844208D1012180
:105140002020FFF772FF00212020FFF76EFF7CE098
:10515000DA48844208D101214014FFF759FF0021A9
:105160006014FFF755FF70E0D548844209D1012152
:10517000C804FFF74DFF00214FF40020FFF748FF60
:1051800063E0D048844209D101210805FFF740FFC0
:1051900000214FF48010FFF73BFF56E0CA488442DD
:1051A00009D101214805FFF733FF00214FF400101A
:1051B000FFF72EFF49E0C548844208D10121402075
:1051C000FFF733FF00214020FFF72FFF3DE0C048ED
:1051D000844208D101218020FFF727FF0021802091
:1051E000FFF723FF31E0BB48844208D1012180153D
:1051F000FFF71BFF0021A015FFF717FF25E0B648BA
:10520000844209D101210804FFF702FF00214FF475
:105210008030FFF7FDFE18E0B048844209D101213B
:105220004804FFF7F5FE00214FF40030FFF7F0FED1
:105230000BE0AB48844208D101218804FFF7E8FE67
:1052400000214FF48020FFF7E3FE10BD002202880A
:10525000944B98420ED0994B98420BD0B0F1804FAE
:1052600008D0914B984205D0904B984202D0904B79
:10527000984204D14FF68F731A404B881A438D4BD6
:10528000984207D08C4B984204D04FF6FF431A4007
:10529000CB881A4302808B8883850B880385814BDA
:1052A00098420BD0854B984208D08B4B984205D042
:1052B0008A4B984202D08A4B984201D10B7A0386DE
:1052C00001238382704770B5002400220023058CDF
:1052D0004FF6FE7635400584028C8388048B4FF6AA
:1052E0008F752C40B51E2C400D882C43751E2A400E
:1052F0000D892A434D882A436A4DA8420BD06F4D31
:10530000A84208D0744DA84205D0744DA84202D0DE
:10531000734DA84213D14FF6F7752A404D892A43A1
:105320004FF6FB752A408D882A434FF6FF652B40C8
:105330004FF6FF552B408D892B43CD892B4383801E
:105340000483CD888586028470BD70B50024002258
:105350000023058C4FF6EF7635400584028C838858
:10536000048B48F6FF752C404FF6FF452C400D8806
:105370004FF6FF7606EA05252C434FF6DF752A40E7
:105380000D8906EA05152A434D8806EA05152A43C4
:10539000444DA84202D0494DA8421DD14FF67F7519
:1053A0002A404D894FF6FF7606EA05152A434FF647
:1053B000BF752A408D8806EA05152A434FF6FF354A
:1053C0002B404FF2FF752B408D8906EA85052B4354
:1053D000CD8906EA85052B4383800483CD88058724
:1053E000028470BD70B5002400220023058C4FF6A6
:1053F000FF6635400584028C8388848B4FF68F7559
:105400002C404FF6FC752C400D882C434FF6FF5571
:105410002A400D894FF6FF7606EA05252A434D8876
:1054200006EA05252A431F4DA84202D0234DA84273
:105430001DD14FF2FF752A404D894FF6FF7606EADF
:1054400005252A434FF6FF352A408D8806EA0525B3
:105450002A434EF6FF752B404DF6FF752B408D8984
:1054600006EA05152B43CD8906EA05152B438380F3
:105470008483CD888587028470BD70B500220023A7
:105480000024058C4EF6FF7635400584038C848815
:10549000828B48F6FF752A404FF6FF452A400D885B
:1054A00020E00000002C0140000400400008004003
:1054B000000C004000100040001400400034014087
:1054C000004C0140005001400054014000180040D1
:1054D000001C00400020004000400140004401400A
:1054E000004801404FF6FF7606EA05252A434DF6AF
:1054F000FF752B400D8906EA05352B434D8806EADA
:1055000005352B43FA4DA84202D0FA4DA84208D1E6
:105510004BF6FF752C408D894FF6FF7606EA851510
:105520002C4384808283CD88A0F84050038470BDD2
:10553000828B4FF2FF331A408283828B4FF6FF73C8
:1055400003EA01231A4382837047F0B50C461546DF
:10555000002200210026078C4EF6FF7C07EA0C078C
:105560000784828B018C4FF6FF7707EA043640F6FA
:10557000FF473A404FF6FF7707EA05273A434FF6D1
:10558000FF7707EA03373A43D94FB8420ED0D94FD5
:10559000B8420BD0B0F1804F08D0D74FB84205D0F9
:1055A000D64FB84202D0D64FB84206D14DF6FF775B
:1055B000394046F48057394305E047F6FF573940F4
:1055C00044F48057394382830184F0BD828B4FF6C7
:1055D000F3731A408283828B0A4382837047F0B54B
:1055E0000C461546002200210026078C4FF6FF6C62
:1055F00007EA0C070784828B018C4FF6FF7707EAD6
:1056000004264FF60C773A404FF6FF7707EA031768
:105610002F433A43B64FB8420ED0B64FB8420BD0E4
:10562000B0F1804F08D0B44FB84205D0B34FB84264
:1056300002D0B34FB84206D14FF6FF57394046F477
:105640008077394305E04FF2FF57394044F48077C3
:10565000394382830184F0BD028B4FF2FF331A403D
:105660000283028B4FF6FF7303EA01231A4302837E
:105670007047F0B50C461546002200210026078C25
:105680004FF6EF7C07EA0C070784028B018C4FF67C
:10569000FF7707EA041640F6FF473A404FF6FF77D8
:1056A00007EA03373A434FF6FF7707EA05273A43FD
:1056B0008F4FB8420ED08F4FB8420BD0B0F1804F11
:1056C00008D08D4FB84205D08C4FB84202D08C4FD5
:1056D000B84206D14FF6DF77394046F0100739431C
:1056E00005E04FF65F77394044F0100739430283F5
:1056F0000184F0BD028B4FF6F3731A400283028BD4
:105700000A4302837047F0B50C461546002200217B
:10571000068C4FF6FE773E400684028B018C4FF6D6
:105720000C7632407E1C06EA03162E433243704E3E
:10573000B0420ED06F4EB0420BD0B0F1804F08D0C7
:105740006D4EB04205D06D4EB04202D06C4EB042AC
:1057500006D14FF6FD76314044F00106314305E0B5
:105760004FF6F576314044F001063143028301845F
:10577000F0BD70B505460C465D4885420ED05D48CB
:1057800085420BD0B5F1804F08D05B48854205D0EB
:105790005A48854202D05A48854200D100E000BFF5
:1057A000208850B92389A28861882846FFF7ABFF7B
:1057B000E1882846FFF79EFF25E0208804280AD1CB
:1057C0002389A28861882846FFF753FFE18828468D
:1057D000FFF742FF17E0208808280AD12389A28812
:1057E00061882846FFF7FBFEE1882846FFF7EEFEBA
:1057F00009E02389A28861882846FFF7A6FEE18890
:105800002846FFF795FE70BD2DE9F04105460C4690
:1058100000260127608808B9022600E00026A0883B
:10582000012801D1022700E001272088A0B923899F
:10583000A28861882846FFF766FFE1882846FFF7BF
:1058400059FF23893A4631462846FFF712FFE1887F
:105850002846FFF701FF13E02389A28861882846C4
:10586000FFF707FFE1882846FFF7F6FE23893A464F
:1058700031462846FFF747FFE1882846FFF73AFF01
:10588000BDE8F0810A884B881A438B881A43CB887D
:105890001A430B891A434B891A438B891A43A0F880
:1058A000442070474FF6FF71818000210180C18044
:1058B0004180017270470021018041808180C18058
:1058C000018141818181C181704700210180418036
:1058D000012181800021C180018170470021018068
:1058E00041808180C18001814181818170470000B8
:1058F000002C01400034014000040040000800403A
:10590000000C004021B1028842F00102028004E054
:1059100002884FF6FE731A400280704731B1B0F82A
:10592000442042F40042A0F8442005E0B0F84420AE
:10593000C2F30E02A0F8442070471AB183890B43CA
:10594000838102E083898B43838170478182704722
:1059500041EA0203A0F8483070471AB183890B432B
:10596000838102E083898B438381704701894FF6ED
:10597000F8721140018170470A46002101894FF6F3
:105980008F73194011430181704730B504460D46AD
:1059900029462046FFF7F0FF208940F007002081CC
:1059A00030BD2DE9F04104460D4616461F46602DD8
:1059B00006D13B46012231462046FFF75AFE05E05C
:1059C0003B46012231462046FFF79DFE29462046F0
:1059D000FFF7D2FF208940F007002081BDE8F08169
:1059E00030B50C4600210189C9B24FF6FF7505EAB2
:1059F0000325154325432943018130BD2DE9F0419D
:105A000005460E4617469846002443463A46314618
:105A10002846FFF7E5FF2C894FF6F870044044F064
:105A200007044FF68F70044044F070042C81BDE8E9
:105A3000F081F0B504460D4616461F463B463246F9
:105A400029462046FFF7CCFF208940F48040208182
:105A5000F0BD0185828270470A46002101884FF619
:105A60008F731940114301807047F0B50C461546FD
:105A70001E460021002200230189028B038C4FF671
:105A8000F877394021434FF6FC473A4040F201177E
:105A90003A434FF6DD773B404FF6FF7707EA0617AC
:105AA0002F433B43018102830384F0BD0A4600215A
:105AB000018B4FF68F7319401143018370470A46DB
:105AC0000021018B48F6FF7319404FF6FF7303EA7C
:105AD00002231943018370470A460021818B4FF648
