:020000040800F2
:10000000A0270020F53D0008450100084701000831
:100010004B0100084F0100085301000800000000D8
:100020000000000000000000000000005701000870
:1000300059010008000000005B0100085D01000894
:100040000F3E00080F3E00080F3E00080F3E00085C
:100050000F3E00080F3E00080F3E00080F3E00084C
:10006000090600080F3E0008F10500080F3E0008D1
:100070000F3E00080F3E00080F3E00080F3E00082C
:100080000F3E00080F3E00080F3E00080F3E00081C
:100090000F3E00080F3E00080F3E0008D105000883
:1000A0000F3E00080F3E00080F3E00080F3E0008FC
:1000B000C90700086D0600080F3E00080F3E000843
:1000C0000F3E00080F3E00080F3E00080F3E0008DC
:1000D0000F3E0008AB0700080F3E00080F3E000867
:1000E0000F3E00080F3E00080F3E00080F3E0008BC
:1000F0000F3E00080F3E00080F3E00080F3E0008AC
:100100000F3E00080F3E00080F3E00080F3E00089B
:100110000F3E00080F3E00080F3E00080F3E00088B
:100120000F3E00080F3E00080F3E00080F3E00087B
:10013000DFF80CD006F07EFA0048004741030008C3
:10014000A0270020704700BFFEE700BFFEE700BF0A
:10015000FEE700BFFEE7704770477047704700003A
:100160000CB50020019000906C48006840F480308D
:100170006A49086000BF6948006800F400300090D8
:100180000198401C0190009818B90198B0F5A06F33
:10019000F1D16248006800F4003010B101200090F5
:1001A00001E0002000900098012843D15C480068DD
:1001B00040F010005A4908600846006820F003002B
:1001C00008600846006840F0020008605348406834
:1001D000524948600846406848600846406840F414
:1001E000806048600846406820F47C1048600846FB
:1001F000406840F4E81048600846006840F08070AD
:10020000086000BF4548006800F000700028F9D081
:100210004248406820F00300404948600846406872
:1002200040F00200486000BF3C48406800F00C000D
:100230000828F9D10CBD10B5FFF792FF10BD10B51D
:100240003648006840F001003449086008464068BC
:10025000344908403149486008460068324908403E
:100260002E4908600846006820F48020086008468F
:10027000406820F4FE0048604FF41F008860FFF7DC
:10028000DAFF4FF000602949086010BD10B5002169
:1002900000200022214B5B6803F00C0121B10429EE
:1002A00006D0082928D107E0214B224C236027E003
:1002B0001F4B204C236023E0184B5B6803F4701045
:1002C000164B5B6803F48032022303EB904022B9A3
:1002D000194B4343174C23600DE0104B5B6803F44C
:1002E000003323B1144B4343124C236003E0104B03
:1002F0004343104C236003E00D4B0E4C236000BFC2
:1003000000BF064B5B68C3F303130C4CE15C094B65
:100310001B68CB40074C236010BD0000001002405A
:10032000002002400000FFF8FFFFF6FE08ED00E0AD
:1003300000127A000000002000093D0004000020A7
:1003400003F018FB4FF4A06003F066FD03F0A6FA7B
:1003500000F023F800F0C8F901E003F0F1FAFCE73F
:1003600010B50121084604F0E5FA0121082004F047
:10037000E1FA0121102004F0DDFA0121042004F04B
:10038000E6FA0121022004F0E2FA10BD10B504469D
:100390002146BF4803F0B8FB10BD10B5FFF7E0FFE2
:1003A0002422BC49BA48303805F0A2FD1422BA49CB
:1003B000B7480C3805F09CFDB5483038B74B0ECB2C
:1003C00038300EC0A0F14401B54B0DCB44310DC106
:1003D000A1F15000B34B93E81600DB68C0E9164367
:1003E000C0E914124FF47A70A9493039A1F86200BB
:1003F000084603F068FCA648243803F041FCA448F2
:10040000183803F0B3FCA2480C3803F05CFCA04899
:1004100003F01AFB9E48083003F055FC9C4814304A
:1004200003F051FCA04803F04EFC9F480C3003F051
:1004300027FC9E4803F047FC9C480C3003F020FC4E
:100440004FF47A70FFF7A2FF10BD10B5904A303A12
:10045000B2F84610906C03F05AFE8D4803F046FB4C
:100460008B48183803F0ABFC10BD10B5884A303A01
:10047000B2F84610906C03F04CFE854803F03DFB4B
:100480008348183803F0A2FC10BD10B5044642F2B0
:100490001070001B81B27E4803F036FB10BD10B512
:1004A0007B4A303A518FD06B03F033FE10BD10B54C
:1004B000774A303A518FD06B03F029FE10BD10B54A
:1004C000734A303A518FD06B03F023FE00217048FD
:1004D00003F01AFB10BD10B57548008801280BD138
:1004E0000020734908807348008805F03FFE0446E9
:1004F000714905F056FD10BD0020FCE710B56F48AE
:10050000008801280BD100206C4908806C480088C5
:1005100005F02CFE0446684905F043FD10BD00209F
:10052000FCE770B504466449204605F008FD054621
:1005300005F021FE56493039A1F8620070BD10B5B2
:1005400053483038B0F8620051493039B1F8601082
:10055000401A01B24E483038A0F85810B0F8501088
:10056000B0F85800084400B249493039A1F85000A9
:100570000846B0F95200B1F958104843444930399F
:10058000B1F95410424A303AB2F9502001FB02014D
:100590003F483038B0F95820B0F95A00121A3C4898
:1005A0003038B0F9560000FB021139483038C165C7
:1005B000B0F85810A0F85A10C06D4FF47A7190FB43
:1005C000F1F000F57A7084B22046FFF7DFFE10BD2F
:1005D00010B54FF4007005F093F940B10120374990
:1005E0000880FFF76CFF4FF4007005F09AF910BD1A
:1005F00010B5102005F084F928B101202C4908809D
:10060000102005F08EF910BD10B5042005F078F922
:1006100058B31F48183803F0E7FB1D493039098CDF
:100620004EF6602202FB01042648B0FBF4F01849A4
:100630003039A1F860000846B0F860002049098808
:10064000884205DD12483038B0F860001C49088047
:10065000FFF775FF00200E493039088401F11800BA
:1006600003F0BBFB042005F05CF910BD10B50121BF
:10067000154805F0BCF850B105483038008C401CD6
:1006800003493039088401210F4805F0C1F810BD35
:100690008401002014000020680000207C0000205D
:1006A0008800002094000020380000205000002026
:1006B000A8000020A60000200080BB44AA00002063
:1006C000A4000020008793030004004010B501211E
:1006D000084604F02FF90121042004F02BF9012130
:1006E000480404F034F910BD10B5FFF7EFFF1248CD
:1006F00003F0E9FA10480C3003F0E5FA0E48183020
:1007000003F0FFFA10BD00BF0B498969098801F0A9
:1007100040010029F8D0084989698880704700B5F0
:100720000246002304E0D05CFFF7EDFF581C83B2C3
:10073000D05C0028F7D100BDAC00002010B501212D
:10074000084604F0F7F80121084604F000F90121F9
:10075000042004F0EFF80121880304F0EBF810BD49
:1007600010B50446FFF7EAFFFE4803F0ACFAFD4877
:100770000C3003F0A8FAFB48183003F0C2FAF9482D
:10078000283003F0F3FAF7480463283003F017FB2E
:1007900010BD00BFF3498969098801F040010029B3
:1007A000F8D0F04989698880704710B540F225512A
:1007B000ED4803F00DFF30B1EB4803F089FEC4B201
:1007C000204601F0FCFC10BD10B50121880705F0A2
:1007D0000EF848B1E348006B10B1E249086B80475E
:1007E0000121880705F014F810BD014606E04FF41A
:1007F0007A7200E0521E002AFCDC491E0029F6DC59
:10080000704700B5024603E01078FFF7C2FF521CA4
:1008100010780028F8D100BD10B503460C46002220
:1008200004E0985CFFF7B5FF501C82B2A242F8DBEF
:1008300010BD10B503460C4600220AE033F8121032
:10084000080AFFF7A6FF13F81200FFF7A2FF501CDB
:1008500082B2A242F2DB10BD00B5EE20FFF799FF95
:100860000020FFF796FFFF20FFF793FFFC20FFF724
:1008700090FFFF20FFF78DFFFF20FFF78AFF00BDED
:1008800000B50246EE20FFF784FF4120FFF781FF0D
:10089000100AFFF77EFFD0B2FFF77BFFFF20FFF7C4
:1008A00078FFFC20FFF775FFFF20FFF772FFFF20A6
:1008B000FFF76FFF00BD00B50246EE20FFF769FFAE
:1008C0004220FFF766FF100AFFF763FFD0B2FFF781
:1008D00060FFFF20FFF75DFFFC20FFF75AFFFF20BE
:1008E000FFF757FFFF20FFF754FF00BD10B5044688
:1008F0000B46EE20FFF74DFFA320FFF74AFFE0B2C3
:10090000FFF747FF180AFFF744FFD8B2FFF741FF90
:10091000100AFFF73EFFD0B2FFF73BFFFF20FFF7C3
:1009200038FFFC20FFF735FFFF20FFF732FFFF20E5
:10093000FFF72FFF10BD00B5EE20FFF72AFF0120C3
:10094000FFF727FFFF20FFF724FFFC20FFF721FF21
:10095000FF20FFF71EFFFF20FFF71BFF00BD00B5C4
:1009600002460B46EE20FFF714FF4320FFF711FF6E
:10097000D0B2FFF70EFFD8B2FFF70BFFFF20FFF753
:1009800008FFFC20FFF705FFFF20FFF702FFFF2015
:10099000FFF7FFFE00BD10B504460B46EE20FFF743
:1009A000F8FE4520FFF7F5FEE0B2FFF7F2FE180A69
:1009B000FFF7EFFED8B2FFF7ECFE100AFFF7E9FEF3
:1009C000D0B2FFF7E6FEFF20FFF7E3FEFC20FFF7C3
:1009D000E0FEFF20FFF7DDFEFF20FFF7DAFE10BD8F
:1009E00000B502460B46EE20FFF7D3FE4420FFF78A
:1009F000D0FE100AFFF7CDFED0B2FFF7CAFE180AEC
:100A0000FFF7C7FED8B2FFF7C4FEFF20FFF7C1FE15
:100A1000FC20FFF7BEFEFF20FFF7BBFEFF20FFF725
:100A2000B8FE00BDF0B504460D461646059FEE2003
:100A3000FFF7AFFE2020FFF7ACFE200AFFF7A9FE6C
:100A4000E0B2FFF7A6FE280AFFF7A3FEE8B2FFF721
:100A5000A0FEF0B2FFF79DFED8B2FFF79AFE38462F
:100A6000FFF7CFFEFF20FFF794FEFC20FFF791FE7B
:100A7000FF20FFF78EFEFF20FFF78BFEF0BD70B565
:100A800005460C46049EEE20FFF783FE2120FFF76B
:100A900080FEE8B2FFF77DFE200AFFF77AFEE0B2A3
:100AA000FFF777FE100AFFF774FED0B2FFF771FE72
:100AB000D8B2FFF76EFEF0B2FFF76BFEFF20FFF734
:100AC00068FEFC20FFF765FEFF20FFF762FEFF20B7
:100AD000FFF75FFE70BD00B502460B46EE20FFF744
:100AE00058FE3120FFF755FE100AFFF752FED0B234
:100AF000FFF74FFED8B2FFF74CFEFF20FFF749FE8D
:100B0000FC20FFF746FEFF20FFF743FEFF20FFF724
:100B100040FE00BD30B504460D46EE20FFF739FE1D
:100B20003220FFF736FE200AFFF733FEE0B2FFF770
:100B300030FE280AFFF72DFEE8B2FFF72AFE100A62
:100B4000FFF727FED0B2FFF724FED8B2FFF721FE51
:100B5000FF20FFF71EFEFC20FFF71BFEFF20FFF724
:100B600018FE03E0D400002000380140FF20FFF70A
:100B700010FE30BD2DE9F04304460D4607AE96E861
:100B8000C003EE20FFF705FE3320FFF702FE200A28
:100B9000FFF7FFFDE0B2FFF7FCFD280AFFF7F9FDC4
:100BA000E8B2FFF7F6FD100AFFF7F3FDD0B2FFF74A
:100BB000F0FD180AFFF7EDFDD8B2FFF7EAFD300AA5
:100BC000FFF7E7FDF0B2FFF7E4FD380AFFF7E1FDBC
:100BD000F8B2FFF7DEFD4FEA1820FFF7DAFD08F064
:100BE000FF00FFF7D6FD09F0FF00FFF7D2FDFF2061
:100BF000FFF7CFFDFC20FFF7CCFDFF20FFF7C9FD7D
:100C0000FF20FFF7C6FDBDE8F08370B504460D4632
:100C1000049EEE20FFF7BDFD8020FFF7BAFD200AFD
:100C2000FFF7B7FDE0B2FFF7B4FD280AFFF7B1FD0B
:100C3000E8B2FFF7AEFD100AFFF7ABFDD0B2FFF749
:100C4000A8FDD8B2FFF7A5FDF0B2FFF7A2FDFF2087
:100C5000FFF79FFDFC20FFF79CFDFF20FFF799FDAC
:100C6000FF20FFF796FD70BD00B502460B46EE2053
:100C7000FFF78FFD5020FFF78CFD100AFFF789FD6D
:100C8000D0B2FFF786FD180AFFF783FDD8B2FFF751
:100C900080FDFF20FFF77DFDFC20FFF77AFDFF20A0
:100CA000FFF777FDFF20FFF774FD00BD30B5044668
:100CB0000D46EE20FFF76DFD5120FFF76AFD200A7B
:100CC000FFF767FDE0B2FFF764FD280AFFF761FD5B
:100CD000E8B2FFF75EFD100AFFF75BFDD0B2FFF749
:100CE00058FD180AFFF755FDD8B2FFF752FDFF2057
:100CF000FFF74FFDFC20FFF74CFDFF20FFF749FDFC
:100D0000FF20FFF746FD30BD70B505460E46144680
:100D1000EE20FFF73EFD6320FFF73BFDE8B2FFF753
:100D200038FD4FF6FF7000EA44013046FFF781FDC1
:100D3000FF20FFF72EFDFC20FFF72BFDFF20FFF724
:100D400028FDFF20FFF725FD70BDF0B504460D46D8
:100D500016461F46EE20FFF71CFD5920FFF719FD30
:100D6000200AFFF716FDE0B2FFF713FD280AFFF790
:100D700010FDE8B2FFF70DFD39463046FFF759FD8B
:100D8000FF20FFF706FDFC20FFF703FDFF20FFF724
:100D900000FDFF20FFF7FDFCF0BDF0B504460D4659
:100DA00016461F46EE20FFF7F4FC7520FFF7F1FC16
:100DB000200AFFF7EEFCE0B2FFF7EBFC280AFFF792
:100DC000E8FCE8B2FFF7E5FC39463046FFF731FDB5
:100DD000FF20FFF7DEFCFC20FFF7DBFCFF20FFF726
:100DE000D8FCFF20FFF7D5FCF0BDF0B504460D465A
:100DF00016461F46EE20FFF7CCFC7620FFF7C9FC15
:100E0000200AFFF7C6FCE0B2FFF7C3FC280AFFF791
:100E1000C0FCE8B2FFF7BDFC39463046FFF709FDDC
:100E2000FF20FFF7B6FCFC20FFF7B3FCFF20FFF725
:100E3000B0FCFF20FFF7ADFCF0BD30B504460D4619
:100E4000EE20FFF7A6FC7720FFF7A3FCE0B2FFF748
:100E5000A0FCE8B2FFF79DFCD0B2FFF79AFCD8B235
:100E6000FFF797FCFF20FFF794FCFC20FFF791FCB5
:100E7000FF20FFF78EFCFF20FFF78BFC30BD30B565
:100E800005460C46EE20FFF784FC6820FFF781FC46
:100E90004FF6FF7000EA44012846FFF7CAFCFF2026
:100EA000FFF777FCFC20FFF774FCFF20FFF771FCD5
:100EB000FF20FFF76EFC30BD30B505460C46EE2036
:100EC000FFF767FC6920FFF764FC4FF6FF7000EA4C
:100ED00044012846FFF7ADFCFF20FFF75AFCFC2039
:100EE000FFF757FCFF20FFF754FCFF20FFF751FCF2
:100EF00030BD10B503460C46EE20FFF74AFC5220E9
:100F0000FFF747FC180AFFF744FCD8B2FFF741FC93
:100F1000200AFFF73EFCE0B2FFF73BFC100AFFF7A8
:100F200038FCD0B2FFF735FCFF20FFF732FCFC2085
:100F3000FFF72FFCFF20FFF72CFCFF20FFF729FC19
:100F400010BD10B503460C46EE20FFF722FC5320DF
:100F5000FFF71FFC180AFFF71CFCD8B2FFF719FCBB
:100F6000200AFFF716FCE0B2FFF713FC100AFFF7A8
:100F700010FCD0B2FFF70DFCFF20FFF70AFCFC20AD
:100F8000FFF707FCFF20FFF704FCFF20FFF701FC41
:100F900010BD70B504460D46049EEE20FFF7F9FB28
:100FA0006720FFF7F6FB200AFFF7F3FBE0B2FFF73D
:100FB000F0FB280AFFF7EDFBE8B2FFF7EAFB100AA7
:100FC000FFF7E7FBD0B2FFF7E4FB180AFFF7E1FBFE
:100FD000D8B2FFF7DEFB300AFFF7DBFBF0B2FFF71A
:100FE000D8FBFF20FFF7D5FBFC20FFF7D2FBFF204B
:100FF000FFF7CFFBFF20FFF7CCFB70BD30B50446F9
:101000000D46EE20FFF7C5FB5420FFF7C2FB200A78
:10101000FFF7BFFBE0B2FFF7BCFB280AFFF7B9FB05
:10102000E8B2FFF7B6FB100AFFF7B3FBD0B2FFF749
:10103000B0FB180AFFF7ADFBD8B2FFF7AAFBFF2001
:10104000FFF7A7FBFC20FFF7A4FBFF20FFF7A1FBA6
:10105000FF20FFF79EFB30BD30B504460D46EE2065
:10106000FFF797FB5520FFF794FB200AFFF791FB52
:10107000E0B2FFF78EFB280AFFF78BFBE8B2FFF721
:1010800088FB100AFFF785FBD0B2FFF782FB180A36
:10109000FFF77FFBD8B2FFF77CFBFF20FFF779FB60
:1010A000FC20FFF776FBFF20FFF773FBFF20FFF725
:1010B00070FB30BD30B504460D46EE20FFF769FBEE
:1010C0005620FFF766FB200AFFF763FBE0B2FFF74D
:1010D00060FB280AFFF75DFBE8B2FFF75AFB100A36
:1010E000FFF757FBD0B2FFF754FB180AFFF751FB8D
:1010F000D8B2FFF74EFBFF20FFF74BFBFC20FFF7BA
:1011000048FBFF20FFF745FBFF20FFF742FB30BD08
:1011100030B504460D46EE20FFF73BFB5720FFF7A6
:1011200038FB200AFFF735FBE0B2FFF732FB280A55
:10113000FFF72FFBE8B2FFF72CFB100AFFF729FBA4
:10114000D0B2FFF726FB180AFFF723FBD8B2FFF750
:1011500020FBFF20FFF71DFBFC20FFF71AFBFF2001
:10116000FFF717FBFF20FFF714FB30BD00B5024669
:10117000EE20FFF70EFB6020FFF70BFBD0B2FFF76E
:1011800008FBFF20FFF705FBFC20FFF702FBFF2019
:10119000FFF7FFFAFF20FFF7FCFA00BD00B502469B
:1011A000EE20FFF7F6FA6120FFF7F3FAD0B2FFF76F
:1011B000F0FAFF20FFF7EDFAFC20FFF7EAFAFF2034
:1011C000FFF7E7FAFF20FFF7E4FA00BD30B5044669
:1011D0000D46EE20FFF7DDFA6520FFF7DAFA200A68
:1011E000FFF7D7FAE0B2FFF7D4FA280AFFF7D1FAEF
:1011F000E8B2FFF7CEFA100AFFF7CBFAD0B2FFF74A
:10120000C8FA180AFFF7C5FAD8B2FFF7C2FAFF20EA
:10121000FFF7BFFAFC20FFF7BCFAFF20FFF7B9FA8F
:10122000FF20FFF7B6FA30BD70B505460E461446EE
:1012300000220DB142F001020EB142F0020214B1DF
:1012400042EA8400C2B213B142EA4310C2B2EE20B5
:10125000FFF79FFA7020FFF79CFAD0B2FFF799FAD8
:10126000FF20FFF796FAFC20FFF793FAFF20FFF725
:1012700090FAFF20FFF78DFA70BD00B5EE20FFF762
:1012800088FA7220FFF785FAFF20FFF782FAFC2028
:10129000FFF77FFAFF20FFF77CFAFF20FFF779FACC
:1012A00000BD00B5EE20FFF774FA7320FFF771FA66
:1012B000FF20FFF76EFAFC20FFF76BFAFF20FFF725
:1012C00068FAFF20FFF765FA00BD00B5EE20FFF7D2
:1012D00060FA0920FFF75DFADE20FFF75AFAED20E9
:1012E000FFF757FA1320FFF754FA3120FFF751FAAE
:1012F000FF20FFF74EFAFC20FFF74BFAFF20FFF725
:1013000048FAFF20FFF745FA00BD00B5EE20FFF7D1
:1013100040FA0820FFF73DFAA520FFF73AFA5A20D5
:10132000FFF737FA5F20FFF734FAF520FFF731FABD
:10133000FF20FFF72EFAFC20FFF72BFAFF20FFF724
:1013400028FAFF20FFF725FA00BD00B50246EE207F
:10135000FFF71FFAA020FFF71CFAD0B2FFF719FA27
:10136000FF20FFF716FAFC20FFF713FAFF20FFF724
:1013700010FAFF20FFF70DFA00BD00B50246EE207F
:10138000FFF707FAA120FFF704FAD0B2FFF701FA3E
:10139000FF20FFF7FEF9FC20FFF7FBF9FF20FFF726
:1013A000F8F9FF20FFF7F5F900BD00B50246EE2081
:1013B000FFF7EFF9A220FFF7ECF9D0B2FFF7E9F958
:1013C000FF20FFF7E6F9FC20FFF7E3F9FF20FFF726
:1013D000E0F9FF20FFF7DDF900BD00B502460B463E
:1013E000EE20FFF7D6F9A420FFF7D3F9D0B2FFF72C
:1013F000D0F9D8B2FFF7CDF9FF20FFF7CAF9FC20EA
:10140000FFF7C7F9FF20FFF7C4F9FF20FFF7C1F985
:1014100000BD00B50246EE20FFF7BBF90520FFF73F
:10142000B8F9D0B2FFF7B5F9FF20FFF7B2F9FC2009
:10143000FFF7AFF9FF20FFF7ACF9FF20FFF7A9F99D
:1014400000BDF0B504460D46DDE90567EE20FFF767
:10145000A0F98520FFF79DF9E0B2FFF79AF9E8B20D
:10146000FFF797F9D0B2FFF794F9180AFFF791F94F
:10147000D8B2FFF78EF9300AFFF78BF9F0B2FFF719
:1014800088F9380AFFF785F9F8B2FFF782F9FF20EB
:10149000FFF77FF9FC20FFF77CF9FF20FFF779F9D0
:1014A000FF20FFF776F9F0BD70B504460E461546ED
:1014B000EE20FFF76EF98720FFF76BF9200EFFF79C
:1014C00068F9C4F30740FFF764F9C4F30720FFF796
:1014D00060F9E0B2FFF75DF931462846FFF79CF965
:1014E000FF20FFF756F9FC20FFF753F9FF20FFF725
:1014F00050F9FF20FFF74DF970BD00B502460B46CD
:10150000EE20FFF746F98820FFF743F9100EFFF7AA
:1015100040F9C2F30740FFF73CF9C2F30720FFF799
:1015200038F9D0B2FFF735F9180AFFF732F9D8B217
:10153000FFF72FF9FF20FFF72CF9FC20FFF729F91F
:10154000FF20FFF726F9FF20FFF723F900BD00B5C4
:10155000EE20FFF71EF9B120FFF71BF90120FFF77E
:1015600018F9FF20FFF715F9FC20FFF712F9FF200B
:10157000FFF70FF9FF20FFF70CF900BD00B5024699
:10158000EE20FFF706F9B120FFF703F90020FFF77F
:1015900000F9100AFFF7FDF8D0B2FFF7FAF8FF20C4
:1015A000FFF7F7F8FC20FFF7F4F8FF20FFF7F1F85A
:1015B000FF20FFF7EEF800BD00B50246EE20FFF772
:1015C000E8F8B320FFF7E5F8D0B2FFF7E2F8FF2024
:1015D000FFF7DFF8FC20FFF7DCF8FF20FFF7D9F872
:1015E000FF20FFF7D6F800BD10B503460C46EE20ED
:1015F000FFF7CFF8B120FFF7CCF80220FFF7C9F8CA
:10160000180AFFF7C6F8D8B2FFF7C3F8200AFFF7A9
:10161000C0F8E0B2FFF7BDF8D0B2FFF7BAF8FF208C
:10162000FFF7B7F8FC20FFF7B4F8FF20FFF7B1F899
:10163000FF20FFF7AEF810BD10B503460C46EE20B4
:10164000FFF7A7F8B120FFF7A4F80320FFF7A1F8F0
:10165000180AFFF79EF8D8B2FFF79BF8200AFFF7A9
:1016600098F8E0B2FFF795F8D0B2FFF792F8FF20B4
:10167000FFF78FF8FC20FFF78CF8FF20FFF789F8C1
:10168000FF20FFF786F810BD10B503460C46EE208C
:10169000FFF77FF8B120FFF77CF80420FFF779F817
:1016A000180AFFF776F8D8B2FFF773F8200AFFF7A9
:1016B00070F8E0B2FFF76DF8D0B2FFF76AF8FF20DC
:1016C000FFF767F8FC20FFF764F8FF20FFF761F8E9
:1016D000FF20FFF75EF810BD10B503460C46EE2064
:1016E000FFF757F8B120FFF754F81020FFF751F833
:1016F000180AFFF74EF8D8B2FFF74BF8200AFFF7A9
:1017000048F8E0B2FFF745F8D0B2FFF742F8FF2003
:10171000FFF73FF8FC20FFF73CF8FF20FFF739F810
:10172000FF20FFF736F810BD30B503460C461546CE
:10173000EE20FFF72EF8B120FFF72BF81020FFF76F
:1017400028F8180AFFF725F8D8B2FFF722F8200A80
:10175000FFF71FF8E0B2FFF71CF82846FFF751F833
:10176000FF20FFF716F8FC20FFF713F8FF20FFF724
:1017700010F8FF20FFF70DF830BD10B503460C46FA
:10178000EE20FFF706F8B120FFF703F81020FFF76F
:1017900000F8180AFEF7FDFFD8B2FEF7FAFF200A9C
:1017A000FEF7F7FFE0B2FEF7F4FF100EFEF7F1FFD1
:1017B000C2F30740FEF7EDFFC2F30720FEF7E9FF93
:1017C000D0B2FEF7E6FFFF20FEF7E3FFFC20FEF7B6
:1017D000E0FFFF20FEF7DDFFFF20FEF7DAFF10BD80
:1017E00010B503460C46EE20FEF7D3FFB120FEF7FE
:1017F000D0FF1020FEF7CDFF180AFEF7CAFFD8B2BF
:10180000FEF7C7FF200AFEF7C4FFE0B2FEF7C1FFF4
:10181000100EFEF7BEFFC2F30740FEF7BAFFC2F399
:101820000720FEF7B6FFD0B2FEF7B3FFFF20FEF7AA
:10183000B0FFFC20FEF7ADFFFF20FEF7AAFFFF2060
:10184000FEF7A7FF10BD10B503460C46EE20FEF7CD
:10185000A0FFB120FEF79DFF1020FEF79AFF180AA7
:10186000FEF797FFD8B2FEF794FF200AFEF791FF2C
:10187000E0B2FEF78EFF100EFEF78BFFC2F30740BB
:10188000FEF787FFC2F30720FEF783FFD0B2FEF713
:1018900080FFFF20FEF77DFFFC20FEF77AFFFF2090
:1018A000FEF777FFFF20FEF774FF10BD10B503466B
:1018B0000C46EE20FEF76DFFB120FEF76AFF102008
:1018C000FEF767FF180AFEF764FFD8B2FEF761FF64
:1018D000200AFEF75EFFE0B2FEF75BFFD0B2FEF734
:1018E00058FFFF20FEF755FFFC20FEF752FFFF20B8
:1018F000FEF74FFFFF20FEF74CFF10BD00B502467C
:101900000B46EE20FEF745FFB120FEF742FF112007
:10191000FEF73FFF100AFEF73CFFD0B2FEF739FF9B
:10192000180AFEF736FFD8B2FEF733FFFF20FEF7A6
:1019300030FFFC20FEF72DFFFF20FEF72AFFFF20DF
:10194000FEF727FF00BD00B502460B46EE20FEF76E
:1019500020FFB120FEF71DFF2020FEF71AFF100A1E
:10196000FEF717FFD0B2FEF714FF180AFEF711FFBB
:10197000D8B2FEF70EFFFF20FEF70BFFFC20FEF7AC
:1019800008FFFF20FEF705FFFF20FEF702FF00BD66
:1019900000B502460B46EE20FEF7FBFEB120FEF737
:1019A000F8FE2120FEF7F5FE100AFEF7F2FED0B297
:1019B000FEF7EFFE180AFEF7ECFED8B2FEF7E9FEDE
:1019C000FF20FEF7E6FEFC20FEF7E3FEFF20FEF719
:1019D000E0FEFF20FEF7DDFE00BD00B502460B462F
:1019E000EE20FEF7D6FEB120FEF7D3FE2220FEF752
:1019F000D0FE100AFEF7CDFED0B2FEF7CAFE180ADE
:101A0000FEF7C7FED8B2FEF7C4FEFF20FEF7C1FE08
:101A1000FC20FEF7BEFEFF20FEF7BBFEFF20FEF718
:101A2000B8FE00BD10B503460C46EE20FEF7B1FE31
:101A3000B120FEF7AEFE2320FEF7ABFE180AFEF73C
:101A4000A8FED8B2FEF7A5FE200AFEF7A2FEE0B27D
:101A5000FEF79FFED0B2FEF79CFEFF20FEF799FE38
:101A6000FC20FEF796FEFF20FEF793FEFF20FEF718
:101A700090FE10BD00B502460B46EE20FEF789FE33
:101A8000B120FEF786FE2420FEF783FE100AFEF743
:101A900080FED0B2FEF77DFE180AFEF77AFED8B2BD
:101AA000FEF777FEFF20FEF774FEFC20FEF771FEC6
:101AB000FF20FEF76EFEFF20FEF76BFE00BD00B5B7
:101AC00002460B46EE20FEF764FEB120FEF761FEF3
:101AD0002520FEF75EFE100AFEF75BFED0B2FEF791
:101AE00058FE180AFEF755FED8B2FEF752FEFF2048
:101AF000FEF74FFEFC20FEF74CFEFF20FEF749FEEE
:101B0000FF20FEF746FE00BD30B504460D46EE2030
:101B1000FEF73FFEB120FEF73CFE3020FEF739FE17
:101B2000200AFEF736FEE0B2FEF733FE280AFEF783
:101B300030FEE8B2FEF72DFED0B2FEF72AFE180AFC
:101B4000FEF727FED8B2FEF724FEFF20FEF721FEA7
:101B5000FC20FEF71EFEFF20FEF71BFEFF20FEF717
:101B600018FE30BD10B503460C46EE20FEF711FE00
:101B7000B120FEF70EFE3120FEF70BFE180AFEF72D
:101B800008FED8B2FEF705FE200AFEF702FEE0B21C
:101B9000FEF7FFFDD0B2FEF7FCFDFF20FEF7F9FDDA
:101BA000FC20FEF7F6FDFF20FEF7F3FDFF20FEF719
:101BB000F0FD10BD2DE9F04104460D46174698464C
:101BC000069EEE20FEF7E5FDB120FEF7E2FD322095
:101BD000FEF7DFFD200AFEF7DCFDE0B2FEF7D9FDDF
:101BE000280AFEF7D6FDE8B2FEF7D3FDF8B2FEF7FD
:101BF000D0FD300AFEF7CDFDF0B2FEF7CAFD31464A
:101C00004046FEF709FEFF20FEF7C3FDFC20FEF76D
:101C1000C0FDFF20FEF7BDFDFF20FEF7BAFDBDE8C9
:101C2000F08110B503460C46EE20FEF7B2FDB12060
:101C3000FEF7AFFD3320FEF7ACFD180AFEF7A9FD55
:101C4000D8B2FEF7A6FD200AFEF7A3FDE0B2FEF72C
:101C5000A0FDD0B2FEF79DFDFF20FEF79AFDFC200F
:101C6000FEF797FDFF20FEF794FDFF20FEF791FDA4
:101C700010BDF0B504460D46DDE90567EE20FEF720
:101C800088FDB120FEF785FD3420FEF782FD200A95
:101C9000FEF77FFDE0B2FEF77CFD280AFEF779FD36
:101CA000E8B2FEF776FDC2F30720FEF772FDD0B270
:101CB000FEF76FFD180AFEF76CFDD8B2FEF769FD5E
:101CC000C6F30720FEF765FDF0B2FEF762FD380AA5
:101CD000FEF75FFDF8B2FEF75CFDFF20FEF759FD51
:101CE000FC20FEF756FDFF20FEF753FDFF20FEF718
:101CF00050FDF0BD00B50246EE20FEF74AFDB120D2
:101D0000FEF747FD1220FEF744FD100AFEF741FDE5
:101D1000D0B2FEF73EFD00BD00B502460B46100AEC
:101D2000FEF737FDD0B2FEF734FD0020FEF731FD9F
:101D30000120FEF72EFDD8B2FEF72BFD00BD00B549
:101D400003460A46180AFEF724FDD8B2FEF721FD25
:101D50000020FEF71EFD0420FEF71BFD100EFEF70F
:101D600018FDC2F30740FEF714FDC2F30720FEF78B
:101D700010FDD0B2FEF70DFD00BD00B503460A46CA
:101D8000180AFEF706FDD8B2FEF703FD0020FEF7A5
:101D900000FD0420FEF7FDFC100EFEF7FAFCC2F376
:101DA0000740FEF7F6FCC2F30720FEF7F2FCD0B2C4
:101DB000FEF7EFFC00BD00B503460A46180AFEF721
:101DC000E8FCD8B2FEF7E5FC0020FEF7E2FC0420B8
:101DD000FEF7DFFC100EFEF7DCFCC2F30740FEF757
:101DE000D8FCC2F30720FEF7D4FCD0B2FEF7D1FC3A
:101DF00000BD01460A4600E0491C08780028FBD1D6
:101E0000881A704730B503460C46180AFEF7C1FC25
:101E1000D8B2FEF7BEFC2046FFF7EBFFC0F3072564
:101E20002846FEF7B6FC2046FFF7E3FFC5B228467A
:101E3000FEF7AFFC2046FEF7E4FC30BD00B50246DD
:101E40000B46100AFEF7A5FCD0B2FEF7A2FC00205C
:101E5000FEF79FFC0220FEF79CFC180AFEF799FC97
:101E6000D8B2FEF796FC00BD00B5FF20FEF791FC4E
:101E7000FC20FEF78EFCFF20FEF78BFCFF20FEF718
:101E800088FC00BD10B503460C46EE20FEF781FC31
:101E9000B120FEF77EFC4020FEF77BFC180AFEF71F
:101EA00078FCD8B2FEF775FC200AFEF772FCE0B2AF
:101EB000FEF76FFC100EFEF76CFCC2F30740FEF756
:101EC00068FCC2F30720FEF764FCD0B2FEF761FCA9
:101ED000FF20FEF75EFCFC20FEF75BFCFF20FEF718
:101EE00058FCFF20FEF755FC10BD00B502460B461E
:101EF000EE20FEF74EFCB120FEF74BFC4120FEF732
:101F000048FC100AFEF745FCD0B2FEF742FC180A66
:101F1000FEF73FFCD8B2FEF73CFCFF20FEF739FC91
:101F2000FC20FEF736FCFF20FEF733FCFF20FEF717
:101F300030FC00BD00B502460B46EE20FEF729FC42
:101F4000B120FEF726FC4220FEF723FC100AFEF724
:101F500020FCD0B2FEF71DFC180AFEF71AFCD8B21E
:101F6000FEF717FCFF20FEF714FCFC20FEF711FC27
:101F7000FF20FEF70EFCFF20FEF70BFC00BD00B5B6
:101F800002460B46EE20FEF704FCB120FEF701FCF2
:101F90004420FEF7FEFB100AFEF7FBFBD0B2FEF773
:101FA000F8FB180AFEF7F5FBD8B2FEF7F2FBFF20AC
:101FB000FEF7EFFBFC20FEF7ECFBFF20FEF7E9FB52
:101FC000FF20FEF7E6FB00BD10B503460C46EE20F1
:101FD000FEF7DFFBB120FEF7DCFB1820FEF7D9FB94
:101FE000180AFEF7D6FBD8B2FEF7D3FB200AFEF79D
:101FF000D0FBE0B2FEF7CDFB100AFEF7CAFBD0B271
:10200000FEF7C7FBFF20FEF7C4FBFC20FEF7C1FB79
:10201000FF20FEF7BEFBFF20FEF7BBFB10BD10B597
:1020200003460C46EE20FEF7B4FBB120FEF7B1FBF1
:102030001920FEF7AEFB180AFEF7ABFBD8B2FEF78D
:10204000A8FB200AFEF7A5FBE0B2FEF7A2FB100AF0
:10205000FEF79FFBD0B2FEF79CFBFF20FEF799FB3B
:10206000FC20FEF796FBFF20FEF793FBFF20FEF718
:1020700090FB10BD30B504460D46EE20FEF789FBFF
:10208000B120FEF786FB1320FEF783FB200AFEF744
:1020900080FBE0B2FEF77DFB280AFEF77AFBE8B290
:1020A000FEF777FBD0B2FEF774FB180AFEF771FB60
:1020B000D8B2FEF76EFBFF20FEF76BFBFC20FEF7AD
:1020C00068FBFF20FEF765FBFF20FEF762FB30BDDB
:1020D000F0B504460D4616461F46EE20FEF759FBA6
:1020E000B120FEF756FB5220FEF753FB200AFEF705
:1020F00050FBE0B2FEF74DFB280AFEF74AFBE8B2C0
:10210000FEF747FB002212E0002306E056F82210FB
:10211000C85CFEF73EFB581CC3B256F82200C05CF8
:102120000028F3D13B20FEF734FB501CC2B2BA4268
:10213000EADBFF20FEF72DFBFC20FEF72AFBFF2049
:10214000FEF727FBFF20FEF724FBF0BDF0B50546A8
:102150000C46DDE90567EE20FEF71BFB8620FEF747
:1021600018FBE8B2FEF715FB200AFEF712FBE0B2FF
:10217000FEF70FFB100AFEF70CFBD0B2FEF709FBCF
:10218000D8B2FEF706FBF0B2FEF703FBF8B2FEF79B
:1021900000FBFF20FEF7FDFAFC20FEF7FAFAFF2015
:1021A000FEF7F7FAFF20FEF7F4FAF0BD00203E49F3
:1021B000488008803D4908603D490880704710B557
:1021C000394A1288521C502392FBF3F403FB142269
:1021D00091B2354A52888A4205D0334A1388121D7B
:1021E000D054121F118010BD2F4949882E4A1288E1
:1021F00091420ED02C494A88091D895C01702A49F8
:102200004988491C502291FBF2F302FB1311264A24
:102210005180704724480088503023494988401A2B
:10222000502190FBF1F201FB120080B27047F8B52B
:1022300004460D460026002000902FE06846FFF778
:10224000D3FF1B48008820B99DF80000EE2800D07D
:1022500024E017480088A84208DA9DF800101448C6
:1022600002880088401C124B1880A1549DF8000081
:102270000E49096840EA01200C49086008460068D8
:102280006FF44031884208D1094806880020074988
:102290000860074908803046F8BD00BFFFF7BAFF65
:1022A0000028CBDC0020F7E7B8010020080100205F
:1022B0000C01002000B591B0F8A0FEF730FAF8A0AC
:1022C000FEF72DFAF5A0FEF72AFAFE480068C0EBEB
:1022D000001000EB8000FC494218FCA104A804F0A7
:1022E000F7F904A8FEF71BFAF6480068C0EB0010E7
:1022F00000EB8000F449084400F11402F7A104A89F
:1023000004F0E6F904A8FEF70AFAEE480068C0EB0C
:10231000001000EB8000EC49084400F12502F3A115
:1023200004A804F0D5F904A8FEF7F9F9E548006817
:10233000C0EB001000EB8000E349084490F8340043
:1023400018B9EEA0FEF7EBF90EE0DE480068C0EB2E
:10235000001000EB8000DC49084490F834000128AC
:1023600002D1EBA0FEF7DBF9D6480068C0EB001005
:1023700000EB8000D449084400F13502E9A104A82B
:1023800004F0A6F904A8FEF7CAF9EBA0FEF7C7F916
:10239000C2A0FEF7C4F9ECA0FEF7C1F9F3A0FEF766
:1023A000BEF9C8480068C0EB001000EB8000C649C9
:1023B000084490F8410018B9EEA0FEF7B0F937E0F4
:1023C000C0480068C0EB001000EB8000BE49084424
:1023D00090F84100012803D1EDA0FEF7A0F927E015
:1023E000B8480068C0EB001000EB8000B649084414
:1023F00090F8410002281BD1B2480068C0EB0010E1
:1024000000EB8000084400F13D03AE480068C0EBDB
:10241000001000EB8000084400F13902E4A104A898
:1024200004F056F904A8FEF77AF9E6A0FEF777F96A
:10243000E6A0FEF774F9A3480068C0EB001000EBBB
:102440008000A149084490F84A0018B9C9A0FEF7D5
:1024500066F937E09B480068C0EB001000EB800095
:102460009949084490F84A00012803D1C8A0FEF712
:1024700056F927E093480068C0EB001000EB80009D
:102480009149084490F84A0002281BD18D48006801
:10249000C0EB001000EB8000084400F146038948BF
:1024A0000068C0EB001000EB8000084400F142021D
:1024B000BFA104A804F00CF904A8FEF730F9C1A0EC
:1024C000FEF72DF975A0FEF72AF974A0FEF727F99B
:1024D0007C480068C0EB001000EB80007A4908449B
:1024E00090F8230077490968C1EB011101EB8101E4
:1024F000754A114491F82210724A1268C2EB021216
:1025000002EB8202704B1A4492F82120CDE900219F
:1025100002906C480068C0EB001000EB8000194688
:102520000844C37F67480068C0EB001000EB8000E0
:102530000844827FA7A104A804F0CAF804A8FEF703
:10254000EEF856A0FEF7EBF854A0FEF7E8F853A01B
:10255000FEF7E5F851A0FEF7E2F811B000BD70B546
:1025600005460024A4488582002D44D1012406E0BC
:1025700053A221460120FFF7D7F8601CC4B2052CF6
:10258000F6DD052406E04EA221460220FFF7CCF836
:10259000601CC4B20F2CF6DD012406E048A22146DF
:1025A0000420FFF7C1F8601CC4B2032CF6DD01243F
:1025B00006E043A221460520FFF7B6F8601CC4B22E
:1025C000082CF6DD062406E03DA221460420FFF794
:1025D000ABF8601CC4B2212CF6DD00220E210520D0
:1025E000FFF71FFB00220F210520FFF71AFB83488E
:1025F00080683449086070BD70472DE9F04186B0AD
:102600007D48808A052844D17D480078012841D141
:102610007C48007800283ED17B480068FDF781FFA8
:102620007A497948006803F08AFC044603F0A3FD68
:10263000C0B20590012005AB00220E2100900520BC
:10264000FFF7B8FA7048006803F0A9FD0446224677
:102650000B466FA102A804F03BF802AA0121052055
:10266000FFF762F86848006803F099FD04464FF0F0
:1026700033326A4B03F0A6FD0ED2FDF72CFF8046E5
:10268000404603F08CFD0446654A664B03F0AEFD00
:10269000CAE01FE21DE24CE12BE100000D0A000040
:1026A0002D2D2D2D2D2D3C3CCFDECBD9C6F7B2E202
:1026B000CAD4B1A8B8E63E3E2D2D2D2D2D2D0D0AE4
:1026C000000000001C01002022020020D7A2B2E17D
:1026D000B4FAC2EBA3BA25730D0A0000B3F6B3A790
:1026E000B1E0BAC5A3BA25730D0A0000B9E6B8F186
:1026F000D0CDBAC5A3BA25730D0A0000B5A5CBABE2
:10270000B7BDCFF2A3BAB5A5CFF20D0A0000000005
:10271000B5A5CBABB7BDCFF2A3BACBABCFF20D0A09
:1027200000000000B6EEB6A8CBD9B6C8A3BA257390
:10273000286D2F7329000000205BB1EAD7BC3A5600
:10274000787E56795D0D0A00B7BDCFF220B5E7C699
:10275000F8CBD9B6C8563120BBFAD0B5CBD9B6C85C
:1027600056322020BDE1B9FB0D0A0000C9CFD0D000
:102770000000000020202020205C2020202020209D
:10278000202020205C202020202020205C0D0A001A
:1027900020202020205C20202020202020202020FD
:1027A0005C202020202020D2ECB3A30D0A000000E2
:1027B000202573286D2F7329202573286D2F7329E9
:1027C00020200000D5FDB3A30D0A0000CFC2D0D059
:1027D000000000002D2D2D2D2D2D3C3C3230256488
:1027E0002D25642D25642025643A25643E3E2D2D3B
:1027F0002D2D2D2D0D0A00000C02002010010020AF
:102800003801002020010020340100200000A042F7
:1028100025332E32666D2F73000000003333FB3FEB
:102820002D431CEBE2361A3F21D2404603F0B7FCA1
:1028300004460B46FC490968C1EB011101EB81011B
:10284000FA4A114401F139002246AFF23C0103F08B
:102850003FFFF5480068C0EB001000EB8000F34933
:10286000084400F1390202210520FEF75DFFFDF763
:1028700045FE8046404603F092FC0446EC4AED4B90
:1028800003F0B4FC34D2404603F089FC04460B4606
:10289000E5490968C1EB011101EB8101E34A1144EB
:1028A00001F13D002246AFF2980103F011FFDE482E
:1028B0000068C0EB001000EB8000DC49084400F128
:1028C0003D0203210520FEF72FFF0220D6490968AB
:1028D000C1EB011101EB8101D44A114481F841009F
:1028E000D5A204210520FEF71FFF0020D44908705F
:1028F000E1E0FDF7E4FDD3A202210520FEF714FF7D
:10290000D0A203210520FEF70FFF0120C649096868
:10291000C1EB011101EB8101C44A114481F841006E
:10292000C9A204210520FEF7FFFE0020C44908705B
:10293000C1E0C7480068FDF7F4FDC649C448006817
:1029400003F0FDFA044603F016FCC0B20590012026
:1029500005AB00220F2100900520FFF72BF9BC48A2
:10296000006803F01CFC044622460B46AFF26011DF
:1029700002A803F0ADFE02AA05210846FEF7D4FE28
:10298000B348006803F00BFC04464FF03332B24BFF
:1029900003F018FC70D2FDF79EFD8046404603F020
:1029A000FEFB0446A24AA34B03F020FC21D2404682
:1029B00003F0F5FB04460B469B490968C1EB011186
:1029C00001EB8101994A114401F142002246AFF224
:1029D000C01103F07DFE94480068C0EB001000EBCE
:1029E00080009249084400F1420206210520FEF7CA
:1029F0009BFEFDF783FD8046404603F0D0FB044676
:102A00008B4A8C4B03F0F2FB55D2404603F0C7FBD8
:102A100004460B4684490968C1EB011101EB8101B1
:102A2000824A114401F146002246AFF21C2103F014
:102A30004FFE7D480068C0EB001000EB80007B4932
:102A4000084400F1460207210520FEF76DFE022032
:102A500075490968C1EB011101EB8101734A114409
:102A600081F84A0074A208210520FEF75DFE0020CF
:102A7000734908701FE0FFE7FDF721FD71A20621F1
:102A80000520FEF751FE6FA207210520FEF74CFE40
:102A9000012065490968C1EB011101EB8101634A1D
:102AA000114481F84A0068A208210520FEF73CFE87
:102AB0000020634908706648006803F070FB064612
:102AC000664A674B03F0ABFA044603F0A3FB604988
:102AD000086000E000BF00BF06B0BDE8F08110B59F
:102AE00086B04FF0FF305F4908605F4908605F487B
:102AF000007800283AD100240EE0C4EB041101EB69
:102B000081014A4A88185A4903F00BFA10B956480D
:102B1000046003E0601CC4B2642CEEDB00BF642CD4
:102B200001D106B010BD632C02D14E480460F8E715
:102B30004D480078401CC4B20FE0C4EB041101EB17
:102B400081013A4A88184A4903F0EBF918B1601E2E
:102B50004449086003E0601CC4B2642CEDDB00BF94
:102B6000642C02D163203F490860D1E03F480078DF
:102B700001283DD1002410E0C4EB041101EB8101D8
:102B80002A4A114401F114003A4903F0CAF910B974
:102B90003548046003E0601CC4B2642CECDB00BF69
:102BA000642C00D1BDE7632C02D12E480460B8E745
:102BB0002D480078401CC4B211E0C4EB041101EBB5
:102BC00081011A4A114401F114002A4903F0A9F9BC
:102BD00018B1601E2349086003E0601CC4B2642C75
:102BE000EBDB00BF642C02D163201E4908608FE03C
:102BF0001E48007802287DD100244BE0C4EB04106D
:102C000000EB80000949084490F821000090C4EBD3
:102C1000041000EB80000844C37FC4EB041000EBF9
:102C200080000844827F27E01C010020220200204F
:102C30002D431CEBE2361A3FD5FDB3A30000000084
:102C4000380100205C000000D2ECB3A300000000BB
:102C5000340100200000A0423333FB3F7B14AE4719
:102C6000E17A943F3001002024010020210100205E
:102C70006E1F0020821F0020FAA102A803F028FD89
:102C8000FB4902A803F04DF910B9FA48046003E0CB
:102C9000601CC4B2642CB1DB00BF642C00D140E7DF
:102CA000632C02D1F44804603BE7F2480078401CF2
:102CB000C4B225E0C4EB041000EB8000EF490844E7
:102CC00090F821000090C4EB041000EB8000084451
:102CD000C37FC4EB041000EB80000844827FE1A1B5
:102CE00002A803F0F5FCE24902A803F01AF928B1A2
:102CF000601E00E00CE0E049086003E0601CC4B224
:102D0000642CD7DB00BF642C02D16320DA49086051
:102D100000BF06E710B586B00024C5E0D8480068BB
:102D20002044C0EB001000EB8000D449084490F828
:102D300021000090D24800682044C0EB001000EB56
:102D400080000844C37FCE4800682044C0EB0010D8
:102D500000EB80000844827FC2A102A803F0B8FC07
:102D6000C4EBC400811D02AA0420FEF7DDFCC448A8
:102D700000682044C0EB001000EB8000BF4BC2187D
:102D8000C4EBC400C11D0420FEF7CEFCBC480068A3
:102D90002044C0EB001000EB8000B84B184400F159
:102DA0001402C4EBC40000F108010420FEF7BCFCCF
:102DB000B34800682044C0EB001000EB8000AF4B2C
:102DC000184400F12502C4EBC40000F109010420FD
:102DD000FEF7AAFCAA4800682044C0EB001000EBF4
:102DE0008000A649084490F8340040B9C4EBC40000
:102DF00000F10A01A3A20420FEF796FC14E0A0480B
:102E000000682044C0EB001000EB80009B490844A0
:102E100090F83400012807D1C4EBC40000F10A0186
:102E20009AA20420FEF780FC954800682044C0EB7D
:102E3000001000EB8000914B184400F13502C4EB08
:102E4000C40000F10B010420FEF76EFC8C48006802
:102E50002044C0EB001000EB80008849084490F843
:102E60004100012815D0864800682044C0EB0010BE
:102E700000EB8000084490F84A00012809D0C4EB18
:102E8000C40000F10C01AFF250220420FEF74CFC0C
:102E900008E0C4EBC40000F10C01AFF2542204209E
:102EA000FEF742FC601CC4B27A48006874490968A5
:102EB000401A401CA0423FF731AF06B010BD10B51C
:102EC00075480068C0EB001000EB80006B494218A9
:102ED00005210220FEF728FC6F480068C0EB0010B7
:102EE00000EB80006549084400F11402062102202D
:102EF000FEF71AFC68480068C0EB001000EB800089
:102F00005E49084400F1250207210220FEF70CFC6F
:102F100061480068C0EB001000EB8000574908448E
:102F200090F8340028B957A208210220FEF7FCFBD4
:102F300010E059480068C0EB001000EB80004F49DA
:102F4000084490F83400012804D150A2082102203E
:102F5000FEF7EAFB50480068C0EB001000EB800071
:102F60004649084400F1350209210220FEF7DCFB46
:102F700010BDFEB505460C46164648A103C9CDE96D
:102F80000101022D04D0042D68D0052D67D1BFE1C9
:102F9000012C04D0022C63D0032C5ED1E1E03E482A
:102FA0000068C0EB001000EB80003449084490F842
:102FB000410090B9AFF274320A210220FEF7B4FB4F
:102FC000AFF280320B210220FEF7AEFBAFF28C3263
:102FD0000C210220FEF7A8FB3FE02F480068C0EB61
:102FE000001000EB80002549084490F841000228B9
:102FF00021D129480068C0EB001000EB8000084494
:1030000000F139020A210220FEF78EFB22480068F7
:10301000C0EB001000EB80001849084400F13D02AD
:103020000B210220FEF780FBAFF2F4320C210220CC
:10303000FEF77AFB11E0AFF2F4320A210220FEF72C
:1030400073FBAFF200420B210220FEF76DFBAFF2E3
:1030500008420C210220FEF767FB85E086E0DEE1F6
:1030600020E00000323025642E25642E2564000007
:103070008C1F0020240100203001002022020020AB
:1030800028010020B5A5CFF200000000CBABCFF2A5
:10309000000000002C0100201C0100200008101876
:1030A00020000000FE480068C0EB001000EB80002C
:1030B000FC49084490F84A0090B9AFF278420D21DB
:1030C0000220FEF731FBAFF284420E210220FEF710
:1030D0002BFBAFF290420F210220FEF725FB3FE0D1
:1030E000EF480068C0EB001000EB8000ED49084499
:1030F00090F84A00022821D1E9480068C0EB00108E
:1031000000EB8000084400F142020D210220FEF78E
:103110000BFBE3480068C0EB001000EB8000E149C6
:10312000084400F146020E210220FEF7FDFAAFF23C
:10313000F8420F210220FEF7F7FA11E0AFF2FC424D
:103140000D210220FEF7F0FAAFF208520E21022004
:10315000FEF7EAFAAFF210520F210220FEF7E4FA6E
:1031600002E0FFF7A7F800BF00BF59E1242C4DD0C3
:1031700006DC042C0BD0222C25D0232C7CD12DE076
:10318000252C68D0262C78D0272CF7D1AAE0FFF781
:10319000A6FCC5480068401CA0B1C3480068C349EC
:1031A000086008460068C01CC149086008460068FD
:1031B000C0490968884203DDBE480068BC49086010
:1031C000FFF7A8FDA2E0B8480068401C18B1B74856
:1031D0000068B3490860FFF772FE97E0B2480068E4
:1031E000401C80B1B2480068B0490968401A012803
:1031F00005DBAE480068401CA949086003E0AB4805
:103200000068A7490860FFF75AFE7FE0A6480068FB
:10321000401CE8B1A6480068A4490968401A022881
:1032200005DBA2480068801C9D49086010E0A048AA
:1032300000689E490968401A012805DB9B48006820
:10324000401C9749086003E098480068944908606A
:10325000FFF735FE5AE094480068401C38B39448A4
:10326000006892490968401A032807DB8F48006804
:10327000C01C8B4908601FE047E020E08C480068D4
:103280008A490968401A022805DB88480068801CC2
:103290008349086010E08648006884490968401A3C
:1032A000022805DB81480068401C7D49086003E076
:1032B0007E4800687A490860FFF701FE26E07C48F6
:1032C00000687C490968884209D078480068401C39
:1032D0007649086076480068401C75490860FFF729
:1032E00019FD13E0714800686F490968884209D0E8
:1032F0006E480068401E6D4908606D480068401EB9
:103300006B490860FFF706FD00E000BF00BF87E0E3
:10331000A4F10900052827D2DFE800F00327707325
:103320007900012E1BD1FDF790F84FF07C506249D7
:1033300008600120614908706148007838B90520AB
:1033400001AB00220E210090FEF734FC0CE00520BA
:1033500001AB00220F210090FEF72CFC04E0FDF7EA
:10336000AEF800205549087057E04D480068C0EBA2
:10337000001000EB80004B49084452490844494979
:10338000401A4B2190FBF1F745480068C0EB001054
:1033900000EB8000434A81182522384600F0FDFBEF
:1033A00049488068632808D14748406828B9002008
:1033B00045498860012048601AE0434880684249D6
:1033C000496888420FD240488068401C3E49886066
:1033D00008464068401C486008464068642807D199
:1033E0000020486004E038488068401C3649886006
:1033F00006223549354800F0D0FB0EE0FEF75AFFB3
:103400000BE0FDF754F800202D49087005E0FDF7AA
:1034100046F801202A49087000BF00BF00E000BF45
:1034200000BFFEBD2DE9F04107460D461646304669
:1034300002F070FD0446012F02D0042F7ED18CE0F3
:10344000012D06D0022D1BD0032D4CD0052D76D199
:1034500063E013490968C1EB011101EB8101114AD5
:1034600088182246314602F043FD00200C490968C5
:10347000C1EB011101EB81010A4A114408556AE0D0
:1034800007490968C1EB011101EB8101054A1144AB
:1034900001F114002246314602F02AFD002117E016
:1034A0001C0100202202002024010020280100200D
:1034B0002C010020300100203401002038010020C0
:1034C00020010020BC6A8D5810010020A8E20108EC
:1034D000FE480068C0EB001000EB8000FC4A10447E
:1034E0001430015537E0F9490968C1EB011101EBCE
:1034F0008101F74A114401F125002246314602F0CC
:10350000F7FC0021F1480068C0EB001000EB8000E0
:10351000EF4A1044253001551DE0EC490968C1EB24
:10352000011101EB8101EA4A114401F13500224603
:10353000314602F0DDFC0021E44801E03AE009E018
:103540000068C0EB001000EB8000E14A1044353009
:10355000015500E000BF00BF2DE0012D04D0022D79
:103560000DD0032D23D116E022463146D94802F072
:10357000BFFC0020D7490855D749087018E02246FB
:103580003146D64802F0B4FC0020D4490855012049
:10359000D14908700CE022463146D14802F0A8FC1F
:1035A0000020CF4908550220CB49087000E000BF39
:1035B00000BF00E000BF00BFBDE8F081704770476A
:1035C000704730B501280BD1092909D1BF4C2468B7
:1035D000C4EB041404EB8404BD4D2C4484F8342063
:1035E00030BD704770477047704730B50178CB17D2
:1035F00001EB13731B11A1EB0313CC1701EB147434
:10360000241104EB840403EB4403B04C2468C4EBA2
:10361000041404EB8404AE4D2C44A3774178CB17FB
:1036200001EB13731B11A1EB0313CC1701EB147403
:10363000241104EB840403EB4403DCB2A34B1B68AA
:10364000C3EB031303EB83032B44DC77C178CB1765
:1036500001EB13731B11A1EB0313CC1701EB1474D3
:10366000241104EB840403EB4403DCB2974B1B6886
:10367000C3EB031303EB83032B4483F8214001794D
:10368000CB1701EB13731B11A1EB0313CC1701EB49
:103690001474241104EB840403EB4403DCB28B4B5D
:1036A0001B68C3EB031303EB83032B4483F8224013
:1036B0004179CB1701EB13731B11A1EB0313CC174B
:1036C00001EB1474241104EB840403EB4403DCB217
:1036D0007E4B1B68C3EB031303EB83032B4483F87C
:1036E00023408179CB1701EB13731B11A1EB03135B
:1036F000CC1701EB1474241104EB840403EB440392
:10370000DCB2724B1B68C3EB031303EB83032B4444
:1037100083F824408178CB1701EB13731B11A1EBC5
:103720000313CC1701EB1474241104EB840403EB92
:103730004403DCB2654B1B68C3EB031303EB830349
:103740002B4483F8204030BD2DE9F05F04460D4640
:103750006678A77894F807802079E17840EA012913
:10376000A079617940EA012A207A0106607A41EA6B
:103770000041A07A41EA0020E17A40EA010B0D2ED7
:103780002AD008DC012E0DD0032E0CD00B2E27D012
:103790000C2E7FD11CE00F2E2AD0B12E33D0F72E65
:1037A00078D12BE000BF4F4B5B79DFF838C19CF834
:1037B00004C043EA0C224B4BDB78DFF828C19CF8AD
:1037C00002C043EA0C21474B5878FEF715FF62E030
:1037D0000120FFF709FF5EE00020FFF705FF5AE038
:1037E000A81F82B23F49891C0120FFF7FCFE52E06E
:1037F000002211461046FFF7F6FE4CE03948801CC7
:10380000FFF7F3FE47E0012F03D14846FEF7A7FE7E
:103810003FE0A8F110000C2839D2DFE800F0060CD8
:1038200013191F3838333838252D627A51464846E7
:10383000FFF79FFB2CE004F1080251464846FFF7D2
:10384000F1FD25E05A4651464846FFF7B7FE1FE016
:103850005A4651464846FFF7B2FE19E05A465146CD
:103860004846FFF7ADFE13E0637A227A5146484698
:10387000FFF7A7FE0CE00DE0227A51464846FFF71D
:10388000B0FE05E051464846FFF7ACFE00E000BF41
:1038900000BF00E000BF00BFBDE8F09F3EB50024C0
:1038A00000BF04E000200F490855601C84B2142CAE
:1038B000F8DB00200B498882FEF778FC0A48FCF709
:1038C0004FFF06226946094812E000001C01002053
:1038D000220200206E1F002021010020821F0020F4
:1038E0008C1F00200C020020FB250008A8E2010824
:1038F00000F040F91949009888421CD118490198F4
:1039000048600298886008468068496888420CD9F7
:1039100013488068C0EB001000EB8000C0F34F023A
:103920001049114800F026F905E040F6A6620D495D
:103930000D4800F01FF90A4880680C4908603EBD38
:1039400010B5002414210A48FEF771FC0446002C2F
:1039500003DD21460648FFF7F7FE10BD7856341206
:103960001001002022020020B4E201081C01002006
:103970000C02002010B56FF0040000F09CFA2E48F5
:1039800000682E49B0FBF1F02D4908700846007818
:1039900000EB4001C1EBC0104FF6FF7101EAC0001F
:1039A0002849088010BD0146254A12784A434FF045
:1039B000E0235A6100229A611A46126942F001021C
:1039C0001A6100BF4FF0E022106900F001021AB145
:1039D00000F48032002AF5D04FF0E022126922F084
:1039E00001024FF0E0231A6100229A6170470146FC
:1039F000144A12884A434FF0E0235A6100229A6128
:103A00001A46126942F001021A6100BF4FF0E0222B
:103A1000106900F001021AB100F48032002AF5D0DA
:103A20004FF0E022126922F001024FF0E0231A6108
:103A300000229A61704700000000002000127A0006
:103A40003A0100203C01002010B588B0044642F243
:103A50001070ADF818000A20ADF814000020ADF881
:103A60001A00ADF8160005A9206801F09BF8702037
:103A7000ADF804000120ADF806000020ADF80C0000
:103A80002079012806D002280DD0032814D004285C
:103A900024D11AE001A9206801F0C1F808212068AA
:103AA00001F00CFD1BE001A9206801F0FAF80821E3
:103AB000206801F00CFD12E001A9206801F03EF938
:103AC0000821206801F010FD09E001A9206801F03B
:103AD00080F90821206801F010FD00E000BF00BF60
:103AE0000021206801F0BAFB08B010BD10B50446F3
:103AF0000121206801F0B2FB10BD10B50446002181
:103B0000206801F0ABFB10BD42F21072914200DD63
:103B100070470279012A06D0022A07D0032A08D06A
:103B2000042A0DD108E0026891860AE00268118734
:103B300007E00268918704E00268A2F8401000E004
:103B400000BF00BF00BFE3E70146088870472DE9CA
:103B5000F04105460E461746002407E036F81410DB
:103B6000284602F04EF8AD1C601C84B2BC42F5DB66
:103B7000BDE8F0812DE9F04107460D4616460024C8
:103B800007E03846FFF7E0FF25F81400BF1C601C73
:103B900084B2B442F5DBBDE8F0812DE9F05F8046E8
:103BA0008A461746B8F1006F02D33348804501D3E7
:103BB000BDE8F09F01F0DDFEA8F1006B4FEA9B2508
:103BC000CBF34809C9F50074A74200DC3C464DE040
:103BD0004FF0006101EB85208A142849FFF7CAFFE6
:103BE00000260BE009EB0600244931F810004FF6DF
:103BF000FF71884200D003E0701C86B2A642F1DB60
:103C000000BFA6421BDA4FF0006101EB852001F0F6
:103C1000F5FE002608E03AF8160006EB0901174AFF
:103C200022F81100701C86B2A642F4DB4FF000614E
:103C300001EB85208A141149FFF789FF04E0224631
:103C400051464046FFF783FFA74200D10FE06D1CAD
:103C50004FF000090AEB440AA044381B87B2B7F5BD
:103C6000007F02DD4FF4007400E03C46B0E700BF87
:103C700001F08BFE00BF9BE7000002089C1F0020A4
:103C80003EB504466178207800F0AAFA6068019099
:103C900000208DF80800607A8DF8090001208DF869
:103CA0000A0001A801F0C6FD207A8DF8000002206C
:103CB0008DF801008DF8020001208DF803006846A0
:103CC00000F0AFF83EBD38B5044620788DF802000C
:103CD0006088ADF80000207A8DF8030069466068BE
:103CE00000F068F9207A10280AD1607A20B1618842
:103CF000606800F00CFA03E06188606800F009FA7F
:103D000038BD10B586B00446206800F0A1FA60689E
:103D100001900020ADF808002089ADF80A00608904
:103D2000ADF80C000020ADF810000C20ADF80E002E
:103D300001A9206800F0CFFA0121206800F057FBAC
:103D4000012240F22551206800F05DFB207B8DF8B8
:103D5000140002208DF815008DF8160001208DF852
:103D6000170005A800F05DF806B010BD1FB50446A9
:103D7000E088ADF808004720ADF804000020ADF859
:103D80000A00ADF8060001A9206800F00BFF01222F
:103D90004121206801F07DFA20798DF80000022091
:103DA0008DF801008DF8020001208DF803006846AF
:103DB00000F037F80021206801F050FA1FBD10B55F
:103DC00004460121206801F049FA10BD10B50446EF
:103DD0000021206801F042FA10BD10B50446002110
:103DE000206801F0CFFC10BD10B50446206801F03A
:103DF000ECFC10BD0648804706480047FEE7FEE79A
:103E0000FEE7FEE7FEE7FEE7FEE7FEE7FEE7FEE78A
:103E10003F0200083101000831490143314A116075
:103E2000704770B5002100230F22C47804B32D4CD5
:103E3000246804F4E064C4F5E064210AC1F10403D9
:103E4000CA40447804FA03F18478144021430901FC
:103E5000254C0678A155047804F01F050124AC40D8
:103E600005786D11AD0005F1E025C5F8004109E0C8
:103E7000047804F01F050124AC401C4D067876112F
:103E800045F8264070BD1A4A0A400243154B1B1FD5
:103E90001A60704739B1134A121D12680243114B60
:103EA0001B1D1A6006E00F4A121D126882430D4B5B
:103EB0001B1D1A607047042808D14FF0E0210969E2
:103EC00041F004014FF0E022116107E04FF0E021E2
:103ED000096921F004014FF0E022116170470000F0
:103EE0000000FA050CED00E000E400E080E100E0F5
:103EF00080FFFF1F10B50446CC48844208D1012141
:103F0000042000F031FD0021042000F02DFD46E0EA
:103F1000C748844208D10121082000F025FD002176
:103F2000082000F021FD3AE0C248844208D1012176
:103F3000102000F019FD0021102000F015FD2EE0EA
:103F4000BD48844208D10121202000F00DFD002150
:103F5000202000F009FD22E0B848844208D1012168
:103F6000402000F001FD0021402000F0FDFC16E0A3
:103F7000B348844208D10121802000F0F5FC0021E3
:103F8000802000F0F1FC0AE0AE48844207D1012114
:103F9000801500F0E9FC0021A01500F0E5FC10BD43
:103FA00010B50121084600F0DFFC0021012000F0DF
:103FB000DBFC10BD2DE9F041024600250026002063
:103FC00000230024002791F803C00CF00F0591F89E
:103FD00003C00CF0100CBCF1000F03D091F802C02C
:103FE0004CEA050591F800C0BCF1000F31D014680F
:103FF00000202BE04FF0010C0CFA00F3B1F800C0E8
:104000000CEA03069E4220D183004FF00F0C0CFAFD
:1040100003F7BC4305FA03FC4CEA040491F803C01F
:10402000BCF1280F06D14FF0010C0CFA00FCC2F8CD
:1040300014C00AE091F803C0BCF1480F05D14FF05D
:10404000010C0CFA00FCC2F810C0401C0828D1D3A7
:104050001460B1F800C0BCF1FF0F34DD54680020DB
:104060002EE000F1080C4FF0010808FA0CF3B1F84B
:1040700000C00CEA03069E4221D183004FF00F0CD2
:104080000CFA03F7BC4305FA03FC4CEA040491F86C
:1040900003C0BCF1280F05D100F1080C08FA0CF898
:1040A000C2F8148091F803C0BCF1480F07D100F1A9
:1040B000080C4FF0010808FA0CF8C2F81080401CF8
:1040C0000828CED35460BDE8F0814FF6FF7101801F
:1040D000022181700421C17070470246002093685C
:1040E0000B400BB1012000E00020704701468868BA
:1040F00080B2704702460020D3680B400BB101200C
:1041000000E0002070470146C86880B27047016136
:104110007047416170470AB1016100E04161704739
:10412000C16070474FF480320A43826181618261CD
:1041300082698269704702460020434B18684FF637
:104140008073184040EA021008433F4B18607047E4
:104150003E49C8617047F0B50A460023002400219B
:10416000002500F00046B6F1004F02D1364EF1694D
:1041700001E0354E7168C0F3034583B200F4401688
:10418000B6F5401F08D121F070612F4E766826F0F9
:1041900070662D4F7E6012E000F48016B6F5801F29
:1041A00006D1032606FA05F4A14341F0706106E04A
:1041B000460D360103FA06F6B14341F0706122B1B3
:1041C000460D360103FA06F6314300F00046B6F11B
:1041D000004F02D11C4EF16101E01B4E7160F0BD39
:1041E00030B500228B071C0F0F2303FA04F2164B85
:1041F00008338C1053F824309343134C08348D103B
:1042000044F8253023468C1053F824308C07240FB3
:1042100000FA04F423430C4C08348D1044F8253084
:1042200030BD0A49DC3108607047000000080140D9
:10423000000C014000100140001401400018014032
:10424000001C01400020014000000140000020420D
:1042500010B50446FB48844209D10121880300F0CF
:1042600083FB00214FF4804000F07EFB32E0F648F3
:10427000844209D10121480400F083FB00214FF45E
:10428000003000F07EFB25E0F048844209D1012196
:10429000880400F076FB00214FF4802000F071FBD1
:1042A00018E0EB48844209D10121C80400F069FB01
:1042B00000214FF4002000F064FB0BE0E54884424D
:1042C00008D10121080500F05CFB00214FF48010AB
:1042D00000F057FB10BD2DE9F04786B005460E46AD
:1042E0000024A24600BFA1460027B08900B100BF4C
:1042F0002F462C8A4CF6FF700440F08804432C8231
:10430000AC894EF6F3100440B088318908437189B6
:1043100008430443AC81AC8A4FF6FF400440B089A7
:104320000443AC8201A800F098FAC648874202D143
:10433000DDF810A001E0DDF80CA0A88900F4004031
:1043400040B10AEBCA0000EB0A1031684900B0FB2B
:10435000F1F807E00AEBCA0000EB0A1031688900A7
:10436000B0FBF1F86420B8FBF0F0040120096421EF
:1043700001FB1089A88900F4004040B1322000EB15
:10438000C900B0FBF1F000F00700044308E0322060
:1043900000EB09106421B0FBF1F000F00F000443C2
:1043A0002C8106B0BDE8F0874FF416510160002162
:1043B0008180C18001810C21418100218181704770
:1043C00010B502460020108A4FF2FF0318400B88F8
:1043D0004C8823438C882343CC8823431843108282
:1043E00010BD0021018041808180C180704721B1D2
:1043F000828942F40052828104E082894DF6FF7383
:104400001A4082817047F0B503460024002600253B
:10441000002040F66A17B94200D100BF1846C1F328
:10442000421401F01F06012707FA06F5012C01D1FD
:104430000C3004E0022C01D1103000E014301AB12D
:1044400007682F43076002E00768AF430760F0BDCD
:104450001AB1838A0B43838202E0838A8B4383826F
:104460007047028A4FF6F0731A400282028A0A43AA
:104470000282704782894FF2FF731A4082818289DB
:104480000A438281704721B1828942F0020282810F
:1044900004E082894FF6FD731A4082817047028AD8
:1044A0004FF6DF731A400282028A0A430282704783
:1044B00021B1028A42F48042028204E0028A4BF671
:1044C000FF731A4002827047C1F30802828070476E
:1044D00001468888C0F308007047818941F00101D6
:1044E00081817047028BD2B20283028B42EA0122A1
:1044F00002837047028B02F47F420283028B0A43DD
:104500000283704721B1828A42F02002828204E055
:10451000828A4FF6DF731A408282704721B1828A05
:1045200042F01002828204E0828A4FF6EF731A4052
:104530008282704721B1828A42F00802828204E0BE
:10454000828A4FF6F7731A408282704721B18289BE
:1045500042F40042828103E08289C2F30E0282812A
:10456000704721B1828A42F40062828204E0828A2A
:104570004FF2FF731A4082827047828A4FF6FB73B4
:104580001A408282828A0A438282704721B1828ADB
:1045900042F00202828204E0828A4FF6FD731A40E2
:1045A0008282704702460020B1F5007F00D100BF33
:1045B00013880B400BB1012000E00020704701F48C
:1045C0000072B2F5007F00D100BFCA43028070477D
:1045D00070B50246002400230025002040F66A162C
:1045E000B14200D100BFC1F3421501F01F03012603
:1045F00006FA03F3012D02D19689334006E0022D1D
:1046000002D1168A334001E0968A33400C1201260B
:1046100006FA04F41688344013B10CB1012000E00E
:10462000002070BD10B50022002340F66A14A1429C
:1046300000D100BF0A1201249440A3B2DC430480DD
:1046400010BD000000380140004400400048004018
:10465000004C004000500040DF48006840F001007E
:10466000DD49086008464068DC490840DA4948608E
:1046700008460068DA490840D749086008460068DB
:1046800020F4802008600846406820F4FE0048605E
:104690004FF41F0088607047CF49096821F48031CA
:1046A000CD4A11601146096821F480211160B0F5EE
:1046B000803F03D0B0F5802F0ED106E0C6490968CF
:1046C00041F48031C44A116007E0C349096841F4EC
:1046D000A021C14A116000E000BF00BF704710B5C3
:1046E00001460022002300204A11012A02D1BA4CBF
:1046F000236806E0022A02D1B74C236A01E0B64CD7
:10470000636A01F01F02012494401C400CB1012097
:1047100000E0002010BD38B50020009000240025E6
:1047200000BF3120FFF7DBFF05460098401C0090DA
:104730000098B0F5A06F01D0002DF2D03120FFF726
:10474000CEFF08B1012400E00024204638BD014618
:104750000020A14A106820F0F80040EAC100106073
:104760007047A04908607047024600209A4B58687D
:1047700020F47C1042EA01031843974B58607047BD
:1047800098490866704701460020934A506820F017
:1047900003000843506070478F48406800F00C00E9
:1047A0007047014600208C4A506820F0F000084312
:1047B0005060704701460020874A506820F4E0604E
:1047C00008435060704701460020834A506820F437
:1047D000605040EAC1005060704729B17E4A527A69
:1047E00002437D4B5A7204E07B4A527A82437A4BF1
:1047F0005A7270477B49D8310860704701460020E3
:10480000754A506820F440400843506070470021CA
:10481000714A20321170704A82F82010012802D0AB
:1048200004280AD104E001216B4A2032117005E00E
:104830000521694A2032117000E000BF00BF7047B7
:104840006949086070476449096A0143624A116214
:104850007047654944390860704730B5002100222F
:10486000002400235C4D6D6805F00C0121B1042982
:1048700005D0082923D105E05C4D056022E05B4DA1
:1048800005601FE0544D6D6805F47012524D6D685F
:1048900005F48034022505EB92421CB9544D554372
:1048A00005600BE04C4D6D6805F400351DB1504DB1
:1048B0005543056002E04D4D5543056002E04B4D08
:1048C000056000BF00BF444D6D6805F0F0010909A7
:1048D000484D6B5C0568DD4045603F4D6D6805F4F3
:1048E000E061090A434D6B5C4568DD4085603A4DE7
:1048F0006D6805F46051C90A3E4D6B5C4568DD404A
:10490000C560354D6D6805F44041890B3A4D6B5CCF
:10491000C568B5FBF3F5056130BD29B12E4A526972
:1049200002432D4B5A6104E02B4A526982432A4BC1
:104930005A61704729B1284A92690243264B9A610D
:1049400004E0254A92698243234B9A61704729B15A
:10495000214AD2690243204BDA6104E01E4AD2693F
:1049600082431D4BDA61704729B11B4AD26802436A
:10497000194BDA6004E0184AD2688243164BDA60B9
:10498000704729B1144A12690243134B1A6104E0BB
:10499000114A12698243104B1A617047124940391B
:1049A000086070470F49C86470470B49C871704769
:1049B0000948406A40F080700749486270470146E4
:1049C0000020054A92680A400AB1012000E0002058
:1049D0007047014988727047001002400000FFF8DC
:1049E000FFFFF6FE000042428004424200127A00BD
:1049F00000093D003E0100204E01002010B5044694
:104A0000FE48844208D10121C014FFF7ADFF002108
:104A1000E014FFF7A9FFC4E0B4F1804F08D10121F1
:104A20000846FFF7AEFF00210120FFF7AAFFB8E01C
:104A3000F348844208D101210220FFF7A2FF0021A0
:104A40000220FFF79EFFACE0EE48844208D101212E
:104A50000420FFF796FF00210420FFF792FFA0E05B
:104A6000E948844208D101210820FFF78AFF00218C
:104A70000820FFF786FF94E0E448844208D1012132
:104A80001020FFF77EFF00211020FFF77AFF88E05B
:104A9000DF48844208D101212020FFF772FF002166
:104AA0002020FFF76EFF7CE0DA48844208D1012124
:104AB0004014FFF759FF00216014FFF755FF70E025
:104AC000D548844209D10121C804FFF74DFF0021D8
:104AD0004FF40020FFF748FF63E0D048844209D13B
:104AE00001210805FFF740FF00214FF48010FFF778
:104AF0003BFF56E0CA48844209D101214805FFF72F
:104B000033FF00214FF40010FFF72EFF49E0C548A6
:104B1000844208D101214020FFF733FF00214020CB
:104B2000FFF72FFF3DE0C048844208D101218020DB
:104B3000FFF727FF00218020FFF723FF31E0BB486C
:104B4000844208D101218015FFF71BFF0021A01529
:104B5000FFF717FF25E0B648844209D10121080478
:104B6000FFF702FF00214FF48030FFF7FDFE18E051
:104B7000B048844209D101214804FFF7F5FE002125
:104B80004FF40030FFF7F0FE0BE0AB48844208D151
:104B900001218804FFF7E8FE00214FF48020FFF791
:104BA000E3FE10BD00220288944B98420ED0994B30
:104BB00098420BD0B0F1804F08D0914B984205D06D
:104BC000904B984202D0904B984204D14FF68F738D
:104BD0001A404B881A438D4B984207D08C4B984211
:104BE00004D04FF6FF431A40CB881A4302808B88CB
:104BF00083850B880385814B98420BD0854B984267
:104C000008D08B4B984205D08A4B984202D08A4BF1
:104C1000984201D10B7A038601238382704770B5D5
:104C2000002400220023058C4FF6FE7635400584D3
:104C3000028C8388048B4FF68F752C40B51E2C4058
:104C40000D882C43751E2A400D892A434D882A431E
:104C50006A4DA8420BD06F4DA84208D0744DA842AF
:104C600005D0744DA84202D0734DA84213D14FF61F
:104C7000F7752A404D892A434FF6FB752A408D88E7
:104C80002A434FF6FF652B404FF6FF552B408D8989
:104C90002B43CD892B4383800483CD888586028472
:104CA00070BD70B5002400220023058C4FF6EF760E
:104CB00035400584028C8388048B48F6FF752C40B0
:104CC0004FF6FF452C400D884FF6FF7606EA052586
:104CD0002C434FF6DF752A400D8906EA05152A4355
:104CE0004D8806EA05152A43444DA84202D0494D95
:104CF000A8421DD14FF67F752A404D894FF6FF76A9
:104D000006EA05152A434FF6BF752A408D8806EA44
:104D100005152A434FF6FF352B404FF2FF752B4008
:104D20008D8906EA85052B43CD8906EA85052B4347
:104D300083800483CD880587028470BD70B500240C
:104D400000220023058C4FF6FF6635400584028C57
:104D50008388848B4FF68F752C404FF6FC752C4062
:104D60000D882C434FF6FF552A400D894FF6FF76EC
:104D700006EA05252A434D8806EA05252A431F4DE4
:104D8000A84202D0234DA8421DD14FF2FF752A4000
:104D90004D894FF6FF7606EA05252A434FF6FF3583
:104DA0002A408D8806EA05252A434EF6FF752B40DA
:104DB0004DF6FF752B408D8906EA05152B43CD89ED
:104DC00006EA05152B4383808483CD88858702847A
:104DD00070BD70B5002200230024058C4EF6FF76CE
:104DE00035400584038C8488828B48F6FF752A4001
:104DF0004FF6FF452A400D8820E00000002C0140BE
:104E00000004004000080040000C0040001000407A
:104E10000014004000340140004C014000500140AB
:104E20000054014000180040001C004000200040D9
:104E30000040014000440140004801404FF6FF7629
:104E400006EA05252A434DF6FF752B400D8906EA33
:104E500005352B434D8806EA05352B43FA4DA8420C
:104E600002D0FA4DA84208D14BF6FF752C408D892F
:104E70004FF6FF7606EA85152C4384808283CD8821
:104E8000A0F84050038470BD828B4FF2FF331A406C
:104E90008283828B4FF6FF7303EA01231A438283D6
:104EA0007047F0B50C461546002200210026078CFD
:104EB0004EF6FF7C07EA0C070784828B018C4FF6C5
:104EC000FF7707EA043640F6FF473A404FF6FF7790
:104ED00007EA05273A434FF6FF7707EA03373A43D5
:104EE000D94FB8420ED0D94FB8420BD0B0F1804F55
:104EF00008D0D74FB84205D0D64FB84202D0D64FCF
:104F0000B84206D14DF6FF77394046F48057394311
:104F100005E047F6FF57394044F480573943828310
:104F20000184F0BD828B4FF6F3731A408283828B2B
:104F30000A4382837047F0B50C46154600220021D3
:104F40000026078C4FF6FF6C07EA0C070784828B5C
:104F5000018C4FF6FF7707EA04264FF60C773A40AC
:104F60004FF6FF7707EA03172F433A43B64FB8428D
:104F70000ED0B64FB8420BD0B0F1804F08D0B44F2E
:104F8000B84205D0B34FB84202D0B34FB84206D1B1
:104F90004FF6FF57394046F48077394305E04FF22A
:104FA000FF57394044F48077394382830184F0BD50
:104FB000028B4FF2FF331A400283028B4FF6FF73CE
:104FC00003EA01231A4302837047F0B50C461546E5
:104FD000002200210026078C4FF6EF7C07EA0C0721
:104FE0000784028B018C4FF6FF7707EA041640F620
:104FF000FF473A404FF6FF7707EA03373A434FF649
:10500000FF7707EA05273A438F4FB8420ED08F4FFC
:10501000B8420BD0B0F1804F08D08D4FB84205D0C8
:105020008C4FB84202D08C4FB84206D14FF6DF7792
:10503000394046F01007394305E04FF65F773940B5
:1050400044F01007394302830184F0BD028B4FF610
:10505000F3731A400283028B0A4302837047F0B550
:105060000C46154600220021068C4FF6FE773E4086
:105070000684028B018C4FF60C7632407E1C06EAC9
:1050800003162E433243704EB0420ED06F4EB042E4
:105090000BD0B0F1804F08D06D4EB04205D06D4EB0
:1050A000B04202D06C4EB04206D14FF6FD76314090
:1050B00044F00106314305E04FF6F576314044F007
:1050C0000106314302830184F0BD70B505460C46EC
:1050D0005D4885420ED05D4885420BD0B5F1804FCA
:1050E00008D05B48854205D05A48854202D05A48CC
:1050F000854200D100E000BF208850B92389A288F2
:1051000061882846FFF7ABFFE1882846FFF79EFF3E
:1051100025E0208804280AD12389A28861882846AE
:10512000FFF753FFE1882846FFF742FF17E020888A
:1051300008280AD12389A28861882846FFF7FBFE48
:10514000E1882846FFF7EEFE09E02389A2886188FE
:105150002846FFF7A6FEE1882846FFF795FE70BDBA
:105160002DE9F04105460C4600260127608808B964
:10517000022600E00026A088012801D1022700E0D5
:1051800001272088A0B92389A28861882846FFF7D3
:1051900066FFE1882846FFF759FF23893A463146E2
:1051A0002846FFF712FFE1882846FFF701FF13E0CA
:1051B0002389A28861882846FFF707FFE1882846EF
:1051C000FFF7F6FE23893A4631462846FFF747FFA8
:1051D000E1882846FFF73AFFBDE8F0810A884B884E
:1051E0001A438B881A43CB881A430B891A434B897D
:1051F0001A438B891A43A0F8442070474FF6FF7179
:10520000818000210180C1804180017270470021AE
:10521000018041808180C180018141818181C18182
:105220007047002101804180012181800021C180DF
:10523000018170470021018041808180C18001810E
:105240004181818170470000002C01400034014001
:105250000004004000080040000C004021B102881A
:1052600042F00102028004E002884FF6FE731A4009
:105270000280704731B1B0F8442042F40042A0F8F7
:10528000442005E0B0F84420C2F30E02A0F8442008
:1052900070471AB183890B43838102E083898B4372
:1052A000838170478182704741EA0203A0F8483049
:1052B00070471AB183890B43838102E083898B4352
:1052C0008381704701894FF6F87211400181704760
:1052D0000A46002101894FF68F731940114301815D
:1052E000704730B504460D4629462046FFF7F0FFCB
:1052F000208940F00700208130BD2DE9F0410446AF
:105300000D4616461F46602D06D13B46012231460A
:105310002046FFF75AFE05E03B4601223146204673
:10532000FFF79DFE29462046FFF7D2FF208940F077
:1053300007002081BDE8F08130B50C4600210189CD
:10534000C9B24FF6FF7505EA0325154325432943E6
:10535000018130BD2DE9F04105460E4617469846BD
:10536000002443463A4631462846FFF7E5FF2C899C
:105370004FF6F870044044F007044FF68F70044075
:1053800044F070042C81BDE8F081F0B504460D4670
:1053900016461F463B46324629462046FFF7CCFFBD
:1053A000208940F480402081F0BD018582827047D1
:1053B0000A46002101884FF68F731940114301807E
:1053C0007047F0B50C4615461E460021002200230A
:1053D0000189028B038C4FF6F877394021434FF651
:1053E000FC473A4040F201173A434FF6DD773B4025
:1053F0004FF6FF7707EA06172F433B4301810283ED
:105400000384F0BD0A460021018B4FF68F731940CB
:105410001143018370470A460021018B48F6FF7350
:1054200019404FF6FF7303EA0223194301837047C3
:105430000A460021818B4FF68F73194011438183F7
:1054400070470A460021818B48F6FF7319404FF6DA
:10545000FF7303EA022319438183704721B1028855
:1054600042F08002028004E002884FF67F731A4007
:105470000280704721B1828842F00402828004E0F9
:1054800082884FF6FB731A408280704721B1828870
:1054900042F00802828004E082884FF6F7731A40D7
:1054A0008280704721B1828842F00102828004E04C
:1054B00082884FF6FE731A40828070470A460021A8
:1054C000018B4FF6F77319401143018370470A4669
:1054D0000021018B4FF2FF7319404FF6FF7303EA6F
:1054E00002231943018370470A460021818B4FF63E
:1054F000F77319401143818370470A460021818B5D
:105500004FF2FF7319404FF6FF7303EA022319436A
:10551000818370470A460021018B4FF6FB731940C7
:105520001143018370470A460021018B4FF6FF3378
:1055300019404FF6FF7303EA0223194301837047B2
:105540000A460021818B4FF6FB731940114381837A
:1055500070470A460021818B4FF6FF3319404FF602
:10556000FF7303EA02231943818370470A4600212F
:10557000018B4FF67F7319401143018370470A4630
:105580000021018BC1F30E014FF6FF7303EA0223E2
:105590001943018370470A460021818B4FF67F73C0
:1055A00019401143818370470A460021818BC1F362
:1055B0000E014FF6FF7303EA0223194381837047FC
:1055C0000A460021018C4FF6FD73194011430184F6
:1055D00070470A460021018C4FF6F77319401143BA
:1055E000018470470A460021018C4FF6DF73194091
:1055F0004FF6FF7303EA02131943018470470A460A
:105600000021018C4FF67F7319404FF6FF7303EAB8
:1056100002131943018470470A460021018C4FF69A
:10562000FF5319404FF6FF7303EA02231943018425
:1056300070470A460021018C4FF2FF7319404FF664
:10564000FF7303EA02231943018470470A460021CD
:10565000018C4DF6FF7319404FF6FF7303EA0233D6
:1056600019430184704730B5002301248C40A3B254
:10567000048C9C430484048C02FA01F5ADB22C43E3
:10568000048430BD30B5002304248C40A3B2048CC4
:105690009C430484048C02FA01F5ADB22C430484CB
:1056A00030BD70B50346002000241846183001258F
:1056B0008D40ACB21D8CA5431D8409B1082909D1C8
:1056C00000EB6100056825F070050560056815436D
:1056D00005600EE00D1FC5F34E052844056825F44E
:1056E000E045056005684FF6FF7606EA0226354379
:1056F000056070BD21B1028842F00202028004E020
:1057000002884FF6FD731A400280704721B102886B
:1057100042F00402028004E002884FF6FB731A4054
:105720000280704721B1828842F08002828004E0CA
:1057300082884FF67F731A408280704702884FF646
:10574000F7731A40028002880A43028070478288F9
:105750004FF68F731A40828082880A438280704796
:1057600002894FF6F8731A40028102890A430281C6
:10577000704702894FF67F731A40028102890A43FB
:1057800002817047818470478185704781867047A8
:105790000187704781877047A0F8401070470288E2
:1057A0004FF6FF431A40028002880A430280704786
:1057B0000146888E70470146088F70470146888FE2
:1057C00070470146B1F8400070470146888C704729
:1057D0000146088D704702460020138A0B400BB12A
:1057E000012000E000207047CA430282704730B5B4
:1057F0000246002000230024158A05EA010395894A
:1058000005EA010413B10CB1012000E0002030BD15
:10581000CA43028270470000002044490860091D05
:105820000860091D0860091D086041483F4914319E
:105830000860704700213D498279002A3AD00A4623
:10584000126803689A430B461A600A1D12680368BF
:105850009A430B1D1A60027911440A6803681A43BF
:105860000A60324A0832126803689A432F4B0833A1
:105870001A601A1D126803689A432C4B0C331A6085
:105880004279102A0ED11A1F126803681A43274B57
:1058900008331A601A1D126803681A43234B0C332D
:1058A0001A600DE02149427911440A6803681A43DD
:1058B0000A6005E0027911440A6803689A430A60A5
:1058C00070470021016001710C214171002181713B
:1058D00070471649103109680143144A10321160AB
:1058E000704701460020114A143212680A400AB17A
:1058F000012000E0002070470C4914310860704717
:10590000014600200022094B1B6803EA0102074BF5
:1059100014331B680B4013B10AB1012000E00020D2
:1059200070470249143108607047000000040140CC
:10593000FFFF0F0001460020FE4A106800F038000B
:10594000084310607047FB49096821F00801F94AD3
:10595000116011460968014311607047F5490968F3
:1059600021F01001F34A11601146096801431160EA
:105970007047F148EF494860F04848607047EE488A
:10598000EC494860ED4848607047EA48006940F0DB
:105990008000E84908617047E648006940F08000EF
:1059A000E449086170470420E249C96801F0010137
:1059B00009B101200EE0DF49C96801F0040109B115
:1059C000022007E0DB49C96801F0100109B103209A
:1059D00000E00420704700B502460423FFF7E3FF10
:1059E000034603E0FFF7DFFF0346521E012B01D100
:1059F000002AF7D102B90523184600BD30B5044688
:105A000004254FF43020FFF7E6FF0546042D17D19B
:105A1000C848006940F00200C64908610846446170
:105A2000006940F0400008614FF43020FFF7D3FFD9
:105A30000546C048006941F6FD710840BD4908614E
:105A4000284630BD10B504244FF43020FFF7C3FFC3
:105A50000446042C16D1B748006940F00400B5494B
:105A600008610846006940F0400008614FF43020AA
:105A7000FFF7B1FF0446AF48006941F6FB710840EB
:105A8000AC490861204610BD00B502460423FFF76B
:105A90008AFF034603E0FFF786FF0346521E012BF1
:105AA00001D1002AF7D102B90523184600BD10B56F
:105AB00004244FF43020FFF7E7FF0446042C16D1EE
:105AC0009C48006940F004009A4908610846006952
:105AD00040F0400008614FF43020FFF7D5FF044646
