:020000040800F2
:10000000B0050020C525000845010008470100088B
:10001000490100084B0100084D01000800000000E4
:100020000000000000000000000000004F01000878
:1000300051010008000000005301000855010008AC
:10004000DF250008DF250008DF250008DF25000880
:10005000DF250008DF250008DF250008DF25000870
:10006000DF250008DF250008DF250008DF25000860
:10007000DF250008DF250008DF250008DF25000850
:10008000DF250008DF250008DF250008DF25000840
:10009000DF250008DF250008DF2500080704000829
:1000A000DF250008DF250008DF250008DF25000820
:1000B000DF25000845040008DF250008DF250008CB
:1000C000DF250008DF250008DF250008DF25000800
:1000D000DF2500080D050008DF250008DF250008E2
:1000E000DF250008DF250008DF250008DF250008E0
:1000F000DF250008DF250008DF250008DF250008D0
:10010000DF250008DF250008DF250008DF250008BF
:10011000DF250008DF250008DF250008DF250008AF
:10012000DF250008DF250008DF250008DF2500089F
:10013000DFF80CD004F0B8F800480047AD02000822
:10014000B00500207047FEE7FEE7FEE7FEE77047D8
:1001500070477047704700000CB500214B48019173
:100160000091026842F4803202604FF4A06302689A
:1001700002F400320092019A521C0192009A12B9C4
:10018000019A9A42F3D10268920333D5012100917A
:100190003F490A6842F010020A600A6822F003022E
:1001A0000A600A6842F002020A60416841604168E0
:1001B0004160416841F480614160416821F47C11F3
:1001C0004160416841F4E8114160016841F080718B
:1001D000016001688901FCD5416821F0030141609B
:1001E000416841F0020141604168C1F38101022987
:1001F000FAD10CBD00910CBD244810B5016841F046
:10020000010101604168234A114041600168224AAE
:1002100011400160016821F480210160416821F4EE
:10022000FE0141604FF41F018160FFF795FF1B49FC
:100230004FF00060086010BD144910B54868184AB6
:1002400010F00C03174803D0042B01D0082B0AD060
:1002500002604968134AC1F30311121D515C026820
:10026000CA40026010BD4A684B6802F470124FF039
:10027000020413F4803F04EB924202D04B689B03CC
:1002800001D5094B00E0064B5A43E1E7001002405C
:10029000002002400000FFF8FFFFF6FE08ED00E03E
:1002A00000127A000000002000093D0002F01EF854
:1002B0004FF4A06002F098F901F049FF01F05AFFF5
:1002C000FCE7000010B50121084602F0BAFD01214B
:1002D000082002F0B6FD0121402002F0B2FD01210C
:1002E000042002F0B7FD0121BDE81040022002F019
:1002F000B1BD0146724802F09BB870B5FFF7E2FF4E
:100300006F4824226F49303803F0D8FB6C486D49A0
:100310000C3814222431054603F0D0FB69486849A3
:10032000383008311CC81CC11CC81CC11DC81DC1E7
:100330004FF47A744C80A1F1600002F0B5F8604887
:10034000243802F08FF85E48183802F0FFF828468B
:1003500002F0AAF85A4802F015F85948083002F09D
:10036000A3F85748143002F09FF85648603002F066
:100370009BF854486C3002F097F82046BDE8704076
:10038000B7E74F4810B53038B0F84610806C02F02F
:1003900048FA4B4802F044F84948BDE81040183884
:1003A00002F0FFB8464810B53038B0F84610806CFF
:1003B00002F039FA424802F037F84148BDE81040EF
:1003C000183802F0F2B842F21071081A81B23C48B3
:1003D00002F02EB83A483038418FC06B02F023BA91
:1003E00037483038418FC06B02F01BBA344810B523
:1003F0003038418FC06B02F016FABDE81040002182
:100400002F4802F015B870B52D481838054602F08F
:10041000D4F82B4C40F25372303C218C514300EB0A
:1004200041112948B0FBF1F0A4F8600000F01EF87B
:1004300000202084284602F0BCF8BDE8704020204F
:1004400003F034BB10B5214C0121204603F0B3FA70
:1004500000280AD01A4A2046303A118C491C1184CF
:10046000BDE81040012103F0B2BA10BD144830B409
:100470003038B0F86210B0F86020891A09B2A0F8DC
:10048000581030F8502F0A4412B20280B0F90230EE
:10049000B0F904404B4304FB0232B0F90A30B0F922
:1004A0000640CB1A04FB0322C26041814FF47A70EC
:1004B00092FBF0F000F57A7030BC80B219E70000D2
:1004C0001001002014000020008793030004004066
:1004D00010B50121084602F0B4FC012144F20400E9
:1004E00002F0AFFCFE4801F0DFFFFD480C3001F0E8
:1004F000DBFFFB48BDE81040183001F0F2BFF849BF
:1005000089690A885206FCD58880704710B5F54C79
:1005100040F22551204602F059FB002807D0204622
:1005200002F0EDFABDE81040C0B201F003BD10BD0D
:1005300040F2E63204E01146491E0029FCDC401E70
:100540000028F8DC704700B5034602E0FFF7D7FF4C
:100550005B1C18780028F9D100BD30B50C46054663
:10056000002304E0E85CFFF7CAFF5B1C9BB2A342D8
:10057000F8D330BD30B50D46044600230BE000BF74
:1005800034F81300000AFFF7BAFF14F81300FFF75E
:10059000B6FF5B1C9BB2AB42F2D330BD00B5EE2080
:1005A000FFF7ADFF0020FFF7AAFFFF20FFF7A7FF2F
:1005B000FC20FFF7A4FFFF20FFF7A1FFFF205DF85D
:1005C00004EB9CE700B50346EE20FFF798FF4120BF
:1005D000FFF795FF180AFFF792FFD8B2FFF78FFFDA
:1005E000FF20FFF78CFFFC20FFF789FFFF20FFF7BC
:1005F00086FFFF205DF804EB81E700B50346EE209F
:10060000FFF77DFF4220FFF77AFF180AFFF777FF19
:10061000D8B2FFF774FFFF20FFF771FFFC20FFF750
:100620006EFFFF20FFF76BFFFF205DF804EB66E72E
:1006300030B5054613460C46EE20FFF760FFA320B9
:10064000FFF75DFF2846FFF75AFF200AFFF757FF25
:10065000E0B2FFF754FF180AFFF751FFD8B2FFF7D7
:100660004EFFFF20FFF74BFFFC20FFF748FFFF2066
:10067000FFF745FFBDE83040FF2040E700B5EE2022
:10068000FFF73DFF0120FFF73AFFFF20FFF737FF9D
:10069000FC20FFF734FFFF20FFF731FFFF205DF85C
:1006A00004EB2CE710B503460C46EE20FFF727FFBE
:1006B0004320FFF724FF1846FFF721FF2046FFF7EE
:1006C0001EFFFF20FFF71BFFFC20FFF718FFFF2096
:1006D000FFF715FFBDE81040FF2010E730B50546D5
:1006E00013460C46EE20FFF70AFF4520FFF707FFF1
:1006F0002846FFF704FF200AFFF701FFE0B2FFF7EB
:10070000FEFE180AFFF7FBFED8B2FFF7F8FEFF2047
:10071000FFF7F5FEFC20FFF7F2FEFF20FFF7EFFEEC
:10072000BDE83040FF20EAE610B504460B46EE2057
:10073000FFF7E5FE4420FFF7E2FE200AFFF7DFFEA9
:10074000E0B2FFF7DCFE180AFFF7D9FED8B2FFF7D8
:10075000D6FEFF20FFF7D3FEFC20FFF7D0FEFF20E0
:10076000FFF7CDFEBDE81040FF20C8E6F0B5054616
:1007700017460C46EE20059EFFF7C1FE2020FFF72E
:10078000BEFE280AFFF7BBFEE8B2FFF7B8FE200A5C
:10079000FFF7B5FEE0B2FFF7B2FE3846FFF7AFFE57
:1007A0001846FFF7ACFE3046FFF7CDFEFF20FFF7FF
:1007B000A6FEFC20FFF7A3FEFF20FFF7A0FEBDE88A
:1007C000F040FF209BE6F0B5074614460D46EE20AC
:1007D000059EFFF794FE2120FFF791FE3846FFF7B4
:1007E0008EFE280AFFF78BFEE8B2FFF788FE200A8C
:1007F000FFF785FEE0B2FFF782FE1846FFF77FFEA7
:100800003046FFF77CFEFF20FFF779FEFC20FFF764
:1008100076FEFF20FFF773FEBDE8F040FF206EE696
:1008200010B503460C46EE20FFF769FE3120FFF7B6
:1008300066FE180AFFF763FED8B2FFF760FE204697
:10084000FFF75DFEFF20FFF75AFEFC20FFF757FE83
:10085000FF20FFF754FEBDE81040FF204FE670B5C3
:10086000064614460D46EE20FFF749FE3220FFF7FC
:1008700046FE300AFFF743FEF0B2FFF740FE280ABB
:10088000FFF73DFEE8B2FFF73AFE200AFFF737FE1A
:10089000E0B2FFF734FE1846FFF731FEFF20FFF706
:1008A0002EFEFC20FFF72BFEFF20FFF728FEBDE801
:1008B0007040FF2023E62DE9F0430646DDE9088776
:1008C00014460D46EE20DDF81CC0DDF82890FFF739
:1008D00016FE3320FFF713FE300AFFF710FE03E089
:1008E0008C00002000380140F0B2FFF708FE280A13
:1008F000FFF705FEE8B2FFF702FE200AFFF7FFFD53
:10090000E0B2FFF7FCFD180AFFF7F9FDD8B2FFF7D8
:10091000F6FD4FEA1C20FFF7F2FD0CF0FF00FFF799
:10092000EEFD4FEA1820FFF7EAFD08F0FF00FFF7A1
:10093000E6FD380AFFF7E3FDF8B2FFF7E0FD4846B1
:10094000FFF7DDFDFF20FFF7DAFDFC20FFF7D7FD05
:10095000FF20FFF7D4FDBDE8F043FF20CFE5F0B561
:10096000064614460D46EE20059FFFF7C8FD802081
:10097000FFF7C5FD300AFFF7C2FDF0B2FFF7BFFD7C
:10098000280AFFF7BCFDE8B2FFF7B9FD200AFFF720
:10099000B6FDE0B2FFF7B3FD1846FFF7B0FD3846ED
:1009A000FFF7ADFDFF20FFF7AAFDFC20FFF7A7FD35
:1009B000FF20FFF7A4FDBDE8F040FF209FE510B544
:1009C00004460B46EE20FFF79AFD5020FFF797FDF7
:1009D000200AFFF794FDE0B2FFF791FD180AFFF738
:1009E0008EFDD8B2FFF78BFDFF20FFF788FDFC20BE
:1009F000FFF785FDFF20FFF782FDBDE81040FF20D7
:100A00007DE570B5064614460D46EE20FFF777FDEE
:100A10005120FFF774FD300AFFF771FDF0B2FFF7C8
:100A20006EFD280AFFF76BFDE8B2FFF768FD200AAC
:100A3000FFF765FDE0B2FFF762FD180AFFF75FFD03
:100A4000D8B2FFF75CFDFF20FFF759FDFC20FFF750
:100A500056FDFF20FFF753FDBDE87040FF204EE537
:100A600030B5044613460D46EE20FFF748FD6320DF
:100A7000FFF745FD2046FFF742FD4FF6FF7000EA05
:100A800043012846FFF776FDFF20FFF738FDFC20E5
:100A9000FFF735FDFF20FFF732FDBDE83040FF20B6
:100AA0002DE570B5054616460C46EE20FFF727FDEE
:100AB0005920FFF724FD280AFFF721FDE8B2FFF7D0
:100AC0001EFD200AFFF71BFDE0B2FFF718FD1946D7
:100AD0003046FFF74FFDFF20FFF711FDFC20FFF729
:100AE0000EFDFF20FFF70BFDBDE87040FF2006E57F
:100AF00070B5054616460C46EE20FFF700FD752042
:100B0000FFF7FDFC280AFFF7FAFCE8B2FFF7F7FC55
:100B1000200AFFF7F4FCE0B2FFF7F1FC194630467B
:100B2000FFF728FDFF20FFF7EAFCFC20FFF7E7FCBA
:100B3000FF20FFF7E4FCBDE87040FF20DFE470B564
:100B4000054616460C46EE20FFF7D9FC7620FFF747
:100B5000D6FC280AFFF7D3FCE8B2FFF7D0FC200A46
:100B6000FFF7CDFCE0B2FFF7CAFC19463046FFF7AD
:100B700001FDFF20FFF7C3FCFC20FFF7C0FCFF20B6
:100B8000FFF7BDFCBDE87040FF20B8E470B5044637
:100B900015460E46EE20FFF7B2FC7720FFF7AFFCBC
:100BA0002046FFF7ACFC3046FFF7A9FC2846FFF7CC
:100BB000A6FC1846FFF7A3FCFF20FFF7A0FCFC20D3
:100BC000FFF79DFCFF20FFF79AFCBDE87040FF2077
:100BD00095E410B504460B46EE20FFF790FC682024
:100BE000FFF78DFC4FF6FF7000EA43012046FFF748
:100BF000C1FCFF20FFF783FCFC20FFF780FCFF20F7
:100C0000FFF77DFCBDE81040FF2078E410B50446F6
:100C10000B46EE20FFF773FC6920FFF770FC4FF6E0
:100C2000FF7000EA43012046FFF7A4FCFF20FFF716
:100C300066FCFC20FFF763FCFF20FFF760FCBDE8CB
:100C40001040FF205BE430B5054613460C46EE200D
:100C5000FFF755FC5220FFF752FC280AFFF74FFC24
:100C6000E8B2FFF74CFC200AFFF749FCE0B2FFF7BF
:100C700046FC180AFFF743FCD8B2FFF740FCFF2000
:100C8000FFF73DFCFC20FFF73AFCFF20FFF737FCA5
:100C9000BDE83040FF2032E430B5054613460C462F
:100CA000EE20FFF72CFC5320FFF729FC280AFFF762
:100CB00026FCE8B2FFF723FC200AFFF720FCE0B295
:100CC000FFF71DFC180AFFF71AFCD8B2FFF717FC54
:100CD000FF20FFF714FCFC20FFF711FCFF20FFF7BB
:100CE0000EFCBDE83040FF2009E4F0B5064614468E
:100CF0000D46EE20059FFFF702FC6720FFF7FFFB84
:100D0000300AFFF7FCFBF0B2FFF7F9FB280AFFF708
:100D1000F6FBE8B2FFF7F3FB200AFFF7F0FBE0B2C7
:100D2000FFF7EDFB180AFFF7EAFBD8B2FFF7E7FB86
:100D3000380AFFF7E4FBF8B2FFF7E1FBFF20FFF70B
:100D4000DEFBFC20FFF7DBFBFF20FFF7D8FBBDE855
:100D5000F040FF20FFF7D3BB70B5064614460D46A2
:100D6000EE20FFF7CCFB5420FFF7C9FB300AFFF75A
:100D7000C6FBF0B2FFF7C3FB280AFFF7C0FBE8B2DF
:100D8000FFF7BDFB200AFFF7BAFBE0B2FFF7B7FBA6
:100D9000180AFFF7B4FBD8B2FFF7B1FBFF20FFF74B
:100DA000AEFBFC20FFF7ABFBFF20FFF7A8FBBDE885
:100DB0007040FF20FFF7A3BB70B5064614460D46F2
:100DC000EE20FFF79CFB5520FFF799FB300AFFF759
:100DD00096FBF0B2FFF793FB280AFFF790FBE8B20F
:100DE000FFF78DFB200AFFF78AFBE0B2FFF787FBD6
:100DF000180AFFF784FBD8B2FFF781FBFF20FFF74B
:100E00007EFBFC20FFF77BFBFF20FFF778FBBDE8B4
:100E10007040FF20FFF773BB70B5064614460D46C1
:100E2000EE20FFF76CFB5620FFF769FB300AFFF757
:100E300066FBF0B2FFF763FB280AFFF760FBE8B23E
:100E4000FFF75DFB200AFFF75AFBE0B2FFF757FB05
:100E5000180AFFF754FBD8B2FFF751FBFF20FFF74A
:100E60004EFBFC20FFF74BFBFF20FFF748FBBDE8E4
:100E70007040FF20FFF743BB70B5064614460D4691
:100E8000EE20FFF73CFB5720FFF739FB300AFFF756
:100E900036FBF0B2FFF733FB280AFFF730FBE8B26E
:100EA000FFF72DFB200AFFF72AFBE0B2FFF727FB35
:100EB000180AFFF724FBD8B2FFF721FBFF20FFF74A
:100EC0001EFBFC20FFF71BFBFF20FFF718FBBDE814
:100ED0007040FF20FFF713BB00B50346EE20FFF77D
:100EE0000EFB6020FFF70BFB1846FFF708FBFF2007
:100EF000FFF705FBFC20FFF702FBFF20FFF7FFFADF
:100F0000FF205DF804EBFFF7FABA00B50346EE20C8
:100F1000FFF7F5FA6120FFF7F2FA1846FFF7EFFA4C
:100F2000FF20FFF7ECFAFC20FFF7E9FAFF20FFF7BC
:100F3000E6FAFF205DF804EBFFF7E1BA70B506466C
:100F400014460D46EE20FFF7DAFA6520FFF7D7FAD0
:100F5000300AFFF7D4FAF0B2FFF7D1FA280AFFF708
:100F6000CEFAE8B2FFF7CBFA200AFFF7C8FAE0B2F0
:100F7000FFF7C5FA180AFFF7C2FAD8B2FFF7BFFAAF
:100F8000FF20FFF7BCFAFC20FFF7B9FAFF20FFF7BC
:100F9000B6FABDE87040FF20FFF7B1BA10B50024E3
:100FA00000B1012409B144F0020412B144EA820004
:100FB000C4B213B144EA4310C4B2EE20FFF79FFA63
:100FC0007020FFF79CFA2046FFF799FAFF20FFF701
:100FD00096FAFC20FFF793FAFF20FFF790FABDE89E
:100FE0001040FF20FFF78BBA00B5EE20FFF787FA1D
:100FF0007220FFF784FAFF20FFF781FAFC20FFF749
:101000007EFAFF20FFF77BFAFF205DF804EBFFF785
:1010100076BA00B5EE20FFF772FA7320FFF76FFA89
:10102000FF20FFF76CFAFC20FFF769FAFF20FFF7BB
:1010300066FAFF205DF804EBFFF761BA00B5EE2019
:10104000FFF75DFA0920FFF75AFADE20FFF757FA9B
:10105000ED20FFF754FA1320FFF751FA3120FFF784
:101060004EFAFF20FFF74BFAFC20FFF748FAFF206B
:10107000FFF745FAFF205DF804EBFFF740BA00B533
:10108000EE20FFF73CFA0820FFF739FAA520FFF71A
:1010900036FA5A20FFF733FA5F20FFF730FAF520CF
:1010A000FFF72DFAFF20FFF72AFAFC20FFF727FAB7
:1010B000FF20FFF724FAFF205DF804EBFFF71FBACB
:1010C00000B50346EE20FFF71AFAA020FFF717FA43
:1010D0001846FFF714FAFF20FFF711FAFC20FFF77C
:1010E0000EFAFF20FFF70BFAFF205DF804EBFFF785
:1010F00006BA00B50346EE20FFF701FAA120FFF77C
:10110000FEF91846FFF7FBF9FF20FFF7F8F9FC207E
:10111000FFF7F5F9FF20FFF7F2F9FF205DF804EB88
:10112000FFF7EDB900B50346EE20FFF7E8F9A2207E
:10113000FFF7E5F91846FFF7E2F9FF20FFF7DFF9BF
:10114000FC20FFF7DCF9FF20FFF7D9F9FF205DF85D
:1011500004EBFFF7D4B910B503460C46EE20FFF7B9
:10116000CEF9A420FFF7CBF91846FFF7C8F92046BF
:10117000FFF7C5F9FF20FFF7C2F9FC20FFF7BFF921
:10118000FF20FFF7BCF9BDE81040FF20FFF7B7B91B
:1011900000B50346EE20FFF7B2F90520FFF7AFF9DF
:1011A0001846FFF7ACF9FF20FFF7A9F9FC20FFF77D
:1011B000A6F9FF20FFF7A3F9FF205DF804EBFFF786
:1011C0009EB9F0B50646DDE9055417468C46EE207B
:1011D000FFF795F98520FFF792F93046FFF78FF971
:1011E0006046FFF78CF93846FFF789F9180AFFF7D0
:1011F00086F9D8B2FFF783F9280AFFF780F9E8B239
:10120000FFF77DF9200AFFF77AF9E0B2FFF777F9E7
:10121000FF20FFF774F9FC20FFF771F9FF20FFF7BB
:101220006EF9BDE8F040FF20FFF769B930B503461D
:1012300015460C46EE20FFF762F98720FFF75FF9AD
:10124000180EFFF75CF9C3F30740FFF758F9C3F333
:101250000720FFF754F9D8B2FFF751F92146284685
:10126000FFF77BF9FF20FFF74AF9FC20FFF747F96A
:10127000FF20FFF744F9BDE83040FF20FFF73FB9FA
:1012800010B503460C46EE20FFF739F98820FFF72A
:1012900036F9180EFFF733F9C3F30740FFF72FF9BC
:1012A000C3F30720FFF72BF9D8B2FFF728F9200A7C
:1012B000FFF725F9E0B2FFF722F9FF20FFF71FF94A
:1012C000FC20FFF71CF9FF20FFF719F9BDE81040DB
:1012D000FF20FFF714B900B5EE20FFF710F9B12099
:1012E000FFF70DF90120FFF70AF9FF20FFF707F9D3
:1012F000FC20FFF704F9FF20FFF701F9FF205DF85C
:1013000004EBFFF7FCB800B50346EE20FFF7F7F853
:10131000B120FFF7F4F80020FFF7F1F8180AFFF703
:10132000EEF8D8B2FFF7EBF8FF20FFF7E8F8FC2063
:10133000FFF7E5F8FF20FFF7E2F8FF205DF804EB88
:10134000FFF7DDB800B50346EE20FFF7D8F8B3206D
:10135000FFF7D5F81846FFF7D2F8FF20FFF7CFF8D0
:10136000FC20FFF7CCF8FF20FFF7C9F8FF205DF85D
:1013700004EBFFF7C4B830B5044615460B46EE2023
:10138000FFF7BDF8B120FFF7BAF80220FFF7B7F872
:10139000200AFFF7B4F8E0B2FFF7B1F8180AFFF738
:1013A000AEF8D8B2FFF7ABF82846FFF7A8F8FF2051
:1013B000FFF7A5F8FC20FFF7A2F8FF20FFF79FF842
:1013C000BDE83040FF20FFF79AB830B50446154617
:1013D0000B46EE20FFF793F8B120FFF790F80320BB
:1013E000FFF78DF8200AFFF78AF8E0B2FFF787F8D9
:1013F000180AFFF784F8D8B2FFF781F82846FFF7FC
:101400007EF8FF20FFF77BF8FC20FFF778F8FF203D
:10141000FFF775F8BDE83040FF20FFF770B830B532
:10142000044615460B46EE20FFF769F8B120FFF79A
:1014300066F80420FFF763F8200AFFF760F8E0B2CF
:10144000FFF75DF8180AFFF75AF8D8B2FFF757F818
:101450002846FFF754F8FF20FFF751F8FC20FFF76C
:101460004EF8FF20FFF74BF8BDE83040FF20FFF7B4
:1014700046B830B5044615460B46EE20FFF73FF858
:10148000B120FFF73CF81020FFF739F8200AFFF7EA
:1014900036F8E0B2FFF733F8180AFFF730F8D8B2A1
:1014A000FFF72DF82846FFF72AF8FF20FFF727F867
:1014B000FC20FFF724F8FF20FFF721F8BDE83040BB
:1014C000FF20FFF71CB830B5044615460B46EE204A
:1014D000FFF715F8B120FFF712F81020FFF70FF80B
:1014E000200AFFF70CF8E0B2FFF709F8180AFFF737
:1014F00006F8D8B2FFF703F82846FFF724F8FF20D4
:10150000FEF7FDFFFC20FEF7FAFFFF20FEF7F7FFD6
:10151000BDE83040FF20FEF7F2BF30B50546134668
:101520000C46EE20FEF7EBFFB120FEF7E8FF10209F
:10153000FEF7E5FF280AFEF7E2FFE8B2FEF7DFFF5D
:10154000200AFEF7DCFFE0B2FEF7D9FF180EFEF727
:10155000D6FFC3F30740FEF7D2FFC3F30720FEF721
:10156000CEFFD8B2FEF7CBFFFF20FEF7C8FFFC206E
:10157000FEF7C5FFFF20FEF7C2FFBDE83040FF20A9
:10158000FEF7BDBF30B5054613460C46EE20FEF70C
:10159000B6FFB120FEF7B3FF1020FEF7B0FF280A18
:1015A000FEF7ADFFE8B2FEF7AAFF200AFEF7A7FF9D
:1015B000E0B2FEF7A4FF180EFEF7A1FFC3F3074049
:1015C000FEF79DFFC3F30720FEF799FFD8B2FEF7A1
:1015D00096FFFF20FEF793FFFC20FEF790FFFF2011
:1015E000FEF78DFFBDE83040FF20FEF788BF30B525
:1015F000054613460C46EE20FEF781FFB120FEF7AC
:101600007EFF1020FEF77BFF280AFEF778FFE8B286
:10161000FEF775FF200AFEF772FFE0B2FEF76FFFDC
:10162000180EFEF76CFFC3F30740FEF768FFC3F325
:101630000720FEF764FFD8B2FEF761FFFF20FEF738
:101640005EFFFC20FEF75BFFFF20FEF758FFBDE8C2
:101650003040FF20FEF753BF30B5044615460B4619
:10166000EE20FEF74CFFB120FEF749FF1020FEF7F9
:1016700046FF200AFEF743FFE0B2FEF740FF180ADC
:10168000FEF73DFFD8B2FEF73AFF2846FEF737FFD8
:10169000FF20FEF734FFFC20FEF731FFFF20FEF7AE
:1016A0002EFFBDE83040FF20FEF729BF10B50446ED
:1016B0000B46EE20FEF723FFB120FEF720FF11209E
:1016C000FEF71DFF200AFEF71AFFE0B2FEF717FF34
:1016D000180AFEF714FFD8B2FEF711FFFF20FEF73D
:1016E0000EFFFC20FEF70BFFFF20FEF708FFBDE812
:1016F0001040FF20FEF703BF10B504460B46EE2056
:10170000FEF7FDFEB120FEF7FAFE2020FEF7F7FE01
:10171000200AFEF7F4FEE0B2FEF7F1FE180AFEF72B
:10172000EEFED8B2FEF7EBFEFF20FEF7E8FEFC204F
:10173000FEF7E5FEFF20FEF7E2FEBDE81040FF20C9
:10174000FEF7DDBE10B504460B46EE20FEF7D7FED1
:10175000B120FEF7D4FE2120FEF7D1FE200AFEF7CD
:10176000CEFEE0B2FEF7CBFE180AFEF7C8FED8B2F6
:10177000FEF7C5FEFF20FEF7C2FEFC20FEF7BFFE0F
:10178000FF20FEF7BCFEBDE81040FF20FEF7B7BE0D
:1017900010B504460B46EE20FEF7B1FEB120FEF771
:1017A000AEFE2220FEF7ABFE200AFEF7A8FEE0B256
:1017B000FEF7A5FE180AFEF7A2FED8B2FEF79FFEBE
:1017C000FF20FEF79CFEFC20FEF799FEFF20FEF7AF
:1017D00096FEBDE81040FF20FEF791BE30B50446EE
:1017E00015460B46EE20FEF78AFEB120FEF787FE77
:1017F0002320FEF784FE200AFEF781FEE0B2FEF70A
:101800007EFE180AFEF77BFED8B2FEF778FE284669
:10181000FEF775FEFF20FEF772FEFC20FEF76FFE5E
:10182000FF20FEF76CFEBDE83040FF20FEF767BEEC
:1018300010B504460B46EE20FEF761FEB120FEF720
:101840005EFE2420FEF75BFE200AFEF758FEE0B2A3
:10185000FEF755FE180AFEF752FED8B2FEF74FFE0D
:10186000FF20FEF74CFEFC20FEF749FEFF20FEF7AE
:1018700046FEBDE81040FF20FEF741BE10B504460D
:101880000B46EE20FEF73BFEB120FEF738FE25208A
:10189000FEF735FE200AFEF732FEE0B2FEF72FFE1D
:1018A000180AFEF72CFED8B2FEF729FEFF20FEF73D
:1018B00026FEFC20FEF723FEFF20FEF720FEBDE8FB
:1018C0001040FF20FEF71BBE70B5054616460C46BD
:1018D000EE20FEF714FEB120FEF711FE3020FEF7D9
:1018E0000EFE280AFEF70BFEE8B2FEF708FE200AFD
:1018F000FEF705FEE0B2FEF702FE3046FEF7FFFD02
:10190000180AFEF7FCFDD8B2FEF7F9FDFF20FEF73E
:10191000F6FDFC20FEF7F3FDFF20FEF7F0FDBDE82D
:101920007040FF20FEF7EBBD30B5044615460B4670
:10193000EE20FEF7E4FDB120FEF7E1FD3120FEF7D9
:10194000DEFD200AFEF7DBFDE0B2FEF7D8FD180A47
:10195000FEF7D5FDD8B2FEF7D2FD2846FEF7CFFD43
:10196000FF20FEF7CCFDFC20FEF7C9FDFF20FEF7AF
:10197000C6FDBDE83040FF20FEF7C1BDF0B506460C
:1019800017460D46EE20059CFEF7B9FDB120FEF787
:10199000B6FD3220FEF7B3FD300AFEF7B0FDF0B21F
:1019A000FEF7ADFD280AFEF7AAFDE8B2FEF7A7FD97
:1019B0003846FEF7A4FD200AFEF7A1FDE0B2FEF7CF
:1019C0009EFD21461846FEF7C8FDFF20FEF797FD55
:1019D000FC20FEF794FDFF20FEF791FDBDE8F040EE
:1019E000FF20FEF78CBD30B5044615460B46EE20B1
:1019F000FEF785FDB120FEF782FD3320FEF77FFD67
:101A0000200AFEF77CFDE0B2FEF779FD180AFEF72A
:101A100076FDD8B2FEF773FD2846FEF770FDFF2075
:101A2000FEF76DFDFC20FEF76AFDFF20FEF767FD67
:101A3000BDE83040FF20FEF762BDF0B50646DDE9A7
:101A400005C714460D46EE20FEF759FDB120FEF7FE
:101A500056FD3420FEF753FD300AFEF750FDF0B27C
:101A6000FEF74DFD280AFEF74AFDE8B2FEF747FDF6
:101A7000C4F30720FEF743FDE0B2FEF740FD180A6D
:101A8000FEF73DFDD8B2FEF73AFDCCF30720FEF796
:101A900036FD0CF0FF00FEF732FD380AFEF72FFD91
:101AA000F8B2FEF72CFDFF20FEF729FDFC20FEF723
:101AB00026FDFF20FEF723FDBDE8F040FF20FEF7E6
:101AC0001EBD00B50346EE20FEF719FDB120FEF75E
:101AD00016FD1220FEF713FD180AFEF710FDD8B20E
:101AE0005DF804EBFEF70BBD10B503460C46000A8B
:101AF000FEF705FDD8B2FEF702FD0020FEF7FFFC61
:101B00000120FEF7FCFC2046BDE81040FEF7F7BCC4
:101B100010B504460B46000AFEF7F1FCE0B2FEF7F2
:101B2000EEFC0020FEF7EBFC0420FEF7E8FC180EAC
:101B3000FEF7E5FCC3F30740FEF7E1FCC3F3072023
:101B4000FEF7DDFCBDE81040D8B2FEF7D8BC10B5FA
:101B500004460B46000AFEF7D2FCE0B2FEF7CFFCCB
:101B60000020FEF7CCFC0420FEF7C9FC180EFEF79F
:101B7000C6FCC3F30740FEF7C2FCC3F30720FEF721
:101B8000BEFCBDE81040D8B2FEF7B9BC10B50446A3
:101B90000B46000AFEF7B3FCE0B2FEF7B0FC0020F3
:101BA000FEF7ADFC0420FEF7AAFC180EFEF7A7FC1A
:101BB000C3F30740FEF7A3FCC3F30720FEF79FFC27
:101BC000BDE81040D8B2FEF79ABC014600E0401CC8
:101BD0000278002AFBD1401A704710B503460C4624
:101BE000000AFEF78CFCD8B2FEF789FC2046FFF70E
:101BF000ECFFC0F30720FEF782FC2046FFF7E5FF6D
:101C0000C0B2FEF77CFC2046BDE81040FEF79BBC4E
:101C100010B504460B46000AFEF771FCE0B2FEF771
:101C20006EFC0020FEF76BFC0220FEF768FC180A31
:101C3000FEF765FCBDE81040D8B2FEF760BC00B509
:101C4000FF20FEF75CFCFC20FEF759FCFF20FEF7AE
:101C500056FCFF205DF804EBFEF751BC30B505469D
:101C600013460C46EE20FEF74AFCB120FEF747FC77
:101C70004020FEF744FC280AFEF741FCE8B2FEF7DC
:101C80003EFC200AFEF73BFCE0B2FEF738FC180EE3
:101C9000FEF735FCC3F30740FEF731FCC3F3072022
:101CA000FEF72DFCD8B2FEF72AFCFF20FEF727FC3A
:101CB000FC20FEF724FCFF20FEF721FCBDE83040AD
:101CC000FF20FEF71CBC10B504460B46EE20FEF7C5
:101CD00016FCB120FEF713FC4120FEF710FC200A91
:101CE000FEF70DFCE0B2FEF70AFC180AFEF707FC4F
:101CF000D8B2FEF704FCFF20FEF701FCFC20FEF743
:101D0000FEFBFF20FEF7FBFBBDE81040FF20FEF7C7
:101D1000F6BB10B504460B46EE20FEF7F0FBB120F3
:101D2000FEF7EDFB4220FEF7EAFB200AFEF7E7FB99
:101D3000E0B2FEF7E4FB180AFEF7E1FBD8B2FEF7CB
:101D4000DEFBFF20FEF7DBFBFC20FEF7D8FBFF20CD
:101D5000FEF7D5FBBDE81040FF20FEF7D0BB10B565
:101D600004460B46EE20FEF7CAFBB120FEF7C7FB88
:101D70004420FEF7C4FB200AFEF7C1FBE0B2FEF7E9
:101D8000BEFB180AFEF7BBFBD8B2FEF7B8FBFF207C
:101D9000FEF7B5FBFC20FEF7B2FBFF20FEF7AFFB22
:101DA000BDE81040FF20FEF7AABB30B5054613463C
:101DB0000C46EE20FEF7A3FBB120FEF7A0FB182097
:101DC000FEF79DFB280AFEF79AFBE8B2FEF797FBA9
:101DD000200AFEF794FBE0B2FEF791FB180AFEF72B
:101DE0008EFBD8B2FEF78BFBFF20FEF788FBFC20B2
:101DF000FEF785FBFF20FEF782FBBDE83040FF20A9
:101E0000FEF77DBB30B5054613460C46EE20FEF7C7
:101E100076FBB120FEF773FB1920FEF770FB280A52
:101E2000FEF76DFBE8B2FEF76AFB200AFEF767FBE0
:101E3000E0B2FEF764FB180AFEF761FBD8B2FEF7CA
:101E40005EFBFF20FEF75BFBFC20FEF758FBFF204C
:101E5000FEF755FBBDE83040FF20FEF750BB70B5E4
:101E6000054616460C46EE20FEF749FBB120FEF76C
:101E700046FB1320FEF743FB280AFEF740FBE8B2BF
:101E8000FEF73DFB200AFEF73AFBE0B2FEF737FB18
:101E90003046FEF734FB180AFEF731FBD8B2FEF7E6
:101EA0002EFBFF20FEF72BFBFC20FEF728FBFF207C
:101EB000FEF725FBBDE87040FF20FEF720BBF0B524
:101EC0008446DDE9056714460D46EE20FEF717FB54
:101ED0008620FEF714FB6046FEF711FB280AFEF78A
:101EE0000EFBE8B2FEF70BFB200AFEF708FBE0B2A0
:101EF000FEF705FB1846FEF702FB3046FEF7FFFA39
:101F00003846FEF7FCFAFF20FEF7F9FAFC20FEF750
:101F1000F6FAFF20FEF7F3FABDE8F040FF20FEF7E7
:101F2000EEBA00002A49002048800880294948600C
:101F30000880704730B5264B50241A88511CB1FBDD
:101F4000F4F504FB15115C888C4202D01C1D105561
:101F5000198030BD2DE9F04381461D4800242246FA
:101F60001C4B502706881DE0B54208D0184A121DA8
:101F7000AA5C6D1CB5FBF7FC07FB1C5545801D8852
:101F80000DB9EE2A0ED18D4203D209F805206D1C41
:101F90001D805D6842EA052505F5403C5D601CF149
:101FA000010C10D04588A6EB050C0CF1500C9CFBE5
:101FB000F7F807FB18CC1FFA8CFCBCF1000FD3D14B
:101FC0000020BDE8F08318885C601C80F9E7000001
:101FD00044010020B4000020FEB5B94C64252088DF
:101FE000022818D005284BD0062855D160684FF438
:101FF000B47590FBF5F105FB110201210620FFF7F6
:10200000C1FA606890FBF5F105FB11020221062080
:10201000FFF7B8FA3DE0606890FBF5F105FB1102AF
:102020000521022000F002F9606890FBF5F105FB44
:1020300011020621022000F0F9F860684FF47A716D
:1020400090FBF1F201FB12000226072501F08BFE46
:1020500000229C4B01F018FE01F0A9FE0021009126
:102060000191029101F090FE02460B4696A168464E
:1020700002F00AFB6A4629463046FFF724FA08E0D8
:10208000606890FBF5F105FB110201210520FFF7C7
:1020900044FA6068401C6060FEBDF8B5B0F80310FB
:1020A00082684BBA12BAC77A4678B0F8051022F0A7
:1020B000FF028578C4793A4349BA0D2E3ADD0F2ED6
:1020C00038D0B12E36D1012D06D0103C042C31D29F
:1020D000DFE804F0070D30311846BDE8F84000F0A5
:1020E00060B8427A1846BDE8F84000F0B0B8002564
:1020F00008300C460095022B1CD16A4674A101F0F1
:1021000001FD012C16D10098002801DA009504E0A9
:102110004FF4BE71884200DD009101210220009A37
:1021200000F084F80098042100EBD07042100220E7
:1021300000F07CF8F8BD052BFCD10229FAD16048EB
:1021400001214260BDE8F8400520FFF7E6B910B56F
:102150000020604A01461154401C80B21428FAD372
:102160005748018041608160FFF7DCFEBDE8104008
:10217000FEF7AEB910B514215648FFF7EBFE01008B
:1021800002D05448FFF789FF4D4C5349A06888425C
:1021900003D10020A060FFF71FFFA068401CA060D3
:1021A00010BD30B546499BB0042808800CD00928E2
:1021B00008D14AA30FCB8DE80F006A460121092000
:1021C000FFF781F91BB030BD0024642101A801F0A4
:1021D0008EFCC821142001ADB4FBF0F200FB1242CA
:1021E0000A2A01D3295500E02855641CA4B2642CA6
:1021F000F2D364242B460022012104200094FFF72F
:10220000BDFB00205FF00F01B0FBF1F201FB1202F9
:1022100012012A54401C80B26428F5D3012201AB7C
:10222000114604200094FFF7A9FBCBE73EB5054615
:1022300000200C4600900190029025A1684602F013
:1022400023FA6A4621462846FFF73DF93EBD10B500
:10225000032834D1032911D0042930D100220121CF
:10226000FFF7B3F8002202210320FFF7AEF80022A7
:102270000321BDE810400846FFF7FBB8002A4FF0E5
:10228000010211464FF0030011D0FFF79EF8012222
:1022900002210320FFF799F8002201210320FFF714
:1022A0009DFA0221BDE810400320FFF725BAFFF791
:1022B00095FA0221BDE810400320FFF743BA10BD94
:1022C000BC00002000002440252E316600000000E4
:1022D000256C640098010020A0860100E5B9BFE5E7
:1022E000B79EE5A4A7E5BDA93132330010B56FF064
:1022F000040000F0BEF9204820490068B0FBF1F06E
:10230000C1B21F4801EB41020170C2EBC1114FF68F
:10231000FF7202EAC101418010BD194909784843A2
:102320004FF0E021486100228A61086940F0010015
:1023300008610869C30701D0C003FAD5086920F015
:10234000010008618A6170470D49498848434FF090
:10235000E021486100228A61086940F001000861BB
:102360000869C30701D0C003FAD5086920F001004D
:1023700008618A61704700000000002000127A00A6
:10238000C800002030B587B0044642F21070ADF8A6
:1023900014000A200025ADF81000ADF81650ADF875
:1023A000125004A9206800F033FE7020ADF8000040
:1023B0000120ADF80200ADF808502079012806D0C0
:1023C00002280DD0032814D0042823D11AE069462E
:1023D000206800F056FE0821206801F0A0F919E0FD
:1023E0006946206800F082FE0821206801F0A8F903
:1023F00010E06946206800F0B5FE0821206801F071
:10240000A9F907E06946206800F0E6FE0821206887
:1024100001F0A6F90021206801F0A3F807B030BD53
:102420000068012101F09DB80068002101F099B811
:1024300042F2107291420BD80279012A09D0022A85
:102440000AD0032A0BD0042A02D10068A0F8401059
:102450007047006881867047006801877047006890
:10246000818770473EB504464178007800F023FA32
:102470006068009000208DF80400607A8DF80500F7
:1024800001258DF80650684601F0B2FA207A8DF8E1
:10249000080002208DF809008DF80A008DF80B5015
:1024A00002A800F0A6F83EBD38B5044600788DF8C5
:1024B00002006088ADF80000207A8DF803006946BC
:1024C000606800F040F9207A102806D1607A6188AF
:1024D0000028606802D000F0A4F938BD00F0A3F92C
:1024E00038BD10B5044686B0006800F00BFA60688D
:1024F00000900020ADF804002189ADF80610618934
:10250000ADF80810ADF80C000C20ADF80A006946D3
:10251000206800F027FA0121206800F096FA0122D5
:1025200040F22551206800F09AFA207B8DF81000C7
:1025300002208DF811008DF8120001208DF8130093
:1025400004A800F056F806B010BD00007FB50446A0
:102550004EF66020ADF804004720ADF800000020E2
:10256000174DADF80600ADF802006946284600F0A8
:102570004FFD01224121284601F008F820798DF80D
:102580000C0002208DF80D008DF80E0001208DF852
:102590000F0003A800F02DF80021206800F0E1FFF3
:1025A0007FBD0068012100F0DCBF0068002100F061
:1025B000D8BF0068002101F0D2B9006801F0EDB980
:1025C000000400400648804706480047FEE7FEE753
:1025D000FEE7FEE7FEE7FEE7FEE7FEE7FEE7FEE7D3
:1025E000F90100083101000828490843284908601A
:1025F000704770B50F23C47801780122F4B1244CE0
:102600002468457804F4E064C4F5E064240AC4F165
:102610000406E3408478B5401C402C4301F1E021DE
:10262000230181F80034007800F01F018A4040093E
:10263000800000F1E020C0F8002170BD01F01F0013
:1026400082404809800000F1E020C0F8802170BD80
:10265000104A114001430E48001F016070470C4AA8
:10266000121D0029116801D0014300E0814311606F
:1026700070474FF0E0210428086903D020F00400DF
:102680000861704740F00400FAE700000000FA0516
:102690000CED00E080FFFF1F914910B5884206D184
:1026A0000121042000F0DFFB002104203BE08D49E4
:1026B000884206D10121082000F0D5FB0021082026
:1026C00031E08949884206D10121102000F0CBFB7E
:1026D0000021102027E08549884206D101212020D1
:1026E00000F0C1FB002120201DE08149884206D175
:1026F0000121402000F0B7FB0021402013E07D497C
:10270000884206D10121802000F0ADFB002180200D
:1027100009E0794988420AD184150121204600F058
:10272000A2FB00212046BDE8104000F09CBB10BD7C
:1027300010B50121084600F096FB0021BDE81040CD
:10274000012000F090BBF0B5CA78002502F00F031D
:10275000D20601D58A7813430A784FF00F0E12F093
:10276000FF0F4FF001021DD0D0F800400F8802FA91
:1027700005F63740B74211D14FEA850C0EFA0CF737
:1027800024EA070703FA0CF43C43CF78282F02D041
:10279000482F02D002E0466100E006616D1C082D62
:1027A000E4D304600C88FF2C1ED944685FF0000657
:1027B00006F1080702FA07F50F882F40AF420FD144
:1027C0004FEA860C0EFA0CF7BC4303FA0CF73C43B5
:1027D000CF78282F00D14561CF78482F00D10561EF
:1027E000761C082EE4D34460F0BD4FF6FF710180E3
:1027F000022181700421C170704702460020926856
:102800000A4200D001207047806880B270470246BB
:102810000020D2680A4200D001207047C06880B210
:10282000704701617047416170470AB101617047AB
:1028300041617047C160704741F4803282618161BB
:1028400082618169806970472C4B10B51A684FF618
:102850008074224042EA00100843186010BD2849E5
:10286000C8617047F0B5254C002801DAE36900E043
:102870006368420D120185B2C0F301579540C0F361
:102880000346032F05D0C2020AD50322B240934368
:1028900007E023F07062636823F07063636002E016
:1028A000AB4343F0706201B12A43002801DAE261D0
:1028B000F0BD6260F0BD10B58A0721F003040F4936
:1028C000130F21440F228C689A4094438C608A68CD
:1028D000984002438A6010BD0949C1F8DC00704786
:1028E00000080140000C01400010014000140140AC
:1028F00000180140001C0140002001400000014080
:1029000000002042C44910B588420AD101218C033D
:10291000204600F0A8FA2046BDE81040002100F053
:10292000A2BABE49884202D101214C0410E0BC4940
:10293000884202D101218C040AE0BA49884202D1BE
:102940000121CC0404E0B84988420AD101210C05D8
:10295000204600F091FA2046BDE81040002100F02A
:102960008BBA10BD30B50446008A85B00D464CF6D2
:10297000FF710840E98801432182A1894EF6F310D6
:102980000140A8882A8910436A890A431043A0811C
:10299000A08A4FF6FF410840A9890143A1826846F9
:1029A00000F006FA9C48844201D1039800E00298A6
:1029B000A189090400EBC00101EB0010296801D5D1
:1029C000490000E08900B0FBF1F06422B0FBF2F1B5
:1029D00009010B096FF018056B4300EB8300A38915
:1029E0001D044FF0320306D503EBC000B0FBF2F03C
:1029F00000F0070005E003EB0010B0FBF2F000F080
:102A00000F000843208105B030BD4FF4165101601E
:102A100000218180C18001810C2242818181704727
:102A200010B5038A4FF2FF0213400A884C882243F4
:102A30008C88C9880C4322431A43028210BD0021AE
:102A4000018041808180C18070470029818902D046
:102A500041F4005101E021F400518181704710B52B
:102A6000C1F3421301F01F040121A140012B07D043
:102A7000022B07D01430002A026805D00A4304E074
:102A80000C30F8E71030F6E78A43026010BD002AE8
:102A9000828A01D00A4300E08A4382827047028A18
:102AA00022F00F020282028A0A4302827047828960
:102AB00022F40062828182890A4382817047002960
:102AC000818902D041F0020101E021F002018181FF
:102AD0007047028A22F020020282028A0A4302829E
:102AE00070470029018A02D041F4804101E021F4BD
:102AF000804101827047C1F308018180704780885E
:102B0000C0F308007047818941F00101818170475D
:102B1000028BD2B20283028B42EA01210183704709
:102B2000028B02F47F420283028B0A4302837047C6
:102B30000029818A02D041F0200101E021F020012A
:102B4000818270470029818A02D041F0100101E0A2
:102B500021F01001818270470029818A02D041F062
:102B6000080101E021F00801818270470029818974
:102B700002D041F4004101E0C1F30E0181817047B0
:102B80000029818A02D041F4006101E021F4006152
:102B900081827047828A22F004028282828A0A43FA
:102BA000828270470029818A02D041F0020101E04F
:102BB00021F00201818270470246002012880A42F9
:102BC00000D001207047C9430180704730B501F043
:102BD0001F0201240025C1F3421304FA02F2012B63
:102BE0000FD0022B0FD0838A4FEA112100881342A5
:102BF00004FA01F400EA040001D000B101252846DE
:102C000030BD8389F0E7038AEEE70A0A012191408B
:102C1000C943018070470000003801400044004073
:102C200000480040004C004000500040A4480168AB
:102C300041F0010101604168A24A11404160016810
:102C4000A14A11400160016821F4802101604168BE
:102C500021F4FE0141604FF41F01816070479849E3
:102C60000A6822F480320A600A6822F480220A602C
:102C7000B0F5803F07D0B0F5802F03D1086840F44D
:102C8000A02008607047086840F48030F9E70246E9
:102C9000002053098A49012B0AD0022B0AD0496A25
:102CA00002F01F02012393400B4200D00120704725
:102CB0000968F5E7096AF3E718B500204FF4A06446
:102CC00000903120FFF7E3FF0099491C0091A142D9
:102CD00001D00028F5D03120FFF7D9FF002800D01F
:102CE000012018BD76490A6822F0F80242EAC000C5
:102CF00008607047754908607047714A5368084317
:102D000023F47C131843506070477049086670477D
:102D10006B4A516821F003010143516070476848D4
:102D2000406800F00C007047654A516821F0F001DE
:102D3000014351607047624A516821F4E0610143E8
:102D4000516070475E494A6822F4605242EAC0000E
:102D5000486070475A4A0029517A01D0014300E087
:102D60008143517270475949C1F8D8007047544A9D
:102D7000516821F44041014351607047504900229D
:102D800081F8202081F82020012802D0042802D1D7
:102D9000052081F8200070474D4908607047484978
:102DA0000A6A02430A627047494944390860704719
:102DB00030B543494A6812F00C03464A03D0042B4D
:102DC00001D0082B21D002604A680F23424C03EA4D
:102DD0001212A35C0268DA4042604B68072505EADC
:102DE0001323E35C22FA03F383604B6805EAD323E1
:102DF000E35CDA40C2604968032303EA9131231F90
:102E0000595CB2FBF1F1016130BD4A684B6802F4D4
:102E100070124FF0020413F4803F04EB924202D090
:102E20004B689B0301D52D4B00E02A4B5A43CAE760
:102E3000234A0029516901D0014300E081435161D7
:102E400070471F4A0029916901D0014300E0814386
:102E5000916170471A4A0029D16901D0014300E00D
:102E60008143D1617047164A0029D16801D00143DE
:102E700000E08143D1607047114A0029116901D0F7
:102E8000014300E0814311617047114940390860F6
:102E900070470E49C86470470949C87170470848AF
:102EA000416A41F0807141627047054A0146002045
:102EB00092680A4200D00120704701498872704729
:102EC000001002400000FFF8FFFFF6FE0000424243
:102ED0008004424200127A00D000002000093D0028
:102EE000F94910B5884202D10121C41486E0B0F13D
:102EF000804F09D0F54988420DD101210220FFF70A
:102F0000BBFF0021022064E001210846FFF7B4FF67
:102F1000002101205DE0EE49884206D10121042014
:102F2000FFF7AAFF0021042053E0EA49884206D1B6
:102F300001210820FFF7A0FF0021082049E0E64911
:102F4000884206D101211020FFF796FF00211020B2
:102F50003FE0E249884206D101212020FFF78CFFA3
:102F60000021202035E0DE49884202D101214414AD
:102F700044E0DC49884202D10121CC043EE0DA4938
:102F8000884202D101210C0538E0D849884202D19B
:102F900001214C0532E0D649884206D1012140206A
:102FA000FFF76AFF0021402013E0D249884206D192
:102FB00001218020FFF760FF0021802009E0CE4939
:102FC00088420AD1841501212046FFF755FF0021D0
:102FD0002046BDE81040FFF74FBFC849884202D1E4
:102FE00001210C040AE0C649884202D101214C04A7
:102FF00004E0C44988420AD101218C042046FFF72D
:1030000032FF2046BDE810400021FFF72CBF10BD65
:1030100030B50288AC4BB24C98420DD0A0420BD0D8
:10302000B0F1804F08D0A94DA84205D0A84DA842C4
:1030300002D0A84DA84203D122F070054A882A4345
:10304000A54DA84206D0A54DA84203D022F4407554
:10305000CA882A4302808A8882850A880285984223
:103060000AD0A04208D0A54A904205D0A44A904276
:1030700002D0A44A904201D1097A018601218182BD
:1030800030BD30B5028C22F001020284028C8388AC
:10309000048B22F0020224F073050C882C430D8966
:1030A00015434A882A43884DA8420BD08C4DA8422C
:1030B00008D0924DA84205D0914DA84202D0914D22
:1030C000A8420DD122F008054A8923F440732A430F
:1030D00022F004058A882A438D891D43CB892B431E
:1030E00083800483C9888186028430BD70B5028CD8
:1030F00022F010020284028C8488038B0D8823F452
:10310000E6464FF6FF7303EA052535430E8922F0A4
:10311000200203EA061616434A8803EA02123243E3
:10312000694EB04202D06E4EB04215D122F08006F8
:103130004A8924F4406403EA0212324322F0400632
:103140008A8803EA021232438E8903EA86062643FE
:10315000CC8903EA8404344384800583C9880187C9
:10316000028470BD70B5028C22F480720284028CDD
:103170008488838B0D8823F073031D4322F400732E
:103180000E894FF6FF7202EA06261E434B8802EABA
:10319000032333434C4EB04202D0514EB04215D1BE
:1031A00023F400664B8924F4405402EA032333439A
:1031B00023F480668B8802EA032333438E8902EA74
:1031C00006162643CC8902EA04143443848085839E
:1031D000C9888187038470BD70B5028C22F4805247
:1031E0000284048C8288838B0D8823F4E6464FF694
:1031F000FF7303EA0525354324F400560C8903EADE
:10320000043434434E8803EA063626432E4CA0424B
:1032100002D0334CA04205D122F480448A8903EACB
:103220008212224382808583C988A0F840100684D8
:1032300070BD828B22F440628283828B4FF6FF73D3
:1032400003EA01210A4382837047828B22F00C0239
:103250008283828B0A4382837047028B22F440620E
:103260000283028B4FF6FF7303EA01210A430283B4
:103270007047F0B5048C24F010040484078B048C90
:103280004FF6FF7527F4734705EA03333B4305EA1E
:1032900002221A430C4B05EA011698420ED0104B3D
:1032A00098420BD0B0F1804F08D0084B984205D01F
:1032B000074B984202D0074B984225D124F02001B9
:1032C000314341F0100124E0002C01400004004093
:1032D00000080040000C00400010004000140040B6
:1032E00000340140004C01400050014000540140B6
:1032F00000180040001C0040002000400040014039
:10330000004401400048014024F0A0030B4343F077
:10331000100102830184F0BD028B22F00C020283B3
:10332000028B0A430283704770B5048C24F00104B9
:103330000484058B048C4FF6FF7606EA03131343CF
:1033400025F0F305F94A2B4390420ED0F84A9042FB
:103350000BD0B0F1804F08D0F64A904205D0F64A23
:10336000904202D0F54A904202D124F0020201E0DC
:1033700024F00A020A4342F001010383018470BD74
:103380002DE9F05F0D4604460888E84FDFF8A0C33A
:10339000DFF8A0834988AA882B894FF0804960B361
:1033A000042832D04FF6FF7E082836D0208C9B466A
:1033B00020F480502084A38B268C704600EA0222E1
:1033C00023F473431A4300EA0B3010430EEA013E24
:1033D000BC420BD0644509D04C4507D0444505D0CC
:1033E000D54A944202D0D54B9C4245D126F4005197
:1033F00041EA0E0141F4805143E02046FFF794FF7B
:10340000E9882046BDE8F05F86E72046FFF731FFF8
:10341000E9882046BDE8F05F1FE7208C20F480702B
:103420002084B4F81CA0208C0EEA031313432AF066
:10343000F30A0EEA012B43EA0A03BC420BD06445AF
:1034400009D04C4507D0444505D0BB4A944202D030
:10345000BA4A944204D120F4007040EA0B0002E022
:1034600020F42060084340F48070A3832084E9881E
:103470002046BDE8F05FE8E626F402420A4342F443
:103480008051A08320462184E988BDE8F05FD0E622
:103490002DE9F0410C46002649880746012501B96F
:1034A0000226A288012A00D102252088238900282B
:1034B000384610D0FFF7DDFEE1883846FFF7CDFE35
:1034C00023892A4631463846FFF72EFFE1883846E1
:1034D000BDE8F04120E7FFF727FFE1883846FFF716
:1034E0001BFF23892A4631463846FFF7C2FEE18892
:1034F0003846BDE8F041B0E610B50A884B88CC8864
:103500001A438B8823431A430B891A434B898989B1
:103510001A430A43A0F8442010BD4FF6FF71818082
:1035200000210180C180418001727047002101802B
:1035300041808180C180018141818181C181704749
:1035400000210180418001228280C1800181704779
:103550000021018041808180C18001814181818180
:1035600070470029018802D041F0010101E021F0FB
:10357000010101807047002930F8441F02D041F456
:10358000004101E0C1F30E0101807047002A8289E9
:1035900001D00A4300E08A438281704781827047EC
:1035A0001143A0F848107047002A828901D00A43CD
:1035B00000E08A4382817047018921F0070101817F
:1035C0007047028922F070020A430281704700B5F9
:1035D0000346FFF7F6FF188940F00700188100BD89
:1035E00070B516460D46602904464FF0010231467B
:1035F0000AD0FFF799FE29462046FFF7E2FF20890F
:1036000040F00700208170BDFFF733FEF3E730B5CF
:1036100004894FF6FF7505EA03231343E4B20B4315
:103620002343038130BD10B50446FFF7F0FF208926
:1036300040F07700208110BD10B50446FFF7E7FF8A
:10364000208940F48040208110BD0185828270472E
:10365000028822F070020A430280704770B5058923
:10366000048B068C25F007050D434FF6FC410C40FA
:1036700040F201110C434FF6FF7101EA031126F0ED
:1036800022061143314305810483018470BD028BFE
:1036900022F070020A4302837047028B4FF6FF73D9
:1036A00022F4E04203EA0121114301837047828B37
:1036B00022F070020A4382837047828B4FF6FF73B9
:1036C00022F4E04203EA012111438183704700297B
:1036D000018802D041F0800101E021F080010180E9
:1036E00070470029818802D041F0040101E021F0F7
:1036F0000401818070470029818802D041F00801CF
:1037000001E021F00801818070470029818802D002
:1037100041F0010101E021F0010181807047028B3D
:1037200022F008020A43028370470000002C014087
:10373000003401400004004000080040000C00403C
:10374000028B4FF6FF7322F4006203EA012111435A
:103750000183E9E7828B22F008020A438283E3E7D0
:10376000828B4FF6FF7322F4006203EA01211143BA
:103770008183D9E7028B22F004020A430283D3E754
:10378000028B4FF6FF7322F4806203EA012111439A
:103790000183C9E7828B22F004020A438283C3E7D4
:1037A000828B4FF6FF7322F4806203EA01211143FA
:1037B0008183B9E7028B22F080020A430283B3E7D8
:1037C000028B4FF6FF73C2F30E0203EA012111438D
:1037D0000183A9E7828B22F080020A438283A3E758
:1037E000828B4FF6FF73C2F30E0203EA01211143ED
:1037F000818399E7028C22F002020A43028493E754
:10380000028C22F008020A4302848DE7028C4FF6F4
:10381000FF7322F0200203EA01111143018483E7C0
:10382000028C4FF6FF7322F0800203EA011111436C
:10383000018479E7028C4FF6FF7322F4007203EAE9
:103840000121114301846FE7028C4FF6FF7322F4CC
:10385000006203EA01211143018465E7028C4FF6FF
:10386000FF7322F4005203EA0131114301845BE744
:1038700010B50123048C8B409C430484038C8A4044
:103880001343038410BD10B50423048C8B409C4368
:103890000484038C8A401343038410BD30B5012493
:1038A000058C00F118038C40A543058489B10829D3
:1038B0000FD0091FC1F34E001844016821F4E04104
:1038C000016001684FF6FF7303EA022211430160B1
:1038D00030BD03EB5100016821F070010160016807
:1038E000F4E70029018802D041F0020101E021F053
:1038F0000201018018E70029018802D041F004018B
:1039000001E021F0040101800EE70029818802D046
:1039100041F0800101E021F08001818004E702880C
:1039200022F00802028002880A430280FCE68288B4
:1039300022F07002828082880A438280F4E6028943
:1039400022F00702028102890A430281ECE6028921
:1039500022F08002028102890A430281E4E6818426
:10396000E2E68185E0E68186DEE60187DCE68187A6
:10397000DAE6A0F84010D7E6028822F4407202800E
:1039800002880A430280CFE6808ECDE6008FCBE628
:10399000808FC9E6B0F84000C6E6808CC4E6008D92
:1039A000C2E602460020128A0A4200D00120BBE68D
:1039B000C9430182B8E602460020138A92890B426D
:1039C00002EA010202D0002A00D00120ACE6C9437D
:1039D0000182A9E6374900200860091D0860091D19
:1039E0000860091D08603349334814310860704786
:1039F00030B530498379026853B30B6893430B6049
:103A00000A1D13680468A343136002790A4413680B
:103A1000046823431360274A083213680468A343E9
:103A20001360131D1C680568AC431C604479102C9E
:103A300005D021440A68006802430A6030BD11685D
:103A4000046821431160196800680143196030BDA2
:103A50000079084401689143016030BD0021016094
:103A600001710C22427181717047124910310A684C
:103A700002430A60704701460E4A00201432126861
:103A80000A4200D0012070470A491431086070478B
:103A9000084A014600201268064B0A4014331B688E
:103AA0000B4202D0002A00D0012070470149143196
:103AB0000860704700040140FFFF0F0040EA010367
:103AC0009B0703D009E008C9121F08C0042AFAD2D4
:103AD00003E011F8013B00F8013B521EF9D2704798
:103AE000D2B201E000F8012B491EFBD27047002240
:103AF000F6E710B513460A4604461946FFF7F0FFED
:103B0000204610BD0FB400B58DB010A909900B90E0
:103B100000914FF0FF300A9000200C90054806906D
:103B2000054807906A4609A80F9900F0B7F90DB04B
:103B30005DF814FBB93E0008D73E00082DE9FF5F91
:103B40001D464FF0FF3BD5E9014691465F464FF0D9
:103B50000008A9697F1C01988847296A824688471E
:103B60000028F6D1BAF1FF3F0CD024F4C064002E37
:103B700019DD600614D5BAF12B0F09D0BAF12D0F5B
:103B80000ED103E0584604B0BDE8F09F44F48064D1
:103B9000A9697F1C01988847761E8246002E02DDA7
:103BA000BAF1300F03D0B9F1000F26D032E0A96985
:103BB000761E44F400747F1C019888478246002ECC
:103BC00005DDBAF1780F06D0BAF1580F03D0B9F17C
:103BD000000F10D01EE0B9F1000F02D0B9F1100FA4
:103BE00018D1A969761E24F400747F1C01988847B7
:103BF0008246102002E0082000E00A20814609E009
:103C000008FB0908A969761E44F400747F1C01981A
:103C100088478246002E05DD4946504600F02AF9C5
:103C20000028EDDAE96901988847A00502D46FF011
:103C30000100A8E7E00725D1600613D5600502D58D
:103C4000C8F1000000E0404629680A1D2A600968A2
:103C5000220501D5087015E0220701D5088011E082
:103C600008600FE02868011D29600068210502D561
:103C700080F8008006E0210702D5A0F8008001E06E
:103C8000C0F8008038467EE72DE9F04D81EA030454
:103C900004F0004B21F0004514464FF0000A23F0D9
:103CA000004150EA050220D054EA01021DD0C5F3BC
:103CB0000A570246C5F31303C1F31300C1F30A56B2
:103CC00040F4801543F48013A7EB0608101BD6467A
:103CD00008F2FD3873EB050002D308F1010801E09A
:103CE00092185B41B8F1000F03DA00200146BDE8ED
:103CF000F08D00204FF48011064684460EE0171B1D
:103D000073EB050705D3121B63EB050306434CEA6F
:103D1000010C49084FEA300092185B4150EA010754
:103D2000EDD152EA030012D082EA040083EA0501D1
:103D3000084305D0101BAB4106D20122002306E048
:103D400000224FF0004302E06FF0010253101AEB23
:103D500006004CEB085110EB0A0041EB0B01BDE8EB
:103D6000F04D00F000B90EB5C10F80EAE0700844D4
:103D7000CA07002140F233438DE80E000A460B4685
:103D800000F0FEF803B000BD00F0004230F000404B
:103D90000AD0C10D01F56071C0F3160042EA01516D
:103DA000C20840071143704700200146704701F0E8
:103DB000004330B421F0004150EA010206D00A0D60
:103DC000A2F56072C1F31301002A02DC30BC0020AE
:103DD0007047440F44EAC104C100E01830BC00EB56
:103DE000C25000F089B830B50B46014600202022B1
:103DF000012409E021FA02F59D4205D303FA02F5F8
:103E0000491B04FA02F52844151EA2F10102F1DC57
:103E100030BD2DE9F05F0546002092469B4688465E
:103E20000646814640241BE0284641464746224636
:103E300000F05BFA53465A46C01A914110D311461E
:103E40001846224600F042FA2D1A67EB01084F4649
:103E500022460120002100F039FA17EB00094E41FB
:103E6000201EA4F10104DFDC484631462A464346C1
:103E7000BDE8F09F3A2800D2303820F02002412AD5
:103E800001D3A2F13700884201D34FF0FF307047D1
:103E9000026811441378016018467047D1600449E4
:103EA00051610449116200211161114600F044BAC8
:103EB000913E00082F430008426842B1016811F8A2
:103EC000013B23B1521EC0E9001218467047012180
:103ED000C160881E704742685AB1C368016843B91F
:103EE00083688B4205D0491E521CC0E90012002095
:103EF00070474FF0FF3070470029A8BF7047401C43
:103F0000490008BF20F00100704710B4B0FA80FCEF
:103F100000FA0CF050EA010404BF10BC704749B12C
:103F2000CCF1200421FA04F411FA0CF118BF01219C
:103F300021430843A3EB0C01CB1D4FEA00614FEA7C
:103F4000102042BF002010BC704700EBC35010444B
:103F50000029A4BF10BC7047401C490008BF20F0D6
:103F6000010010BC704710B5002B08DA401C41F16D
:103F7000000192185B411A4301D120F0010010BDED
:103F80002DE9F04D92469B4611B1B1FA81F202E063
:103F9000B0FA80F22032904600F098F904460F46BD
:103FA00040EA0A0041EA0B0153465A46084313D03F
:103FB000114653EA010019D0C8F14002504600F002
:103FC00094F905460E4650465946424600F07EF9A1
:103FD000084305D0012004E020463946BDE8F08DB5
:103FE0000020054346EAE0762C4337430A986305F0
:103FF000E40AA0EB08000022FD0A44EA47540A3014
:1040000002D500200146E9E7010510196941DDE903
:10401000084500196941BDE8F04DA4E72DE9FE4FC0
:10402000804681EA0300C00F0C46009021F0004159
:1040300023F00045B8EB0200A94105D240462146D5
:1040400090461C460B46024623F00040104347D0E2
:10405000270DC7F30A00C3F30A510290401A0190DA
:1040600040286BDAC3F3130040F4801B009892469B
:1040700020B10023D2EB030A63EB0B0B01985946E6
:10408000C0F14002504600F021F906460D46504668
:104090005946019A00F039F910EB080061410024FB
:1040A00087EA115284EAE7731A4340D0009A62B358
:1040B000019A012A4FEA075215DC001B61EB02014D
:1040C0004FF0004202EA0752CDE90042001C41F5E0
:1040D000801132462B46FFF753FF03B0BDE8F08F47
:1040E00040462146F9E7001B61EB0201001C41F547
:1040F000801300185B412018A2F5001747EB03015D
:1041000040EAD570B6196D4111E06D084FEA3606E8
:1041100045EAC0754FEA0752001B61EB0201001C23
:1041200041F5801149084FEA3000001951413246EB
:104130002B4603B0BDE8F04FFFF715BF00980122F2
:1041400040000023D0EB020263EBE07300982146AD
:104150004FEAE074B8EB000061EB0401E9E783F09B
:1041600000435BE781F0004158E72DE9FE4F81EA0B
:10417000030404F0004421F0004100944FF0000BD0
:1041800023F0004350EA01045ED052EA03045BD0FE
:10419000C3F30A54C1F30A552C44A4F2F334019436
:1041A000A0FB0254C1F3130141F48011C3F31303C4
:1041B00043F4801301FB024400FB034E840A970A78
:1041C00044EA815447EA8357A4FB076802958D0AA5
:1041D00005FB07854FEA932C04FB0C542705029D31
:1041E0004FEA065847EA1637B5EB08056EEB070CA1
:1041F000870E920E47EA811742EA8312A7FB02015B
:10420000B6EB0B0164EB00042B0D43EA0C335E1894
:1042100044EB1C50DA465146E7FB0201C5F3130498
:104220004FEA0B3343EA14534FEA0432019C43EA4A
:104230000603A4F10C040294009CCDE900B4FFF73E
:104240009FFE03B0BDE8F08F00200146F9E7C1F3FF
:104250000A52C1F3130140F2FF3341F480119A4234
:1042600002DA00200146704740F233439A42A2F23C
:10427000334202DC524200F038B800F027B80000A8
:1042800030B5002904DB4FF00044404264EB0101EB
:10429000002B04DB4FF00044524264EB03039942CD
:1042A00008BF904230BD0000064C074D06E0E068B4
:1042B00040F0010394E8070098471034AC42F6D36D
:1042C000FBF73AFFAC4F0008CC4F0008202A04DB74
:1042D000203A00FA02F1002070479140C2F1200319
:1042E00020FA03F3194390407047202A04DB203A58
:1042F00021FA02F00021704721FA02F3D040C2F106
:1043000020029140084319467047202A06DBCB174C
:10431000203A41FA02F043EAE07306E041FA02F380
:10432000D040C2F120029140084319467047C0B204
:104330004FF4F05100F094B92DE9F34F8BB04FF0EA
:10434000000801F10C000C464FF0010B46460DF140
:10435000080A0190626901210198904705002DD05B
:10436000252D2CD0216A8847C0B1626901210198AE
:104370009047216A88470028F7D1411E6269019859
:10438000904700E0761CA1690B988847216A88470E
:104390000028F7D1E1690B988847DBE7A1690B9802
:1043A00088470746A84201D1761CD3E7E1690B98FC
:1043B00088477F1C02D1B8F1000F6FD043E100277E
:1043C00062693D463946019890472A2804D16269BE
:1043D0000121019890470125DFF88092626901214F
:1043E00001989047A0F130010A290AD24F45E5DC37
:1043F00007EB870100EB4107303FDFD445F01005A4
:10440000ECE7E90601D46FF000476C280AD04C288D
:1044100014D0682815D06A280DD074281CD07A28AA
:104420001AD01DE062690121019890476C2802D0E2
:1044300045F0040514E045F002050DE045F02005C7
:104440000AE06269012101989047682802D045F08E
:10445000080505E045F4006562690121019890476F
:10446000C4E9015765283DD019DC582877D00CDC09
:10447000452837D004DC252826D0412831D131E029
:1044800046282FD047282CD12CE05B287DD06128EE
:1044900028D0632879D0642823D157E0CDE06F2855
:1044A00045D008DC66281DD067281BD0692821D09C
:1044B0006E2816D127E0702842D0732865D0752861
:1044C00044D078280DD14AE0A1690B988847054669
:1044D00025283FF469AFE1690B9888476D1C3FF4CC
:1044E0006AAFB0E023466A466FF001000B99AFF364
:1044F00000809BE045F040006060A80723464FF035
:10450000000233D43BE02068011D216000682905CA
:1045100001D506701EE7290701D506801AE7A9070D
:1045200003D5F117C0E9006114E7066012E745F012
:1045300040006060A80723464FF0080216D41EE032
:1045400040F60E0125EA0100606016E045F04000EB
:104550006060A80723464FF00A0207D40FE045F039
:1045600040006060A80708D5234610226FF00100C4
:104570000B99AFF3008059E007E0234610226FF05B
:1045800001000B99FFF7DAFA50E04FF000094F46AF
:104590004B46632802D05B2806D040E0E80601D4F1
:1045A0000120A06001273AE062690121019890474B
:1045B0005E2805D14FF0010962694946019890478C
:1045C000216939B900210B46524642F82130491C75
:1045D0000829FADBB0B3216969B9C11700EBD161D1
:1045E0004B110AEB830221F01F01411A01201368CD
:1045F00088400343136062690121019890475D2858
:10460000E8D1B9F1000F09D00020514651F820201F
:10461000D24341F82020401C0828F7DB02AB224699
:1046200000976FF001000B99AFF3008000280CDABF
:10463000401C08D1BBF1000F05D04FF0FF300DB08A
:10464000BDE8F08FFFE74046F9E7E90701D108F13F
:10465000010806444FF0000B7CE60000CCCCCC0CEB
:104660007F2801D9002208E0064A02EB5002C00769
:10467000127800D1120902F00F0201209040084088
:10468000704700006C4F00080FB4084B10B504A928
:1046900002AA039800F0CEF8044602A9002000F018
:1046A00060FC204610BC5DF814FB0000634F00085E
:1046B00002E008C8121F08C1002AFAD170477047EB
:1046C000002001E001C1121F002AFBD17047000049
:1046D0002DE9FF5FDDE90220010DDDF838B002436E
:1046E00018D044F61050A1F2FF3141430D140F9839
:1046F000012820D0A5EB0B00401C5FEA000A4FF018
:104700000004474EDFF81C91A046504616D5CAF16A
:10471000000728E00F98012443A2012808D00021B7
:1047200000980F9BC0E90021C0E90243BDE8FF9F4C
:104730006FEA0B01F4E7CBF10000DEE7074612E079
:10474000F80707D02246334640464946FFF70DFD9D
:10475000804689462246334610461946FFF705FD36
:1047600004460E467F10002FEAD1DDE90201BAF1BE
:10477000000F42464B4602DAFFF7F7FC01E0FFF775
:1047800083FA04460E460022284BFFF779FD03D832
:104790004FF0FF30014607E00022254B204631460E
:1047A000FFF73CFCFFF753FD102409E0002C0ADB67
:1047B0000A220023FFF72DFB019B30321A55641E9D
:1047C00050EA0102F2D1641C019AC4F111031444AD
:1047D0000F9A012A03D0012208430DD10AE00843B1
:1047E00004D000204FF0110B0F9080E7A3EB0B05D6
:1047F0006D1E0DE05B4504DD4FF0000205F1010583
:1048000004E003DA4FF00002A5F10105002AECD024
:1048100000980F99C0E90231C0E9004586E7000021
:10482000000024400000F03F300000000000F04392
:104830000000E03F2DE9FF4F95B09B4689460646B4
:1048400000250FE2252877D100242746F84A0121C8
:10485000059400E0044316F8013F203B01FA03F001
:104860001042F7D130782A2811D06FF02F0330781A
:10487000A0F13002092A16D8059A44F0020402EB8E
:10488000820203EB42021044761C0590EFE759F8D0
:10489000042B0592002A03DA504244F40054059098
:1048A00044F00204761C30782E2816D116F8010F39
:1048B00044F004042A280DD06FF02F023078A0F1C4
:1048C0003003092B09D807EB870302EB4303C71812
:1048D000761CF3E759F8047B761C30786C280FD0EF
:1048E00006DC4C2817D068280DD06A2814D104E0C3
:1048F000742810D07A280FD10DE044F400140AE097
:1049000044F4801401E044F440147278824202D1ED
:1049100004F58014761C761C307866280BD013DCE6
:10492000582877D009DC002875D04528F6D04628CD
:10493000F4D047281AD19DE118E0632835D06428C7
:1049400079D0652812D195E1702873D008DC6728EA
:10495000F1D069286FD06E280DD06F2806D1B5E050
:1049600073282CD0752875D0782874D05A4617999A
:1049700090476D1C75E1C4F30250022809D003284A
:104980000DD0D9F8001004280DD00D6009F10409EC
:1049900067E1D9F80010EA17C1E90052F6E7D9F843
:1049A00000100D80F2E70D70F0E719F8041B8DF888
:1049B000001000208DF80100EA46012003E059F8BC
:1049C00004AB4FF0FF3061074FF0000102D40DE05F
:1049D00008F101018846B9420FDA8045F8DB1AF880
:1049E00008100029F4D108E008F10101884681424D
:1049F000FADB1AF808100029F6D105985B46A0EBFF
:104A0000080721463846179A00F094FA284400EB2C
:104A1000080507E04DE029E10DE01AF8010B5A46C0
:104A200017999047B8F10108F7D25B4621463846FE
:104A3000179A13E142E00A220092C4F302524FF0A7
:104A4000000A022A08D059F804CB032A4FEAEC7175
:104A50000AD00DE029E02AE009F1070121F0070260
:104A6000F2E802C1914609E00FFA8CFC4FEAEC71C2
:104A7000042A03D14FFA8CFC4FEAEC71002907DAC3
:104A80000A460021DCF1000C61EB02012D2202E05C
:104A9000220504D52B228DF80420012203E0E20731
:104AA00001D02022F7E7904659E00A2102E01022C7
:104AB0000DE010214FF0000A00910BE010224FF0A2
:104AC000000A44F004040827009203E008224FF093
:104AD000000A0092C4F30252022A05D059F804CB0E
:104AE0000021032A08D009E009F1070121F007029B
:104AF000F2E802C1914605E01FFA8CFC042A01D1BC
:104B00000CF0FF0C4FF00008220728D5702806D0C3
:104B1000009B83F0100353EA0A0305D00EE0402205
:104B20008DF80420012208E05CEA010206D0302260
:104B30008DF804208DF8050002229046009B83F03A
:104B4000080353EA0A030AD15CEA010201D16207B1
:104B500005D530228DF804204FF001087F1E58281B
:104B600004D034A003900EA802900DE036A0F9E71F
:104B700053466046009AFFF74CF984460398825CDE
:104B80000298401E029002705CEA0100F0D1029887
:104B900006A9081A00F1200A600702D524F480341F
:104BA00000E00127574502DDA7EB0A0000E00020E6
:104BB00000EB0A01009005984144401A0590E0037B
:104BC00006D45B462146179A059800F0B3F90544D0
:104BD000002706E001A85A46C05D179990476D1C52
:104BE0007F1C4745F6DBE0030CD55B462146179A50
:104BF000059800F09FF9054404E030205A461799C3
:104C000090476D1C0099481E00900029F5DC08E0D3
:104C1000029802995A460078491C029117999047C8
:104C20006D1CBAF10001AAF1010AF1DC65E1000096
:104C30000928010030313233343536373839616272
:104C40006364656600000000303132333435363736
:104C500038394142434445460000000000F058F90D
:104C60000544761C307800287FF4ECAD19B0284656
:104C7000BDE8F08F620700D4062709F1070222F091
:104C8000070CFCE80223E14603F000485FEA080C49
:104C900002D00FF2702C0DE05FEA045C02D50FF237
:104CA000682C07E05FEAC47C02D00FF2602C01E0C0
:104CB000AFF2700C4FF0FF3823F00043CDF850C036
:104CC00065280CD006DC452809D046281DD0472889
:104CD0003DD13DE0662818D067287ED138E000211C
:104CE000112F01DB112000E0781CCDE9000106A99D
:104CF0000EA8FFF7EDFCDDE90F010E9A03910021EC
:104D0000009207F1010A04914DE04FF00040009736
:104D1000CDE9011006A90EA8FFF7DAFCDDE90F02C4
:104D200003920E9B11990022DDF80CA000930492CF
:104D300011B9791C00EB010AB7EB0A0004D4C0F1E9
:104D4000FF3007F1010A0490AAEB0700019044E04C
:104D5000012F00DA01270021112F01DD112000E0D1
:104D60003846CDE9000106A90EA8FFF7B1FCDDE940
:104D70000F010E9A0391002104910092BA46210777
:104D80000CD40399514500DA8A46BAF1010F05DDCA
:104D9000009AAAF10101515C302908D0B84202DA28
:104DA00010F1040F06DA0121CDE9011015E0AAF196
:104DB0000101E9E7002805DC049901440491AAEB0C
:104DC000000102E0411C514500DD8A460499401A69
:104DD000401C01904FF000400290200704D401983D
:104DE000504501DBCDF8048000208DF84F0002987B
:104DF0000DF14F07B0F1004F25D02B200E900298F7
:104E00004FF0020800280CDA404202902D200E904C
:104E100007E00A210298FEF7E6FF3031029007F81A
:104E2000011DB8F10001A8F10108F2DC0298002888
:104E3000EFD1791E0E980870307800F0200040F015
:104E4000450007F8020D12A8C01B00F107081498CE
:104E5000007800B1012000EB0A01019801EBE0713C
:104E600005984144401A401E0590E00306D45B4675
:104E70002146179A059800F05DF8054414980078CB
:104E800018B15A46179990476D1CE00324D55B462C
:104E90002146179A059800F04DF805441CE0049847
:104EA000002807DBDDE90301884203DD0098405C50
:104EB000179901E0179930205A469047049805F158
:104EC0000105401C04900198401E019004D12E2041
:104ED0005A46179990476D1CBAF10001AAF1010AD0
:104EE000DDDC05E017F8010B5A46179990476D1C59
:104EF000B8F10001A8F10108F4DC5B462146179ADD
:104F00000598ABE62D0000002B00000020000000FB
:104F10002DE9F041044600251E461746880404D4B6
:104F200005E039462020B0476D1C641EF9D528469F
:104F3000BDE8F0812DE9F041044600251E4690466B
:104F4000C80301D5302700E02027880404D505E0F8
:104F500041463846B0476D1C641EF9D52846BDE869
:104F6000F0810A68531C0B6010707047DDDDDDDDD9
:104F7000DCBBBBDDDDDDDDDDDDDDDDDD98888888EA
:104F80008888888877777777778888888555555691
:104F900066666666666666666668888883333332E8
:104FA00022222222222222222228888DCC4F00086F
:104FB00000000020E0000000B0460008AC500008EF
:104FC000E0000020D0040000C046000800A24A040F
:104FD00000000000000000000102030406070809A9
:104FE0000300200000180140040000000405000038
:104FF00020000000170C0000000400401D0000000D
:105000000000000003004000000C014018000000F8
:10501000000800400100000003008000000C014077
:105020001000000003000001000C0140100000000F
:105030000000C8000F000000000000000000000099
:1050400003000002000C014010010000030000807A
:105050000018014010000000030000020008014099
:1050600018000000030000040008014004000000D4
:105070000038014000C201000000000025000000CF
:105080000000000000000000000000000000000020
:1050900000000000000000000204060800000000FC
:0C50A000010203040102030406070809D2
:0400000508000131BD
:00000001FF
